{
	"contracts/ManageProject.sol": {
		"ManageProject": {
			"abi": [
				{
					"inputs": [
						{
							"internalType": "address",
							"name": "_commisionContractAddress",
							"type": "address"
						}
					],
					"stateMutability": "nonpayable",
					"type": "constructor"
				},
				{
					"anonymous": false,
					"inputs": [
						{
							"indexed": true,
							"internalType": "uint256",
							"name": "projectId",
							"type": "uint256"
						},
						{
							"indexed": true,
							"internalType": "address",
							"name": "withdrawer",
							"type": "address"
						},
						{
							"indexed": false,
							"internalType": "uint256",
							"name": "amount",
							"type": "uint256"
						},
						{
							"indexed": false,
							"internalType": "string",
							"name": "withdrawerType",
							"type": "string"
						}
					],
					"name": "FundsWithdrawn",
					"type": "event"
				},
				{
					"anonymous": false,
					"inputs": [
						{
							"indexed": true,
							"internalType": "uint256",
							"name": "projectId",
							"type": "uint256"
						},
						{
							"indexed": false,
							"internalType": "uint256",
							"name": "newDeadline",
							"type": "uint256"
						}
					],
					"name": "NewDeadline",
					"type": "event"
				},
				{
					"anonymous": false,
					"inputs": [
						{
							"indexed": true,
							"internalType": "uint256",
							"name": "projectId",
							"type": "uint256"
						},
						{
							"indexed": true,
							"internalType": "address",
							"name": "creater",
							"type": "address"
						},
						{
							"indexed": false,
							"internalType": "string",
							"name": "name",
							"type": "string"
						},
						{
							"indexed": false,
							"internalType": "string",
							"name": "description",
							"type": "string"
						},
						{
							"indexed": false,
							"internalType": "uint256",
							"name": "FundingGoal",
							"type": "uint256"
						},
						{
							"indexed": false,
							"internalType": "uint256",
							"name": "deadline",
							"type": "uint256"
						}
					],
					"name": "ProjectCreated",
					"type": "event"
				},
				{
					"anonymous": false,
					"inputs": [
						{
							"indexed": true,
							"internalType": "uint256",
							"name": "projectId",
							"type": "uint256"
						},
						{
							"indexed": true,
							"internalType": "address",
							"name": "contributer",
							"type": "address"
						},
						{
							"indexed": false,
							"internalType": "uint256",
							"name": "amount",
							"type": "uint256"
						}
					],
					"name": "ProjectFunded",
					"type": "event"
				},
				{
					"inputs": [
						{
							"internalType": "uint256",
							"name": "_projectId",
							"type": "uint256"
						}
					],
					"name": "adminWithdrawFunds",
					"outputs": [],
					"stateMutability": "payable",
					"type": "function"
				},
				{
					"inputs": [
						{
							"internalType": "uint256",
							"name": "",
							"type": "uint256"
						},
						{
							"internalType": "address",
							"name": "",
							"type": "address"
						}
					],
					"name": "contributions",
					"outputs": [
						{
							"internalType": "uint256",
							"name": "",
							"type": "uint256"
						}
					],
					"stateMutability": "view",
					"type": "function"
				},
				{
					"inputs": [
						{
							"internalType": "string",
							"name": "_name",
							"type": "string"
						},
						{
							"internalType": "string",
							"name": "_description",
							"type": "string"
						},
						{
							"internalType": "uint256",
							"name": "_fundingGoal",
							"type": "uint256"
						},
						{
							"internalType": "uint256",
							"name": "_durationSeconds",
							"type": "uint256"
						},
						{
							"internalType": "uint256",
							"name": "_id",
							"type": "uint256"
						}
					],
					"name": "createProject",
					"outputs": [],
					"stateMutability": "nonpayable",
					"type": "function"
				},
				{
					"inputs": [
						{
							"internalType": "uint256",
							"name": "_projectId",
							"type": "uint256"
						}
					],
					"name": "fundProject",
					"outputs": [],
					"stateMutability": "payable",
					"type": "function"
				},
				{
					"inputs": [
						{
							"internalType": "uint256",
							"name": "",
							"type": "uint256"
						}
					],
					"name": "isIdUsed",
					"outputs": [
						{
							"internalType": "bool",
							"name": "",
							"type": "bool"
						}
					],
					"stateMutability": "view",
					"type": "function"
				},
				{
					"inputs": [
						{
							"internalType": "address",
							"name": "",
							"type": "address"
						}
					],
					"name": "noOfProjAddWise",
					"outputs": [
						{
							"internalType": "uint256",
							"name": "",
							"type": "uint256"
						}
					],
					"stateMutability": "view",
					"type": "function"
				},
				{
					"inputs": [
						{
							"internalType": "uint256",
							"name": "",
							"type": "uint256"
						}
					],
					"name": "projects",
					"outputs": [
						{
							"internalType": "address",
							"name": "creator",
							"type": "address"
						},
						{
							"internalType": "string",
							"name": "name",
							"type": "string"
						},
						{
							"internalType": "string",
							"name": "description",
							"type": "string"
						},
						{
							"internalType": "address",
							"name": "highestFunder",
							"type": "address"
						},
						{
							"internalType": "uint256",
							"name": "highestFunding",
							"type": "uint256"
						},
						{
							"internalType": "uint256",
							"name": "fundingGoal",
							"type": "uint256"
						},
						{
							"internalType": "uint256",
							"name": "deadline",
							"type": "uint256"
						},
						{
							"internalType": "uint256",
							"name": "amountRaised",
							"type": "uint256"
						},
						{
							"internalType": "bool",
							"name": "funded",
							"type": "bool"
						}
					],
					"stateMutability": "view",
					"type": "function"
				},
				{
					"inputs": [
						{
							"internalType": "uint256",
							"name": "_projectId",
							"type": "uint256"
						},
						{
							"internalType": "uint256",
							"name": "_newDeadline",
							"type": "uint256"
						}
					],
					"name": "setDeadline",
					"outputs": [],
					"stateMutability": "payable",
					"type": "function"
				},
				{
					"inputs": [],
					"name": "totalFaildedToFundProj",
					"outputs": [
						{
							"internalType": "uint256",
							"name": "",
							"type": "uint256"
						}
					],
					"stateMutability": "view",
					"type": "function"
				},
				{
					"inputs": [],
					"name": "totalSuccessfullyFundedProj",
					"outputs": [
						{
							"internalType": "uint256",
							"name": "",
							"type": "uint256"
						}
					],
					"stateMutability": "view",
					"type": "function"
				},
				{
					"inputs": [],
					"name": "totalnoOfProjects",
					"outputs": [
						{
							"internalType": "uint256",
							"name": "",
							"type": "uint256"
						}
					],
					"stateMutability": "view",
					"type": "function"
				},
				{
					"inputs": [
						{
							"internalType": "uint256",
							"name": "_projectId",
							"type": "uint256"
						}
					],
					"name": "userWithdrawFunds",
					"outputs": [],
					"stateMutability": "payable",
					"type": "function"
				}
			],
			"devdoc": {
				"kind": "dev",
				"methods": {},
				"version": 1
			},
			"evm": {
				"assembly": "    /* \"contracts/ManageProject.sol\":838:6438  contract ManageProject is Ownable{... */\n  mstore(0x40, 0x80)\n    /* \"contracts/ManageProject.sol\":1271:1397  constructor(address _commisionContractAddress){... */\n  callvalue\n  dup1\n  iszero\n  tag_1\n  jumpi\n  0x00\n  dup1\n  revert\ntag_1:\n  pop\n  mload(0x40)\n  sub(codesize, bytecodeSize)\n  dup1\n  bytecodeSize\n  dup4\n  codecopy\n  dup2\n  dup2\n  add\n  0x40\n  mstore\n  dup2\n  add\n  swap1\n  tag_2\n  swap2\n  swap1\n  tag_3\n  jump\t// in\ntag_2:\n    /* \"contracts/ManageProject.sol\":286:296  msg.sender */\n  caller\n    /* \"contracts/ManageProject.sol\":270:275  owner */\n  0x00\n  dup1\n    /* \"contracts/ManageProject.sol\":270:297  owner = payable(msg.sender) */\n  0x0100\n  exp\n  dup2\n  sload\n  dup2\n  0xffffffffffffffffffffffffffffffffffffffff\n  mul\n  not\n  and\n  swap1\n  dup4\n  0xffffffffffffffffffffffffffffffffffffffff\n  and\n  mul\n  or\n  swap1\n  sstore\n  pop\n    /* \"contracts/ManageProject.sol\":1347:1372  _commisionContractAddress */\n  dup1\n    /* \"contracts/ManageProject.sol\":1328:1338  _commision */\n  0x04\n  0x00\n    /* \"contracts/ManageProject.sol\":1328:1373  _commision=payable(_commisionContractAddress) */\n  0x0100\n  exp\n  dup2\n  sload\n  dup2\n  0xffffffffffffffffffffffffffffffffffffffff\n  mul\n  not\n  and\n  swap1\n  dup4\n  0xffffffffffffffffffffffffffffffffffffffff\n  and\n  mul\n  or\n  swap1\n  sstore\n  pop\n    /* \"contracts/ManageProject.sol\":1271:1397  constructor(address _commisionContractAddress){... */\n  pop\n    /* \"contracts/ManageProject.sol\":838:6438  contract ManageProject is Ownable{... */\n  jump(tag_8)\n    /* \"#utility.yul\":88:205   */\ntag_10:\n    /* \"#utility.yul\":197:198   */\n  0x00\n    /* \"#utility.yul\":194:195   */\n  dup1\n    /* \"#utility.yul\":187:199   */\n  revert\n    /* \"#utility.yul\":334:460   */\ntag_12:\n    /* \"#utility.yul\":371:378   */\n  0x00\n    /* \"#utility.yul\":411:453   */\n  0xffffffffffffffffffffffffffffffffffffffff\n    /* \"#utility.yul\":404:409   */\n  dup3\n    /* \"#utility.yul\":400:454   */\n  and\n    /* \"#utility.yul\":389:454   */\n  swap1\n  pop\n    /* \"#utility.yul\":334:460   */\n  swap2\n  swap1\n  pop\n  jump\t// out\n    /* \"#utility.yul\":466:562   */\ntag_13:\n    /* \"#utility.yul\":503:510   */\n  0x00\n    /* \"#utility.yul\":532:556   */\n  tag_22\n    /* \"#utility.yul\":550:555   */\n  dup3\n    /* \"#utility.yul\":532:556   */\n  tag_12\n  jump\t// in\ntag_22:\n    /* \"#utility.yul\":521:556   */\n  swap1\n  pop\n    /* \"#utility.yul\":466:562   */\n  swap2\n  swap1\n  pop\n  jump\t// out\n    /* \"#utility.yul\":568:690   */\ntag_14:\n    /* \"#utility.yul\":641:665   */\n  tag_24\n    /* \"#utility.yul\":659:664   */\n  dup2\n    /* \"#utility.yul\":641:665   */\n  tag_13\n  jump\t// in\ntag_24:\n    /* \"#utility.yul\":634:639   */\n  dup2\n    /* \"#utility.yul\":631:666   */\n  eq\n    /* \"#utility.yul\":621:684   */\n  tag_25\n  jumpi\n    /* \"#utility.yul\":680:681   */\n  0x00\n    /* \"#utility.yul\":677:678   */\n  dup1\n    /* \"#utility.yul\":670:682   */\n  revert\n    /* \"#utility.yul\":621:684   */\ntag_25:\n    /* \"#utility.yul\":568:690   */\n  pop\n  jump\t// out\n    /* \"#utility.yul\":696:839   */\ntag_15:\n    /* \"#utility.yul\":753:758   */\n  0x00\n    /* \"#utility.yul\":784:790   */\n  dup2\n    /* \"#utility.yul\":778:791   */\n  mload\n    /* \"#utility.yul\":769:791   */\n  swap1\n  pop\n    /* \"#utility.yul\":800:833   */\n  tag_27\n    /* \"#utility.yul\":827:832   */\n  dup2\n    /* \"#utility.yul\":800:833   */\n  tag_14\n  jump\t// in\ntag_27:\n    /* \"#utility.yul\":696:839   */\n  swap3\n  swap2\n  pop\n  pop\n  jump\t// out\n    /* \"#utility.yul\":845:1196   */\ntag_3:\n    /* \"#utility.yul\":915:921   */\n  0x00\n    /* \"#utility.yul\":964:966   */\n  0x20\n    /* \"#utility.yul\":952:961   */\n  dup3\n    /* \"#utility.yul\":943:950   */\n  dup5\n    /* \"#utility.yul\":939:962   */\n  sub\n    /* \"#utility.yul\":935:967   */\n  slt\n    /* \"#utility.yul\":932:1051   */\n  iszero\n  tag_29\n  jumpi\n    /* \"#utility.yul\":970:1049   */\n  tag_30\n  tag_10\n  jump\t// in\ntag_30:\n    /* \"#utility.yul\":932:1051   */\ntag_29:\n    /* \"#utility.yul\":1090:1091   */\n  0x00\n    /* \"#utility.yul\":1115:1179   */\n  tag_31\n    /* \"#utility.yul\":1171:1178   */\n  dup5\n    /* \"#utility.yul\":1162:1168   */\n  dup3\n    /* \"#utility.yul\":1151:1160   */\n  dup6\n    /* \"#utility.yul\":1147:1169   */\n  add\n    /* \"#utility.yul\":1115:1179   */\n  tag_15\n  jump\t// in\ntag_31:\n    /* \"#utility.yul\":1105:1179   */\n  swap2\n  pop\n    /* \"#utility.yul\":1061:1189   */\n  pop\n    /* \"#utility.yul\":845:1196   */\n  swap3\n  swap2\n  pop\n  pop\n  jump\t// out\n    /* \"contracts/ManageProject.sol\":838:6438  contract ManageProject is Ownable{... */\ntag_8:\n  dataSize(sub_0)\n  dup1\n  dataOffset(sub_0)\n  0x00\n  codecopy\n  0x00\n  return\nstop\n\nsub_0: assembly {\n        /* \"contracts/ManageProject.sol\":838:6438  contract ManageProject is Ownable{... */\n      mstore(0x40, 0x80)\n      jumpi(tag_1, lt(calldatasize, 0x04))\n      shr(0xe0, calldataload(0x00))\n      dup1\n      0x6c563abe\n      gt\n      tag_14\n      jumpi\n      dup1\n      0x6c563abe\n      eq\n      tag_8\n      jumpi\n      dup1\n      0x7b12376e\n      eq\n      tag_9\n      jumpi\n      dup1\n      0xb1357b68\n      eq\n      tag_10\n      jumpi\n      dup1\n      0xf81bf601\n      eq\n      tag_11\n      jumpi\n      dup1\n      0xfa1d4d2d\n      eq\n      tag_12\n      jumpi\n      dup1\n      0xfb83a4ad\n      eq\n      tag_13\n      jumpi\n      jump(tag_1)\n    tag_14:\n      dup1\n      0x9a0b30\n      eq\n      tag_2\n      jumpi\n      dup1\n      0x0bca5da0\n      eq\n      tag_3\n      jumpi\n      dup1\n      0x107046bd\n      eq\n      tag_4\n      jumpi\n      dup1\n      0x3d891f59\n      eq\n      tag_5\n      jumpi\n      dup1\n      0x592cef6d\n      eq\n      tag_6\n      jumpi\n      dup1\n      0x66b48541\n      eq\n      tag_7\n      jumpi\n    tag_1:\n      0x00\n      dup1\n      revert\n        /* \"contracts/ManageProject.sol\":5662:6054  function setDeadline(uint _projectId,uint _newDeadline)external payable{... */\n    tag_2:\n      tag_15\n      0x04\n      dup1\n      calldatasize\n      sub\n      dup2\n      add\n      swap1\n      tag_16\n      swap2\n      swap1\n      tag_17\n      jump\t// in\n    tag_16:\n      tag_18\n      jump\t// in\n    tag_15:\n      stop\n        /* \"contracts/ManageProject.sol\":999:1039  uint  public totalSuccessfullyFundedProj */\n    tag_3:\n      callvalue\n      dup1\n      iszero\n      tag_19\n      jumpi\n      0x00\n      dup1\n      revert\n    tag_19:\n      pop\n      tag_20\n      tag_21\n      jump\t// in\n    tag_20:\n      mload(0x40)\n      tag_22\n      swap2\n      swap1\n      tag_23\n      jump\t// in\n    tag_22:\n      mload(0x40)\n      dup1\n      swap2\n      sub\n      swap1\n      return\n        /* \"contracts/ManageProject.sol\":1923:1960  mapping(uint=>Project)public projects */\n    tag_4:\n      callvalue\n      dup1\n      iszero\n      tag_24\n      jumpi\n      0x00\n      dup1\n      revert\n    tag_24:\n      pop\n      tag_25\n      0x04\n      dup1\n      calldatasize\n      sub\n      dup2\n      add\n      swap1\n      tag_26\n      swap2\n      swap1\n      tag_27\n      jump\t// in\n    tag_26:\n      tag_28\n      jump\t// in\n    tag_25:\n      mload(0x40)\n      tag_29\n      swap10\n      swap9\n      swap8\n      swap7\n      swap6\n      swap5\n      swap4\n      swap3\n      swap2\n      swap1\n      tag_30\n      jump\t// in\n    tag_29:\n      mload(0x40)\n      dup1\n      swap2\n      sub\n      swap1\n      return\n        /* \"contracts/ManageProject.sol\":2030:2087  mapping(uint=>mapping(address=>uint))public contributions */\n    tag_5:\n      callvalue\n      dup1\n      iszero\n      tag_31\n      jumpi\n      0x00\n      dup1\n      revert\n    tag_31:\n      pop\n      tag_32\n      0x04\n      dup1\n      calldatasize\n      sub\n      dup2\n      add\n      swap1\n      tag_33\n      swap2\n      swap1\n      tag_34\n      jump\t// in\n    tag_33:\n      tag_35\n      jump\t// in\n    tag_32:\n      mload(0x40)\n      tag_36\n      swap2\n      swap1\n      tag_23\n      jump\t// in\n    tag_36:\n      mload(0x40)\n      dup1\n      swap2\n      sub\n      swap1\n      return\n        /* \"contracts/ManageProject.sol\":4773:5127  function userWithdrawFunds(uint _projectId)external payable{... */\n    tag_6:\n      tag_37\n      0x04\n      dup1\n      calldatasize\n      sub\n      dup2\n      add\n      swap1\n      tag_38\n      swap2\n      swap1\n      tag_27\n      jump\t// in\n    tag_38:\n      tag_39\n      jump\t// in\n    tag_37:\n      stop\n        /* \"contracts/ManageProject.sol\":1470:1515  mapping(address=>uint) public noOfProjAddWise */\n    tag_7:\n      callvalue\n      dup1\n      iszero\n      tag_40\n      jumpi\n      0x00\n      dup1\n      revert\n    tag_40:\n      pop\n      tag_41\n      0x04\n      dup1\n      calldatasize\n      sub\n      dup2\n      add\n      swap1\n      tag_42\n      swap2\n      swap1\n      tag_43\n      jump\t// in\n    tag_42:\n      tag_44\n      jump\t// in\n    tag_41:\n      mload(0x40)\n      tag_45\n      swap2\n      swap1\n      tag_23\n      jump\t// in\n    tag_45:\n      mload(0x40)\n      dup1\n      swap2\n      sub\n      swap1\n      return\n        /* \"contracts/ManageProject.sol\":3861:4738  function fundProject(uint _projectId)external payable{... */\n    tag_8:\n      tag_46\n      0x04\n      dup1\n      calldatasize\n      sub\n      dup2\n      add\n      swap1\n      tag_47\n      swap2\n      swap1\n      tag_27\n      jump\t// in\n    tag_47:\n      tag_48\n      jump\t// in\n    tag_46:\n      stop\n        /* \"contracts/ManageProject.sol\":2145:2179  mapping(uint=>bool)public isIdUsed */\n    tag_9:\n      callvalue\n      dup1\n      iszero\n      tag_49\n      jumpi\n      0x00\n      dup1\n      revert\n    tag_49:\n      pop\n      tag_50\n      0x04\n      dup1\n      calldatasize\n      sub\n      dup2\n      add\n      swap1\n      tag_51\n      swap2\n      swap1\n      tag_27\n      jump\t// in\n    tag_51:\n      tag_52\n      jump\t// in\n    tag_50:\n      mload(0x40)\n      tag_53\n      swap2\n      swap1\n      tag_54\n      jump\t// in\n    tag_53:\n      mload(0x40)\n      dup1\n      swap2\n      sub\n      swap1\n      return\n        /* \"contracts/ManageProject.sol\":5163:5624  function adminWithdrawFunds(uint _projectId)external payable{... */\n    tag_10:\n      tag_55\n      0x04\n      dup1\n      calldatasize\n      sub\n      dup2\n      add\n      swap1\n      tag_56\n      swap2\n      swap1\n      tag_27\n      jump\t// in\n    tag_56:\n      tag_57\n      jump\t// in\n    tag_55:\n      stop\n        /* \"contracts/ManageProject.sol\":2729:3794  function createProject(... */\n    tag_11:\n      callvalue\n      dup1\n      iszero\n      tag_58\n      jumpi\n      0x00\n      dup1\n      revert\n    tag_58:\n      pop\n      tag_59\n      0x04\n      dup1\n      calldatasize\n      sub\n      dup2\n      add\n      swap1\n      tag_60\n      swap2\n      swap1\n      tag_61\n      jump\t// in\n    tag_60:\n      tag_62\n      jump\t// in\n    tag_59:\n      stop\n        /* \"contracts/ManageProject.sol\":6111:6435  function totalFaildedToFundProj()public view returns(uint){... */\n    tag_12:\n      callvalue\n      dup1\n      iszero\n      tag_63\n      jumpi\n      0x00\n      dup1\n      revert\n    tag_63:\n      pop\n      tag_64\n      tag_65\n      jump\t// in\n    tag_64:\n      mload(0x40)\n      tag_66\n      swap2\n      swap1\n      tag_23\n      jump\t// in\n    tag_66:\n      mload(0x40)\n      dup1\n      swap2\n      sub\n      swap1\n      return\n        /* \"contracts/ManageProject.sol\":914:943  uint public totalnoOfProjects */\n    tag_13:\n      callvalue\n      dup1\n      iszero\n      tag_67\n      jumpi\n      0x00\n      dup1\n      revert\n    tag_67:\n      pop\n      tag_68\n      tag_69\n      jump\t// in\n    tag_68:\n      mload(0x40)\n      tag_70\n      swap2\n      swap1\n      tag_23\n      jump\t// in\n    tag_70:\n      mload(0x40)\n      dup1\n      swap2\n      sub\n      swap1\n      return\n        /* \"contracts/ManageProject.sol\":5662:6054  function setDeadline(uint _projectId,uint _newDeadline)external payable{... */\n    tag_18:\n        /* \"contracts/ManageProject.sol\":5744:5767  Project storage project */\n      0x00\n        /* \"contracts/ManageProject.sol\":5770:5778  projects */\n      0x06\n        /* \"contracts/ManageProject.sol\":5770:5790  projects[_projectId] */\n      0x00\n        /* \"contracts/ManageProject.sol\":5779:5789  _projectId */\n      dup5\n        /* \"contracts/ManageProject.sol\":5770:5790  projects[_projectId] */\n      dup2\n      mstore\n      0x20\n      add\n      swap1\n      dup2\n      mstore\n      0x20\n      add\n      0x00\n      keccak256\n        /* \"contracts/ManageProject.sol\":5744:5790  Project storage project = projects[_projectId] */\n      swap1\n      pop\n        /* \"contracts/ManageProject.sol\":5826:5836  msg.sender */\n      caller\n        /* \"contracts/ManageProject.sol\":5809:5836  project.creator==msg.sender */\n      0xffffffffffffffffffffffffffffffffffffffff\n      and\n        /* \"contracts/ManageProject.sol\":5809:5816  project */\n      dup2\n        /* \"contracts/ManageProject.sol\":5809:5824  project.creator */\n      0x00\n      add\n      0x00\n      swap1\n      sload\n      swap1\n      0x0100\n      exp\n      swap1\n      div\n      0xffffffffffffffffffffffffffffffffffffffff\n      and\n        /* \"contracts/ManageProject.sol\":5809:5836  project.creator==msg.sender */\n      0xffffffffffffffffffffffffffffffffffffffff\n      and\n      eq\n        /* \"contracts/ManageProject.sol\":5801:5876  require(project.creator==msg.sender,\"Only Creator can Change the Deadline\") */\n      tag_72\n      jumpi\n      mload(0x40)\n      0x08c379a000000000000000000000000000000000000000000000000000000000\n      dup2\n      mstore\n      0x04\n      add\n      tag_73\n      swap1\n      tag_74\n      jump\t// in\n    tag_73:\n      mload(0x40)\n      dup1\n      swap2\n      sub\n      swap1\n      revert\n    tag_72:\n        /* \"contracts/ManageProject.sol\":5908:5923  block.timestamp */\n      timestamp\n        /* \"contracts/ManageProject.sol\":5895:5907  _newDeadline */\n      dup3\n        /* \"contracts/ManageProject.sol\":5895:5923  _newDeadline>block.timestamp */\n      gt\n        /* \"contracts/ManageProject.sol\":5887:5954  require(_newDeadline>block.timestamp,\"Deadline is already passed.\") */\n      tag_75\n      jumpi\n      mload(0x40)\n      0x08c379a000000000000000000000000000000000000000000000000000000000\n      dup2\n      mstore\n      0x04\n      add\n      tag_76\n      swap1\n      tag_77\n      jump\t// in\n    tag_76:\n      mload(0x40)\n      dup1\n      swap2\n      sub\n      swap1\n      revert\n    tag_75:\n        /* \"contracts/ManageProject.sol\":5982:5994  _newDeadline */\n      dup2\n        /* \"contracts/ManageProject.sol\":5965:5972  project */\n      dup2\n        /* \"contracts/ManageProject.sol\":5965:5981  project.deadline */\n      0x06\n      add\n        /* \"contracts/ManageProject.sol\":5965:5994  project.deadline=_newDeadline */\n      dup2\n      swap1\n      sstore\n      pop\n        /* \"contracts/ManageProject.sol\":6022:6032  _projectId */\n      dup3\n        /* \"contracts/ManageProject.sol\":6010:6046  NewDeadline(_projectId,_newDeadline) */\n      0x2fba265f9d4a4bc970a1af6317b54b90c79b59d385d463fc3c85c37abc072495\n        /* \"contracts/ManageProject.sol\":6033:6045  _newDeadline */\n      dup4\n        /* \"contracts/ManageProject.sol\":6010:6046  NewDeadline(_projectId,_newDeadline) */\n      mload(0x40)\n      tag_78\n      swap2\n      swap1\n      tag_23\n      jump\t// in\n    tag_78:\n      mload(0x40)\n      dup1\n      swap2\n      sub\n      swap1\n      log2\n        /* \"contracts/ManageProject.sol\":5733:6054  {... */\n      pop\n        /* \"contracts/ManageProject.sol\":5662:6054  function setDeadline(uint _projectId,uint _newDeadline)external payable{... */\n      pop\n      pop\n      jump\t// out\n        /* \"contracts/ManageProject.sol\":999:1039  uint  public totalSuccessfullyFundedProj */\n    tag_21:\n      sload(0x02)\n      dup2\n      jump\t// out\n        /* \"contracts/ManageProject.sol\":1923:1960  mapping(uint=>Project)public projects */\n    tag_28:\n      mstore(0x20, 0x06)\n      dup1\n      0x00\n      mstore\n      keccak256(0x00, 0x40)\n      0x00\n      swap2\n      pop\n      swap1\n      pop\n      dup1\n      0x00\n      add\n      0x00\n      swap1\n      sload\n      swap1\n      0x0100\n      exp\n      swap1\n      div\n      0xffffffffffffffffffffffffffffffffffffffff\n      and\n      swap1\n      dup1\n      0x01\n      add\n      dup1\n      sload\n      tag_79\n      swap1\n      tag_80\n      jump\t// in\n    tag_79:\n      dup1\n      0x1f\n      add\n      0x20\n      dup1\n      swap2\n      div\n      mul\n      0x20\n      add\n      mload(0x40)\n      swap1\n      dup2\n      add\n      0x40\n      mstore\n      dup1\n      swap3\n      swap2\n      swap1\n      dup2\n      dup2\n      mstore\n      0x20\n      add\n      dup3\n      dup1\n      sload\n      tag_81\n      swap1\n      tag_80\n      jump\t// in\n    tag_81:\n      dup1\n      iszero\n      tag_82\n      jumpi\n      dup1\n      0x1f\n      lt\n      tag_83\n      jumpi\n      0x0100\n      dup1\n      dup4\n      sload\n      div\n      mul\n      dup4\n      mstore\n      swap2\n      0x20\n      add\n      swap2\n      jump(tag_82)\n    tag_83:\n      dup3\n      add\n      swap2\n      swap1\n      0x00\n      mstore\n      keccak256(0x00, 0x20)\n      swap1\n    tag_84:\n      dup2\n      sload\n      dup2\n      mstore\n      swap1\n      0x01\n      add\n      swap1\n      0x20\n      add\n      dup1\n      dup4\n      gt\n      tag_84\n      jumpi\n      dup3\n      swap1\n      sub\n      0x1f\n      and\n      dup3\n      add\n      swap2\n    tag_82:\n      pop\n      pop\n      pop\n      pop\n      pop\n      swap1\n      dup1\n      0x02\n      add\n      dup1\n      sload\n      tag_85\n      swap1\n      tag_80\n      jump\t// in\n    tag_85:\n      dup1\n      0x1f\n      add\n      0x20\n      dup1\n      swap2\n      div\n      mul\n      0x20\n      add\n      mload(0x40)\n      swap1\n      dup2\n      add\n      0x40\n      mstore\n      dup1\n      swap3\n      swap2\n      swap1\n      dup2\n      dup2\n      mstore\n      0x20\n      add\n      dup3\n      dup1\n      sload\n      tag_86\n      swap1\n      tag_80\n      jump\t// in\n    tag_86:\n      dup1\n      iszero\n      tag_87\n      jumpi\n      dup1\n      0x1f\n      lt\n      tag_88\n      jumpi\n      0x0100\n      dup1\n      dup4\n      sload\n      div\n      mul\n      dup4\n      mstore\n      swap2\n      0x20\n      add\n      swap2\n      jump(tag_87)\n    tag_88:\n      dup3\n      add\n      swap2\n      swap1\n      0x00\n      mstore\n      keccak256(0x00, 0x20)\n      swap1\n    tag_89:\n      dup2\n      sload\n      dup2\n      mstore\n      swap1\n      0x01\n      add\n      swap1\n      0x20\n      add\n      dup1\n      dup4\n      gt\n      tag_89\n      jumpi\n      dup3\n      swap1\n      sub\n      0x1f\n      and\n      dup3\n      add\n      swap2\n    tag_87:\n      pop\n      pop\n      pop\n      pop\n      pop\n      swap1\n      dup1\n      0x03\n      add\n      0x00\n      swap1\n      sload\n      swap1\n      0x0100\n      exp\n      swap1\n      div\n      0xffffffffffffffffffffffffffffffffffffffff\n      and\n      swap1\n      dup1\n      0x04\n      add\n      sload\n      swap1\n      dup1\n      0x05\n      add\n      sload\n      swap1\n      dup1\n      0x06\n      add\n      sload\n      swap1\n      dup1\n      0x07\n      add\n      sload\n      swap1\n      dup1\n      0x08\n      add\n      0x00\n      swap1\n      sload\n      swap1\n      0x0100\n      exp\n      swap1\n      div\n      0xff\n      and\n      swap1\n      pop\n      dup10\n      jump\t// out\n        /* \"contracts/ManageProject.sol\":2030:2087  mapping(uint=>mapping(address=>uint))public contributions */\n    tag_35:\n      mstore(0x20, 0x07)\n      dup2\n      0x00\n      mstore\n      mstore(0x20, keccak256(0x00, 0x40))\n      dup1\n      0x00\n      mstore\n      keccak256(0x00, 0x40)\n      0x00\n      swap2\n      pop\n      swap2\n      pop\n      pop\n      sload\n      dup2\n      jump\t// out\n        /* \"contracts/ManageProject.sol\":4773:5127  function userWithdrawFunds(uint _projectId)external payable{... */\n    tag_39:\n        /* \"contracts/ManageProject.sol\":4843:4866  Project storage project */\n      0x00\n        /* \"contracts/ManageProject.sol\":4867:4875  projects */\n      0x06\n        /* \"contracts/ManageProject.sol\":4867:4887  projects[_projectId] */\n      0x00\n        /* \"contracts/ManageProject.sol\":4876:4886  _projectId */\n      dup4\n        /* \"contracts/ManageProject.sol\":4867:4887  projects[_projectId] */\n      dup2\n      mstore\n      0x20\n      add\n      swap1\n      dup2\n      mstore\n      0x20\n      add\n      0x00\n      keccak256\n        /* \"contracts/ManageProject.sol\":4843:4887  Project storage project=projects[_projectId] */\n      swap1\n      pop\n        /* \"contracts/ManageProject.sol\":4927:4934  project */\n      dup1\n        /* \"contracts/ManageProject.sol\":4927:4946  project.fundingGoal */\n      0x05\n      add\n      sload\n        /* \"contracts/ManageProject.sol\":4906:4913  project */\n      dup2\n        /* \"contracts/ManageProject.sol\":4906:4926  project.amountRaised */\n      0x07\n      add\n      sload\n        /* \"contracts/ManageProject.sol\":4906:4946  project.amountRaised<project.fundingGoal */\n      lt\n        /* \"contracts/ManageProject.sol\":4898:4994  require(project.amountRaised<project.fundingGoal,\"Funding goal is reached , user cant withdraw\") */\n      tag_91\n      jumpi\n      mload(0x40)\n      0x08c379a000000000000000000000000000000000000000000000000000000000\n      dup2\n      mstore\n      0x04\n      add\n      tag_92\n      swap1\n      tag_93\n      jump\t// in\n    tag_92:\n      mload(0x40)\n      dup1\n      swap2\n      sub\n      swap1\n      revert\n    tag_91:\n        /* \"contracts/ManageProject.sol\":5005:5025  uint fundContributed */\n      0x00\n        /* \"contracts/ManageProject.sol\":5026:5039  contributions */\n      0x07\n        /* \"contracts/ManageProject.sol\":5026:5051  contributions[_projectId] */\n      0x00\n        /* \"contracts/ManageProject.sol\":5040:5050  _projectId */\n      dup5\n        /* \"contracts/ManageProject.sol\":5026:5051  contributions[_projectId] */\n      dup2\n      mstore\n      0x20\n      add\n      swap1\n      dup2\n      mstore\n      0x20\n      add\n      0x00\n      keccak256\n        /* \"contracts/ManageProject.sol\":5026:5063  contributions[_projectId][msg.sender] */\n      0x00\n        /* \"contracts/ManageProject.sol\":5052:5062  msg.sender */\n      caller\n        /* \"contracts/ManageProject.sol\":5026:5063  contributions[_projectId][msg.sender] */\n      0xffffffffffffffffffffffffffffffffffffffff\n      and\n      0xffffffffffffffffffffffffffffffffffffffff\n      and\n      dup2\n      mstore\n      0x20\n      add\n      swap1\n      dup2\n      mstore\n      0x20\n      add\n      0x00\n      keccak256\n      sload\n        /* \"contracts/ManageProject.sol\":5005:5063  uint fundContributed=contributions[_projectId][msg.sender] */\n      swap1\n      pop\n        /* \"contracts/ManageProject.sol\":5082:5092  msg.sender */\n      caller\n        /* \"contracts/ManageProject.sol\":5074:5102  payable(msg.sender).transfer */\n      0xffffffffffffffffffffffffffffffffffffffff\n      and\n        /* \"contracts/ManageProject.sol\":5074:5119  payable(msg.sender).transfer(fundContributed) */\n      0x08fc\n        /* \"contracts/ManageProject.sol\":5103:5118  fundContributed */\n      dup3\n        /* \"contracts/ManageProject.sol\":5074:5119  payable(msg.sender).transfer(fundContributed) */\n      swap1\n      dup2\n      iszero\n      mul\n      swap1\n      mload(0x40)\n      0x00\n      mload(0x40)\n      dup1\n      dup4\n      sub\n      dup2\n      dup6\n      dup9\n      dup9\n      call\n      swap4\n      pop\n      pop\n      pop\n      pop\n      iszero\n      dup1\n      iszero\n      tag_95\n      jumpi\n      returndatasize\n      0x00\n      dup1\n      returndatacopy\n      revert(0x00, returndatasize)\n    tag_95:\n      pop\n        /* \"contracts/ManageProject.sol\":4832:5127  {... */\n      pop\n      pop\n        /* \"contracts/ManageProject.sol\":4773:5127  function userWithdrawFunds(uint _projectId)external payable{... */\n      pop\n      jump\t// out\n        /* \"contracts/ManageProject.sol\":1470:1515  mapping(address=>uint) public noOfProjAddWise */\n    tag_44:\n      mstore(0x20, 0x05)\n      dup1\n      0x00\n      mstore\n      keccak256(0x00, 0x40)\n      0x00\n      swap2\n      pop\n      swap1\n      pop\n      sload\n      dup2\n      jump\t// out\n        /* \"contracts/ManageProject.sol\":3861:4738  function fundProject(uint _projectId)external payable{... */\n    tag_48:\n        /* \"contracts/ManageProject.sol\":3925:3948  Project storage project */\n      0x00\n        /* \"contracts/ManageProject.sol\":3949:3957  projects */\n      0x06\n        /* \"contracts/ManageProject.sol\":3949:3969  projects[_projectId] */\n      0x00\n        /* \"contracts/ManageProject.sol\":3958:3968  _projectId */\n      dup4\n        /* \"contracts/ManageProject.sol\":3949:3969  projects[_projectId] */\n      dup2\n      mstore\n      0x20\n      add\n      swap1\n      dup2\n      mstore\n      0x20\n      add\n      0x00\n      keccak256\n        /* \"contracts/ManageProject.sol\":3925:3969  Project storage project=projects[_projectId] */\n      swap1\n      pop\n        /* \"contracts/ManageProject.sol\":4005:4012  project */\n      dup1\n        /* \"contracts/ManageProject.sol\":4005:4021  project.deadline */\n      0x06\n      add\n      sload\n        /* \"contracts/ManageProject.sol\":3988:4003  block.timestamp */\n      timestamp\n        /* \"contracts/ManageProject.sol\":3988:4021  block.timestamp<=project.deadline */\n      gt\n      iszero\n        /* \"contracts/ManageProject.sol\":3980:4060  require(block.timestamp<=project.deadline,\"Project deadline is already passed.\") */\n      tag_97\n      jumpi\n      mload(0x40)\n      0x08c379a000000000000000000000000000000000000000000000000000000000\n      dup2\n      mstore\n      0x04\n      add\n      tag_98\n      swap1\n      tag_99\n      jump\t// in\n    tag_98:\n      mload(0x40)\n      dup1\n      swap2\n      sub\n      swap1\n      revert\n    tag_97:\n        /* \"contracts/ManageProject.sol\":4080:4087  project */\n      dup1\n        /* \"contracts/ManageProject.sol\":4080:4094  project.funded */\n      0x08\n      add\n      0x00\n      swap1\n      sload\n      swap1\n      0x0100\n      exp\n      swap1\n      div\n      0xff\n      and\n        /* \"contracts/ManageProject.sol\":4079:4094  !project.funded */\n      iszero\n        /* \"contracts/ManageProject.sol\":4071:4123  require(!project.funded,\"Project is already funded\") */\n      tag_100\n      jumpi\n      mload(0x40)\n      0x08c379a000000000000000000000000000000000000000000000000000000000\n      dup2\n      mstore\n      0x04\n      add\n      tag_101\n      swap1\n      tag_102\n      jump\t// in\n    tag_101:\n      mload(0x40)\n      dup1\n      swap2\n      sub\n      swap1\n      revert\n    tag_100:\n        /* \"contracts/ManageProject.sol\":4152:4153  0 */\n      0x00\n        /* \"contracts/ManageProject.sol\":4142:4151  msg.value */\n      callvalue\n        /* \"contracts/ManageProject.sol\":4142:4153  msg.value>0 */\n      gt\n        /* \"contracts/ManageProject.sol\":4134:4187  require(msg.value>0,\"Must sent some value of ether.\") */\n      tag_103\n      jumpi\n      mload(0x40)\n      0x08c379a000000000000000000000000000000000000000000000000000000000\n      dup2\n      mstore\n      0x04\n      add\n      tag_104\n      swap1\n      tag_105\n      jump\t// in\n    tag_104:\n      mload(0x40)\n      dup1\n      swap2\n      sub\n      swap1\n      revert\n    tag_103:\n        /* \"contracts/ManageProject.sol\":4212:4219  project */\n      dup1\n        /* \"contracts/ManageProject.sol\":4212:4234  project.highestFunding */\n      0x04\n      add\n      sload\n        /* \"contracts/ManageProject.sol\":4202:4211  msg.value */\n      callvalue\n        /* \"contracts/ManageProject.sol\":4202:4234  msg.value>project.highestFunding */\n      gt\n        /* \"contracts/ManageProject.sol\":4198:4342  if (msg.value>project.highestFunding) {... */\n      iszero\n      tag_106\n      jumpi\n        /* \"contracts/ManageProject.sol\":4274:4283  msg.value */\n      callvalue\n        /* \"contracts/ManageProject.sol\":4251:4258  project */\n      dup2\n        /* \"contracts/ManageProject.sol\":4251:4273  project.highestFunding */\n      0x04\n      add\n        /* \"contracts/ManageProject.sol\":4251:4283  project.highestFunding=msg.value */\n      dup2\n      swap1\n      sstore\n      pop\n        /* \"contracts/ManageProject.sol\":4320:4330  msg.sender */\n      caller\n        /* \"contracts/ManageProject.sol\":4298:4305  project */\n      dup2\n        /* \"contracts/ManageProject.sol\":4298:4319  project.highestFunder */\n      0x03\n      add\n      0x00\n        /* \"contracts/ManageProject.sol\":4298:4330  project.highestFunder=msg.sender */\n      0x0100\n      exp\n      dup2\n      sload\n      dup2\n      0xffffffffffffffffffffffffffffffffffffffff\n      mul\n      not\n      and\n      swap1\n      dup4\n      0xffffffffffffffffffffffffffffffffffffffff\n      and\n      mul\n      or\n      swap1\n      sstore\n      pop\n        /* \"contracts/ManageProject.sol\":4198:4342  if (msg.value>project.highestFunding) {... */\n    tag_106:\n        /* \"contracts/ManageProject.sol\":4411:4414  100 */\n      0x64\n        /* \"contracts/ManageProject.sol\":4407:4409  95 */\n      0x5f\n        /* \"contracts/ManageProject.sol\":4395:4404  msg.value */\n      callvalue\n        /* \"contracts/ManageProject.sol\":4395:4409  msg.value * 95 */\n      tag_107\n      swap2\n      swap1\n      tag_108\n      jump\t// in\n    tag_107:\n        /* \"contracts/ManageProject.sol\":4394:4414  (msg.value * 95)/100 */\n      tag_109\n      swap2\n      swap1\n      tag_110\n      jump\t// in\n    tag_109:\n        /* \"contracts/ManageProject.sol\":4373:4380  project */\n      dup2\n        /* \"contracts/ManageProject.sol\":4373:4393  project.amountRaised */\n      0x07\n      add\n      sload\n        /* \"contracts/ManageProject.sol\":4373:4414  project.amountRaised+(msg.value * 95)/100 */\n      tag_111\n      swap2\n      swap1\n      tag_112\n      jump\t// in\n    tag_111:\n        /* \"contracts/ManageProject.sol\":4352:4359  project */\n      dup2\n        /* \"contracts/ManageProject.sol\":4352:4372  project.amountRaised */\n      0x07\n      add\n        /* \"contracts/ManageProject.sol\":4352:4414  project.amountRaised=project.amountRaised+(msg.value * 95)/100 */\n      dup2\n      swap1\n      sstore\n      pop\n        /* \"contracts/ManageProject.sol\":4425:4435  _commision */\n      0x04\n      0x00\n      swap1\n      sload\n      swap1\n      0x0100\n      exp\n      swap1\n      div\n      0xffffffffffffffffffffffffffffffffffffffff\n      and\n        /* \"contracts/ManageProject.sol\":4425:4444  _commision.transfer */\n      0xffffffffffffffffffffffffffffffffffffffff\n      and\n        /* \"contracts/ManageProject.sol\":4425:4463  _commision.transfer((msg.value*5)/100) */\n      0x08fc\n        /* \"contracts/ManageProject.sol\":4459:4462  100 */\n      0x64\n        /* \"contracts/ManageProject.sol\":4456:4457  5 */\n      0x05\n        /* \"contracts/ManageProject.sol\":4446:4455  msg.value */\n      callvalue\n        /* \"contracts/ManageProject.sol\":4446:4457  msg.value*5 */\n      tag_113\n      swap2\n      swap1\n      tag_108\n      jump\t// in\n    tag_113:\n        /* \"contracts/ManageProject.sol\":4445:4462  (msg.value*5)/100 */\n      tag_114\n      swap2\n      swap1\n      tag_110\n      jump\t// in\n    tag_114:\n        /* \"contracts/ManageProject.sol\":4425:4463  _commision.transfer((msg.value*5)/100) */\n      swap1\n      dup2\n      iszero\n      mul\n      swap1\n      mload(0x40)\n      0x00\n      mload(0x40)\n      dup1\n      dup4\n      sub\n      dup2\n      dup6\n      dup9\n      dup9\n      call\n      swap4\n      pop\n      pop\n      pop\n      pop\n      iszero\n      dup1\n      iszero\n      tag_116\n      jumpi\n      returndatasize\n      0x00\n      dup1\n      returndatacopy\n      revert(0x00, returndatasize)\n    tag_116:\n      pop\n        /* \"contracts/ManageProject.sol\":4512:4521  msg.value */\n      callvalue\n        /* \"contracts/ManageProject.sol\":4474:4487  contributions */\n      0x07\n        /* \"contracts/ManageProject.sol\":4474:4499  contributions[_projectId] */\n      0x00\n        /* \"contracts/ManageProject.sol\":4488:4498  _projectId */\n      dup5\n        /* \"contracts/ManageProject.sol\":4474:4499  contributions[_projectId] */\n      dup2\n      mstore\n      0x20\n      add\n      swap1\n      dup2\n      mstore\n      0x20\n      add\n      0x00\n      keccak256\n        /* \"contracts/ManageProject.sol\":4474:4511  contributions[_projectId][msg.sender] */\n      0x00\n        /* \"contracts/ManageProject.sol\":4500:4510  msg.sender */\n      caller\n        /* \"contracts/ManageProject.sol\":4474:4511  contributions[_projectId][msg.sender] */\n      0xffffffffffffffffffffffffffffffffffffffff\n      and\n      0xffffffffffffffffffffffffffffffffffffffff\n      and\n      dup2\n      mstore\n      0x20\n      add\n      swap1\n      dup2\n      mstore\n      0x20\n      add\n      0x00\n      keccak256\n        /* \"contracts/ManageProject.sol\":4474:4521  contributions[_projectId][msg.sender]=msg.value */\n      dup2\n      swap1\n      sstore\n      pop\n        /* \"contracts/ManageProject.sol\":4562:4572  msg.sender */\n      caller\n        /* \"contracts/ManageProject.sol\":4537:4583  ProjectFunded(_projectId,msg.sender,msg.value) */\n      0xffffffffffffffffffffffffffffffffffffffff\n      and\n        /* \"contracts/ManageProject.sol\":4551:4561  _projectId */\n      dup3\n        /* \"contracts/ManageProject.sol\":4537:4583  ProjectFunded(_projectId,msg.sender,msg.value) */\n      0x6251418ffd7f504740544ec3d578897633e212c5d658b7dce793c5dc9d2e855e\n        /* \"contracts/ManageProject.sol\":4573:4582  msg.value */\n      callvalue\n        /* \"contracts/ManageProject.sol\":4537:4583  ProjectFunded(_projectId,msg.sender,msg.value) */\n      mload(0x40)\n      tag_117\n      swap2\n      swap1\n      tag_23\n      jump\t// in\n    tag_117:\n      mload(0x40)\n      dup1\n      swap2\n      sub\n      swap1\n      log3\n        /* \"contracts/ManageProject.sol\":4619:4626  project */\n      dup1\n        /* \"contracts/ManageProject.sol\":4619:4638  project.fundingGoal */\n      0x05\n      add\n      sload\n        /* \"contracts/ManageProject.sol\":4597:4604  project */\n      dup2\n        /* \"contracts/ManageProject.sol\":4597:4617  project.amountRaised */\n      0x07\n      add\n      sload\n        /* \"contracts/ManageProject.sol\":4597:4638  project.amountRaised>=project.fundingGoal */\n      lt\n        /* \"contracts/ManageProject.sol\":4594:4729  if(project.amountRaised>=project.fundingGoal){... */\n      tag_118\n      jumpi\n        /* \"contracts/ManageProject.sol\":4669:4673  true */\n      0x01\n        /* \"contracts/ManageProject.sol\":4654:4661  project */\n      dup2\n        /* \"contracts/ManageProject.sol\":4654:4668  project.funded */\n      0x08\n      add\n      0x00\n        /* \"contracts/ManageProject.sol\":4654:4673  project.funded=true */\n      0x0100\n      exp\n      dup2\n      sload\n      dup2\n      0xff\n      mul\n      not\n      and\n      swap1\n      dup4\n      iszero\n      iszero\n      mul\n      or\n      swap1\n      sstore\n      pop\n        /* \"contracts/ManageProject.sol\":4688:4715  totalSuccessfullyFundedProj */\n      0x02\n      0x00\n        /* \"contracts/ManageProject.sol\":4688:4717  totalSuccessfullyFundedProj++ */\n      dup2\n      sload\n      dup1\n      swap3\n      swap2\n      swap1\n      tag_119\n      swap1\n      tag_120\n      jump\t// in\n    tag_119:\n      swap2\n      swap1\n      pop\n      sstore\n      pop\n        /* \"contracts/ManageProject.sol\":4594:4729  if(project.amountRaised>=project.fundingGoal){... */\n    tag_118:\n        /* \"contracts/ManageProject.sol\":3914:4738  {... */\n      pop\n        /* \"contracts/ManageProject.sol\":3861:4738  function fundProject(uint _projectId)external payable{... */\n      pop\n      jump\t// out\n        /* \"contracts/ManageProject.sol\":2145:2179  mapping(uint=>bool)public isIdUsed */\n    tag_52:\n      mstore(0x20, 0x08)\n      dup1\n      0x00\n      mstore\n      keccak256(0x00, 0x40)\n      0x00\n      swap2\n      pop\n      sload\n      swap1\n      0x0100\n      exp\n      swap1\n      div\n      0xff\n      and\n      dup2\n      jump\t// out\n        /* \"contracts/ManageProject.sol\":5163:5624  function adminWithdrawFunds(uint _projectId)external payable{... */\n    tag_57:\n        /* \"contracts/ManageProject.sol\":5234:5257  Project storage project */\n      0x00\n        /* \"contracts/ManageProject.sol\":5258:5266  projects */\n      0x06\n        /* \"contracts/ManageProject.sol\":5258:5278  projects[_projectId] */\n      0x00\n        /* \"contracts/ManageProject.sol\":5267:5277  _projectId */\n      dup4\n        /* \"contracts/ManageProject.sol\":5258:5278  projects[_projectId] */\n      dup2\n      mstore\n      0x20\n      add\n      swap1\n      dup2\n      mstore\n      0x20\n      add\n      0x00\n      keccak256\n        /* \"contracts/ManageProject.sol\":5234:5278  Project storage project=projects[_projectId] */\n      swap1\n      pop\n        /* \"contracts/ManageProject.sol\":5289:5306  uint totalFunding */\n      0x00\n        /* \"contracts/ManageProject.sol\":5309:5316  project */\n      dup2\n        /* \"contracts/ManageProject.sol\":5309:5329  project.amountRaised */\n      0x07\n      add\n      sload\n        /* \"contracts/ManageProject.sol\":5289:5329  uint totalFunding = project.amountRaised */\n      swap1\n      pop\n        /* \"contracts/ManageProject.sol\":5348:5355  project */\n      dup2\n        /* \"contracts/ManageProject.sol\":5348:5362  project.funded */\n      0x08\n      add\n      0x00\n      swap1\n      sload\n      swap1\n      0x0100\n      exp\n      swap1\n      div\n      0xff\n      and\n        /* \"contracts/ManageProject.sol\":5340:5391  require(project.funded,\"Funding is not sufficient\") */\n      tag_122\n      jumpi\n      mload(0x40)\n      0x08c379a000000000000000000000000000000000000000000000000000000000\n      dup2\n      mstore\n      0x04\n      add\n      tag_123\n      swap1\n      tag_124\n      jump\t// in\n    tag_123:\n      mload(0x40)\n      dup1\n      swap2\n      sub\n      swap1\n      revert\n    tag_122:\n        /* \"contracts/ManageProject.sol\":5427:5437  msg.sender */\n      caller\n        /* \"contracts/ManageProject.sol\":5410:5437  project.creator==msg.sender */\n      0xffffffffffffffffffffffffffffffffffffffff\n      and\n        /* \"contracts/ManageProject.sol\":5410:5417  project */\n      dup3\n        /* \"contracts/ManageProject.sol\":5410:5425  project.creator */\n      0x00\n      add\n      0x00\n      swap1\n      sload\n      swap1\n      0x0100\n      exp\n      swap1\n      div\n      0xffffffffffffffffffffffffffffffffffffffff\n      and\n        /* \"contracts/ManageProject.sol\":5410:5437  project.creator==msg.sender */\n      0xffffffffffffffffffffffffffffffffffffffff\n      and\n      eq\n        /* \"contracts/ManageProject.sol\":5402:5472  require(project.creator==msg.sender,\"Only project admin can withsraw\") */\n      tag_125\n      jumpi\n      mload(0x40)\n      0x08c379a000000000000000000000000000000000000000000000000000000000\n      dup2\n      mstore\n      0x04\n      add\n      tag_126\n      swap1\n      tag_127\n      jump\t// in\n    tag_126:\n      mload(0x40)\n      dup1\n      swap2\n      sub\n      swap1\n      revert\n    tag_125:\n        /* \"contracts/ManageProject.sol\":5509:5524  block.timestamp */\n      timestamp\n        /* \"contracts/ManageProject.sol\":5491:5498  project */\n      dup3\n        /* \"contracts/ManageProject.sol\":5491:5507  project.deadline */\n      0x06\n      add\n      sload\n        /* \"contracts/ManageProject.sol\":5491:5524  project.deadline<=block.timestamp */\n      gt\n      iszero\n        /* \"contracts/ManageProject.sol\":5483:5563  require(project.deadline<=block.timestamp,\"Deadline for project is not reached\") */\n      tag_128\n      jumpi\n      mload(0x40)\n      0x08c379a000000000000000000000000000000000000000000000000000000000\n      dup2\n      mstore\n      0x04\n      add\n      tag_129\n      swap1\n      tag_130\n      jump\t// in\n    tag_129:\n      mload(0x40)\n      dup1\n      swap2\n      sub\n      swap1\n      revert\n    tag_128:\n        /* \"contracts/ManageProject.sol\":5582:5592  msg.sender */\n      caller\n        /* \"contracts/ManageProject.sol\":5574:5602  payable(msg.sender).transfer */\n      0xffffffffffffffffffffffffffffffffffffffff\n      and\n        /* \"contracts/ManageProject.sol\":5574:5616  payable(msg.sender).transfer(totalFunding) */\n      0x08fc\n        /* \"contracts/ManageProject.sol\":5603:5615  totalFunding */\n      dup3\n        /* \"contracts/ManageProject.sol\":5574:5616  payable(msg.sender).transfer(totalFunding) */\n      swap1\n      dup2\n      iszero\n      mul\n      swap1\n      mload(0x40)\n      0x00\n      mload(0x40)\n      dup1\n      dup4\n      sub\n      dup2\n      dup6\n      dup9\n      dup9\n      call\n      swap4\n      pop\n      pop\n      pop\n      pop\n      iszero\n      dup1\n      iszero\n      tag_132\n      jumpi\n      returndatasize\n      0x00\n      dup1\n      returndatacopy\n      revert(0x00, returndatasize)\n    tag_132:\n      pop\n        /* \"contracts/ManageProject.sol\":5223:5624  {... */\n      pop\n      pop\n        /* \"contracts/ManageProject.sol\":5163:5624  function adminWithdrawFunds(uint _projectId)external payable{... */\n      pop\n      jump\t// out\n        /* \"contracts/ManageProject.sol\":2729:3794  function createProject(... */\n    tag_62:\n        /* \"contracts/ManageProject.sol\":3047:3055  isIdUsed */\n      0x08\n        /* \"contracts/ManageProject.sol\":3047:3060  isIdUsed[_id] */\n      0x00\n        /* \"contracts/ManageProject.sol\":3056:3059  _id */\n      dup3\n        /* \"contracts/ManageProject.sol\":3047:3060  isIdUsed[_id] */\n      dup2\n      mstore\n      0x20\n      add\n      swap1\n      dup2\n      mstore\n      0x20\n      add\n      0x00\n      keccak256\n      0x00\n      swap1\n      sload\n      swap1\n      0x0100\n      exp\n      swap1\n      div\n      0xff\n      and\n        /* \"contracts/ManageProject.sol\":3046:3060  !isIdUsed[_id] */\n      iszero\n        /* \"contracts/ManageProject.sol\":3038:3090  require(!isIdUsed[_id],\"Project Id is already used\") */\n      tag_134\n      jumpi\n      mload(0x40)\n      0x08c379a000000000000000000000000000000000000000000000000000000000\n      dup2\n      mstore\n      0x04\n      add\n      tag_135\n      swap1\n      tag_136\n      jump\t// in\n    tag_135:\n      mload(0x40)\n      dup1\n      swap2\n      sub\n      swap1\n      revert\n    tag_134:\n        /* \"contracts/ManageProject.sol\":3115:3119  true */\n      0x01\n        /* \"contracts/ManageProject.sol\":3101:3109  isIdUsed */\n      0x08\n        /* \"contracts/ManageProject.sol\":3101:3114  isIdUsed[_id] */\n      0x00\n        /* \"contracts/ManageProject.sol\":3110:3113  _id */\n      dup4\n        /* \"contracts/ManageProject.sol\":3101:3114  isIdUsed[_id] */\n      dup2\n      mstore\n      0x20\n      add\n      swap1\n      dup2\n      mstore\n      0x20\n      add\n      0x00\n      keccak256\n      0x00\n        /* \"contracts/ManageProject.sol\":3101:3119  isIdUsed[_id]=true */\n      0x0100\n      exp\n      dup2\n      sload\n      dup2\n      0xff\n      mul\n      not\n      and\n      swap1\n      dup4\n      iszero\n      iszero\n      mul\n      or\n      swap1\n      sstore\n      pop\n        /* \"contracts/ManageProject.sol\":3144:3482  Project({... */\n      mload(0x40)\n      dup1\n      0x0120\n      add\n      0x40\n      mstore\n      dup1\n        /* \"contracts/ManageProject.sol\":3175:3185  msg.sender */\n      caller\n        /* \"contracts/ManageProject.sol\":3144:3482  Project({... */\n      0xffffffffffffffffffffffffffffffffffffffff\n      and\n      dup2\n      mstore\n      0x20\n      add\n        /* \"contracts/ManageProject.sol\":3205:3210  _name */\n      dup7\n        /* \"contracts/ManageProject.sol\":3144:3482  Project({... */\n      dup2\n      mstore\n      0x20\n      add\n        /* \"contracts/ManageProject.sol\":3307:3319  _description */\n      dup6\n        /* \"contracts/ManageProject.sol\":3144:3482  Project({... */\n      dup2\n      mstore\n      0x20\n      add\n        /* \"contracts/ManageProject.sol\":3239:3249  msg.sender */\n      caller\n        /* \"contracts/ManageProject.sol\":3144:3482  Project({... */\n      0xffffffffffffffffffffffffffffffffffffffff\n      and\n      dup2\n      mstore\n      0x20\n      add\n        /* \"contracts/ManageProject.sol\":3279:3280  0 */\n      0x00\n        /* \"contracts/ManageProject.sol\":3144:3482  Project({... */\n      dup2\n      mstore\n      0x20\n      add\n        /* \"contracts/ManageProject.sol\":3346:3358  _fundingGoal */\n      dup5\n        /* \"contracts/ManageProject.sol\":3144:3482  Project({... */\n      dup2\n      mstore\n      0x20\n      add\n        /* \"contracts/ManageProject.sol\":3398:3414  _durationSeconds */\n      dup4\n        /* \"contracts/ManageProject.sol\":3382:3397  block.timestamp */\n      timestamp\n        /* \"contracts/ManageProject.sol\":3382:3414  block.timestamp+_durationSeconds */\n      tag_137\n      swap2\n      swap1\n      tag_112\n      jump\t// in\n    tag_137:\n        /* \"contracts/ManageProject.sol\":3144:3482  Project({... */\n      dup2\n      mstore\n      0x20\n      add\n        /* \"contracts/ManageProject.sol\":3442:3443  0 */\n      0x00\n        /* \"contracts/ManageProject.sol\":3144:3482  Project({... */\n      dup2\n      mstore\n      0x20\n      add\n        /* \"contracts/ManageProject.sol\":3465:3470  false */\n      0x00\n        /* \"contracts/ManageProject.sol\":3144:3482  Project({... */\n      iszero\n      iszero\n      dup2\n      mstore\n      pop\n        /* \"contracts/ManageProject.sol\":3130:3138  projects */\n      0x06\n        /* \"contracts/ManageProject.sol\":3130:3143  projects[_id] */\n      0x00\n        /* \"contracts/ManageProject.sol\":3139:3142  _id */\n      dup4\n        /* \"contracts/ManageProject.sol\":3130:3143  projects[_id] */\n      dup2\n      mstore\n      0x20\n      add\n      swap1\n      dup2\n      mstore\n      0x20\n      add\n      0x00\n      keccak256\n        /* \"contracts/ManageProject.sol\":3130:3482  projects[_id]=Project({... */\n      0x00\n      dup3\n      add\n      mload\n      dup2\n      0x00\n      add\n      exp(0x0100, 0x00)\n      dup2\n      sload\n      dup2\n      0xffffffffffffffffffffffffffffffffffffffff\n      mul\n      not\n      and\n      swap1\n      dup4\n      0xffffffffffffffffffffffffffffffffffffffff\n      and\n      mul\n      or\n      swap1\n      sstore\n      pop\n      0x20\n      dup3\n      add\n      mload\n      dup2\n      0x01\n      add\n      swap1\n      dup2\n      tag_138\n      swap2\n      swap1\n      tag_139\n      jump\t// in\n    tag_138:\n      pop\n      0x40\n      dup3\n      add\n      mload\n      dup2\n      0x02\n      add\n      swap1\n      dup2\n      tag_140\n      swap2\n      swap1\n      tag_139\n      jump\t// in\n    tag_140:\n      pop\n      0x60\n      dup3\n      add\n      mload\n      dup2\n      0x03\n      add\n      exp(0x0100, 0x00)\n      dup2\n      sload\n      dup2\n      0xffffffffffffffffffffffffffffffffffffffff\n      mul\n      not\n      and\n      swap1\n      dup4\n      0xffffffffffffffffffffffffffffffffffffffff\n      and\n      mul\n      or\n      swap1\n      sstore\n      pop\n      0x80\n      dup3\n      add\n      mload\n      dup2\n      0x04\n      add\n      sstore\n      0xa0\n      dup3\n      add\n      mload\n      dup2\n      0x05\n      add\n      sstore\n      0xc0\n      dup3\n      add\n      mload\n      dup2\n      0x06\n      add\n      sstore\n      0xe0\n      dup3\n      add\n      mload\n      dup2\n      0x07\n      add\n      sstore\n      0x0100\n      dup3\n      add\n      mload\n      dup2\n      0x08\n      add\n      exp(0x0100, 0x00)\n      dup2\n      sload\n      dup2\n      0xff\n      mul\n      not\n      and\n      swap1\n      dup4\n      iszero\n      iszero\n      mul\n      or\n      swap1\n      sstore\n      pop\n      swap1\n      pop\n      pop\n        /* \"contracts/ManageProject.sol\":3493:3497  keys */\n      0x03\n        /* \"contracts/ManageProject.sol\":3503:3506  _id */\n      dup2\n        /* \"contracts/ManageProject.sol\":3493:3507  keys.push(_id) */\n      swap1\n      dup1\n      0x01\n      dup2\n      sload\n      add\n      dup1\n      dup3\n      sstore\n      dup1\n      swap2\n      pop\n      pop\n      0x01\n      swap1\n      sub\n      swap1\n      0x00\n      mstore\n      keccak256(0x00, 0x20)\n      add\n      0x00\n      swap1\n      swap2\n      swap1\n      swap2\n      swap1\n      swap2\n      pop\n      sstore\n        /* \"contracts/ManageProject.sol\":3518:3535  totalnoOfProjects */\n      0x01\n      0x00\n        /* \"contracts/ManageProject.sol\":3518:3537  totalnoOfProjects++ */\n      dup2\n      sload\n      dup1\n      swap3\n      swap2\n      swap1\n      tag_142\n      swap1\n      tag_120\n      jump\t// in\n    tag_142:\n      swap2\n      swap1\n      pop\n      sstore\n      pop\n        /* \"contracts/ManageProject.sol\":3548:3563  noOfProjAddWise */\n      0x05\n        /* \"contracts/ManageProject.sol\":3548:3575  noOfProjAddWise[msg.sender] */\n      0x00\n        /* \"contracts/ManageProject.sol\":3564:3574  msg.sender */\n      caller\n        /* \"contracts/ManageProject.sol\":3548:3575  noOfProjAddWise[msg.sender] */\n      0xffffffffffffffffffffffffffffffffffffffff\n      and\n      0xffffffffffffffffffffffffffffffffffffffff\n      and\n      dup2\n      mstore\n      0x20\n      add\n      swap1\n      dup2\n      mstore\n      0x20\n      add\n      0x00\n      keccak256\n      0x00\n        /* \"contracts/ManageProject.sol\":3548:3577  noOfProjAddWise[msg.sender]++ */\n      dup2\n      sload\n      dup1\n      swap3\n      swap2\n      swap1\n      tag_143\n      swap1\n      tag_120\n      jump\t// in\n    tag_143:\n      swap2\n      swap1\n      pop\n      sstore\n      pop\n        /* \"contracts/ManageProject.sol\":3640:3650  msg.sender */\n      caller\n        /* \"contracts/ManageProject.sol\":3593:3782  ProjectCreated(... */\n      0xffffffffffffffffffffffffffffffffffffffff\n      and\n        /* \"contracts/ManageProject.sol\":3622:3625  _id */\n      dup2\n        /* \"contracts/ManageProject.sol\":3593:3782  ProjectCreated(... */\n      0xac9b83534845c9e785a6ea70f2d809db1d72ef9a1d981753712d922f5cb55f39\n        /* \"contracts/ManageProject.sol\":3665:3670  _name */\n      dup8\n        /* \"contracts/ManageProject.sol\":3685:3697  _description */\n      dup8\n        /* \"contracts/ManageProject.sol\":3712:3724  _fundingGoal */\n      dup8\n        /* \"contracts/ManageProject.sol\":3755:3771  _durationSeconds */\n      dup8\n        /* \"contracts/ManageProject.sol\":3739:3754  block.timestamp */\n      timestamp\n        /* \"contracts/ManageProject.sol\":3739:3771  block.timestamp+_durationSeconds */\n      tag_144\n      swap2\n      swap1\n      tag_112\n      jump\t// in\n    tag_144:\n        /* \"contracts/ManageProject.sol\":3593:3782  ProjectCreated(... */\n      mload(0x40)\n      tag_145\n      swap5\n      swap4\n      swap3\n      swap2\n      swap1\n      tag_146\n      jump\t// in\n    tag_145:\n      mload(0x40)\n      dup1\n      swap2\n      sub\n      swap1\n      log3\n        /* \"contracts/ManageProject.sol\":2729:3794  function createProject(... */\n      pop\n      pop\n      pop\n      pop\n      pop\n      jump\t// out\n        /* \"contracts/ManageProject.sol\":6111:6435  function totalFaildedToFundProj()public view returns(uint){... */\n    tag_65:\n        /* \"contracts/ManageProject.sol\":6164:6168  uint */\n      0x00\n        /* \"contracts/ManageProject.sol\":6180:6190  uint count */\n      dup1\n        /* \"contracts/ManageProject.sol\":6191:6192  0 */\n      0x00\n        /* \"contracts/ManageProject.sol\":6180:6192  uint count=0 */\n      swap1\n      pop\n        /* \"contracts/ManageProject.sol\":6207:6213  uint i */\n      0x00\n        /* \"contracts/ManageProject.sol\":6203:6405  for(uint i =0;i<keys.length;i++){... */\n    tag_148:\n        /* \"contracts/ManageProject.sol\":6219:6223  keys */\n      0x03\n        /* \"contracts/ManageProject.sol\":6219:6230  keys.length */\n      dup1\n      sload\n      swap1\n      pop\n        /* \"contracts/ManageProject.sol\":6217:6218  i */\n      dup2\n        /* \"contracts/ManageProject.sol\":6217:6230  i<keys.length */\n      lt\n        /* \"contracts/ManageProject.sol\":6203:6405  for(uint i =0;i<keys.length;i++){... */\n      iszero\n      tag_149\n      jumpi\n        /* \"contracts/ManageProject.sol\":6267:6275  projects */\n      0x06\n        /* \"contracts/ManageProject.sol\":6267:6284  projects[keys[i]] */\n      0x00\n        /* \"contracts/ManageProject.sol\":6276:6280  keys */\n      0x03\n        /* \"contracts/ManageProject.sol\":6281:6282  i */\n      dup4\n        /* \"contracts/ManageProject.sol\":6276:6283  keys[i] */\n      dup2\n      sload\n      dup2\n      lt\n      tag_151\n      jumpi\n      tag_152\n      tag_153\n      jump\t// in\n    tag_152:\n    tag_151:\n      swap1\n      0x00\n      mstore\n      keccak256(0x00, 0x20)\n      add\n      sload\n        /* \"contracts/ManageProject.sol\":6267:6284  projects[keys[i]] */\n      dup2\n      mstore\n      0x20\n      add\n      swap1\n      dup2\n      mstore\n      0x20\n      add\n      0x00\n      keccak256\n        /* \"contracts/ManageProject.sol\":6267:6293  projects[keys[i]].deadline */\n      0x06\n      add\n      sload\n        /* \"contracts/ManageProject.sol\":6251:6266  block.timestamp */\n      timestamp\n        /* \"contracts/ManageProject.sol\":6251:6293  block.timestamp>projects[keys[i]].deadline */\n      gt\n        /* \"contracts/ManageProject.sol\":6251:6357  block.timestamp>projects[keys[i]].deadline && projects[keys[i]].amountRaised<projects[keys[i]].fundingGoal */\n      dup1\n      iszero\n      tag_155\n      jumpi\n      pop\n        /* \"contracts/ManageProject.sol\":6328:6336  projects */\n      0x06\n        /* \"contracts/ManageProject.sol\":6328:6345  projects[keys[i]] */\n      0x00\n        /* \"contracts/ManageProject.sol\":6337:6341  keys */\n      0x03\n        /* \"contracts/ManageProject.sol\":6342:6343  i */\n      dup4\n        /* \"contracts/ManageProject.sol\":6337:6344  keys[i] */\n      dup2\n      sload\n      dup2\n      lt\n      tag_156\n      jumpi\n      tag_157\n      tag_153\n      jump\t// in\n    tag_157:\n    tag_156:\n      swap1\n      0x00\n      mstore\n      keccak256(0x00, 0x20)\n      add\n      sload\n        /* \"contracts/ManageProject.sol\":6328:6345  projects[keys[i]] */\n      dup2\n      mstore\n      0x20\n      add\n      swap1\n      dup2\n      mstore\n      0x20\n      add\n      0x00\n      keccak256\n        /* \"contracts/ManageProject.sol\":6328:6357  projects[keys[i]].fundingGoal */\n      0x05\n      add\n      sload\n        /* \"contracts/ManageProject.sol\":6297:6305  projects */\n      0x06\n        /* \"contracts/ManageProject.sol\":6297:6314  projects[keys[i]] */\n      0x00\n        /* \"contracts/ManageProject.sol\":6306:6310  keys */\n      0x03\n        /* \"contracts/ManageProject.sol\":6311:6312  i */\n      dup5\n        /* \"contracts/ManageProject.sol\":6306:6313  keys[i] */\n      dup2\n      sload\n      dup2\n      lt\n      tag_159\n      jumpi\n      tag_160\n      tag_153\n      jump\t// in\n    tag_160:\n    tag_159:\n      swap1\n      0x00\n      mstore\n      keccak256(0x00, 0x20)\n      add\n      sload\n        /* \"contracts/ManageProject.sol\":6297:6314  projects[keys[i]] */\n      dup2\n      mstore\n      0x20\n      add\n      swap1\n      dup2\n      mstore\n      0x20\n      add\n      0x00\n      keccak256\n        /* \"contracts/ManageProject.sol\":6297:6327  projects[keys[i]].amountRaised */\n      0x07\n      add\n      sload\n        /* \"contracts/ManageProject.sol\":6297:6357  projects[keys[i]].amountRaised<projects[keys[i]].fundingGoal */\n      lt\n        /* \"contracts/ManageProject.sol\":6251:6357  block.timestamp>projects[keys[i]].deadline && projects[keys[i]].amountRaised<projects[keys[i]].fundingGoal */\n    tag_155:\n        /* \"contracts/ManageProject.sol\":6248:6394  if(block.timestamp>projects[keys[i]].deadline && projects[keys[i]].amountRaised<projects[keys[i]].fundingGoal){... */\n      iszero\n      tag_162\n      jumpi\n        /* \"contracts/ManageProject.sol\":6373:6380  count++ */\n      dup2\n      dup1\n      tag_163\n      swap1\n      tag_120\n      jump\t// in\n    tag_163:\n      swap3\n      pop\n      pop\n        /* \"contracts/ManageProject.sol\":6248:6394  if(block.timestamp>projects[keys[i]].deadline && projects[keys[i]].amountRaised<projects[keys[i]].fundingGoal){... */\n    tag_162:\n        /* \"contracts/ManageProject.sol\":6231:6234  i++ */\n      dup1\n      dup1\n      0x01\n      add\n      swap2\n      pop\n      pop\n        /* \"contracts/ManageProject.sol\":6203:6405  for(uint i =0;i<keys.length;i++){... */\n      jump(tag_148)\n    tag_149:\n      pop\n        /* \"contracts/ManageProject.sol\":6422:6427  count */\n      dup1\n        /* \"contracts/ManageProject.sol\":6415:6427  return count */\n      swap2\n      pop\n      pop\n        /* \"contracts/ManageProject.sol\":6111:6435  function totalFaildedToFundProj()public view returns(uint){... */\n      swap1\n      jump\t// out\n        /* \"contracts/ManageProject.sol\":914:943  uint public totalnoOfProjects */\n    tag_69:\n      sload(0x01)\n      dup2\n      jump\t// out\n        /* \"#utility.yul\":7:82   */\n    tag_164:\n        /* \"#utility.yul\":40:46   */\n      0x00\n        /* \"#utility.yul\":73:75   */\n      0x40\n        /* \"#utility.yul\":67:76   */\n      mload\n        /* \"#utility.yul\":57:76   */\n      swap1\n      pop\n        /* \"#utility.yul\":7:82   */\n      swap1\n      jump\t// out\n        /* \"#utility.yul\":88:205   */\n    tag_165:\n        /* \"#utility.yul\":197:198   */\n      0x00\n        /* \"#utility.yul\":194:195   */\n      dup1\n        /* \"#utility.yul\":187:199   */\n      revert\n        /* \"#utility.yul\":211:328   */\n    tag_166:\n        /* \"#utility.yul\":320:321   */\n      0x00\n        /* \"#utility.yul\":317:318   */\n      dup1\n        /* \"#utility.yul\":310:322   */\n      revert\n        /* \"#utility.yul\":334:411   */\n    tag_167:\n        /* \"#utility.yul\":371:378   */\n      0x00\n        /* \"#utility.yul\":400:405   */\n      dup2\n        /* \"#utility.yul\":389:405   */\n      swap1\n      pop\n        /* \"#utility.yul\":334:411   */\n      swap2\n      swap1\n      pop\n      jump\t// out\n        /* \"#utility.yul\":417:539   */\n    tag_168:\n        /* \"#utility.yul\":490:514   */\n      tag_236\n        /* \"#utility.yul\":508:513   */\n      dup2\n        /* \"#utility.yul\":490:514   */\n      tag_167\n      jump\t// in\n    tag_236:\n        /* \"#utility.yul\":483:488   */\n      dup2\n        /* \"#utility.yul\":480:515   */\n      eq\n        /* \"#utility.yul\":470:533   */\n      tag_237\n      jumpi\n        /* \"#utility.yul\":529:530   */\n      0x00\n        /* \"#utility.yul\":526:527   */\n      dup1\n        /* \"#utility.yul\":519:531   */\n      revert\n        /* \"#utility.yul\":470:533   */\n    tag_237:\n        /* \"#utility.yul\":417:539   */\n      pop\n      jump\t// out\n        /* \"#utility.yul\":545:684   */\n    tag_169:\n        /* \"#utility.yul\":591:596   */\n      0x00\n        /* \"#utility.yul\":629:635   */\n      dup2\n        /* \"#utility.yul\":616:636   */\n      calldataload\n        /* \"#utility.yul\":607:636   */\n      swap1\n      pop\n        /* \"#utility.yul\":645:678   */\n      tag_239\n        /* \"#utility.yul\":672:677   */\n      dup2\n        /* \"#utility.yul\":645:678   */\n      tag_168\n      jump\t// in\n    tag_239:\n        /* \"#utility.yul\":545:684   */\n      swap3\n      swap2\n      pop\n      pop\n      jump\t// out\n        /* \"#utility.yul\":690:1164   */\n    tag_17:\n        /* \"#utility.yul\":758:764   */\n      0x00\n        /* \"#utility.yul\":766:772   */\n      dup1\n        /* \"#utility.yul\":815:817   */\n      0x40\n        /* \"#utility.yul\":803:812   */\n      dup4\n        /* \"#utility.yul\":794:801   */\n      dup6\n        /* \"#utility.yul\":790:813   */\n      sub\n        /* \"#utility.yul\":786:818   */\n      slt\n        /* \"#utility.yul\":783:902   */\n      iszero\n      tag_241\n      jumpi\n        /* \"#utility.yul\":821:900   */\n      tag_242\n      tag_165\n      jump\t// in\n    tag_242:\n        /* \"#utility.yul\":783:902   */\n    tag_241:\n        /* \"#utility.yul\":941:942   */\n      0x00\n        /* \"#utility.yul\":966:1019   */\n      tag_243\n        /* \"#utility.yul\":1011:1018   */\n      dup6\n        /* \"#utility.yul\":1002:1008   */\n      dup3\n        /* \"#utility.yul\":991:1000   */\n      dup7\n        /* \"#utility.yul\":987:1009   */\n      add\n        /* \"#utility.yul\":966:1019   */\n      tag_169\n      jump\t// in\n    tag_243:\n        /* \"#utility.yul\":956:1019   */\n      swap3\n      pop\n        /* \"#utility.yul\":912:1029   */\n      pop\n        /* \"#utility.yul\":1068:1070   */\n      0x20\n        /* \"#utility.yul\":1094:1147   */\n      tag_244\n        /* \"#utility.yul\":1139:1146   */\n      dup6\n        /* \"#utility.yul\":1130:1136   */\n      dup3\n        /* \"#utility.yul\":1119:1128   */\n      dup7\n        /* \"#utility.yul\":1115:1137   */\n      add\n        /* \"#utility.yul\":1094:1147   */\n      tag_169\n      jump\t// in\n    tag_244:\n        /* \"#utility.yul\":1084:1147   */\n      swap2\n      pop\n        /* \"#utility.yul\":1039:1157   */\n      pop\n        /* \"#utility.yul\":690:1164   */\n      swap3\n      pop\n      swap3\n      swap1\n      pop\n      jump\t// out\n        /* \"#utility.yul\":1170:1288   */\n    tag_170:\n        /* \"#utility.yul\":1257:1281   */\n      tag_246\n        /* \"#utility.yul\":1275:1280   */\n      dup2\n        /* \"#utility.yul\":1257:1281   */\n      tag_167\n      jump\t// in\n    tag_246:\n        /* \"#utility.yul\":1252:1255   */\n      dup3\n        /* \"#utility.yul\":1245:1282   */\n      mstore\n        /* \"#utility.yul\":1170:1288   */\n      pop\n      pop\n      jump\t// out\n        /* \"#utility.yul\":1294:1516   */\n    tag_23:\n        /* \"#utility.yul\":1387:1391   */\n      0x00\n        /* \"#utility.yul\":1425:1427   */\n      0x20\n        /* \"#utility.yul\":1414:1423   */\n      dup3\n        /* \"#utility.yul\":1410:1428   */\n      add\n        /* \"#utility.yul\":1402:1428   */\n      swap1\n      pop\n        /* \"#utility.yul\":1438:1509   */\n      tag_248\n        /* \"#utility.yul\":1506:1507   */\n      0x00\n        /* \"#utility.yul\":1495:1504   */\n      dup4\n        /* \"#utility.yul\":1491:1508   */\n      add\n        /* \"#utility.yul\":1482:1488   */\n      dup5\n        /* \"#utility.yul\":1438:1509   */\n      tag_170\n      jump\t// in\n    tag_248:\n        /* \"#utility.yul\":1294:1516   */\n      swap3\n      swap2\n      pop\n      pop\n      jump\t// out\n        /* \"#utility.yul\":1522:1851   */\n    tag_27:\n        /* \"#utility.yul\":1581:1587   */\n      0x00\n        /* \"#utility.yul\":1630:1632   */\n      0x20\n        /* \"#utility.yul\":1618:1627   */\n      dup3\n        /* \"#utility.yul\":1609:1616   */\n      dup5\n        /* \"#utility.yul\":1605:1628   */\n      sub\n        /* \"#utility.yul\":1601:1633   */\n      slt\n        /* \"#utility.yul\":1598:1717   */\n      iszero\n      tag_250\n      jumpi\n        /* \"#utility.yul\":1636:1715   */\n      tag_251\n      tag_165\n      jump\t// in\n    tag_251:\n        /* \"#utility.yul\":1598:1717   */\n    tag_250:\n        /* \"#utility.yul\":1756:1757   */\n      0x00\n        /* \"#utility.yul\":1781:1834   */\n      tag_252\n        /* \"#utility.yul\":1826:1833   */\n      dup5\n        /* \"#utility.yul\":1817:1823   */\n      dup3\n        /* \"#utility.yul\":1806:1815   */\n      dup6\n        /* \"#utility.yul\":1802:1824   */\n      add\n        /* \"#utility.yul\":1781:1834   */\n      tag_169\n      jump\t// in\n    tag_252:\n        /* \"#utility.yul\":1771:1834   */\n      swap2\n      pop\n        /* \"#utility.yul\":1727:1844   */\n      pop\n        /* \"#utility.yul\":1522:1851   */\n      swap3\n      swap2\n      pop\n      pop\n      jump\t// out\n        /* \"#utility.yul\":1857:1983   */\n    tag_171:\n        /* \"#utility.yul\":1894:1901   */\n      0x00\n        /* \"#utility.yul\":1934:1976   */\n      0xffffffffffffffffffffffffffffffffffffffff\n        /* \"#utility.yul\":1927:1932   */\n      dup3\n        /* \"#utility.yul\":1923:1977   */\n      and\n        /* \"#utility.yul\":1912:1977   */\n      swap1\n      pop\n        /* \"#utility.yul\":1857:1983   */\n      swap2\n      swap1\n      pop\n      jump\t// out\n        /* \"#utility.yul\":1989:2085   */\n    tag_172:\n        /* \"#utility.yul\":2026:2033   */\n      0x00\n        /* \"#utility.yul\":2055:2079   */\n      tag_255\n        /* \"#utility.yul\":2073:2078   */\n      dup3\n        /* \"#utility.yul\":2055:2079   */\n      tag_171\n      jump\t// in\n    tag_255:\n        /* \"#utility.yul\":2044:2079   */\n      swap1\n      pop\n        /* \"#utility.yul\":1989:2085   */\n      swap2\n      swap1\n      pop\n      jump\t// out\n        /* \"#utility.yul\":2091:2209   */\n    tag_173:\n        /* \"#utility.yul\":2178:2202   */\n      tag_257\n        /* \"#utility.yul\":2196:2201   */\n      dup2\n        /* \"#utility.yul\":2178:2202   */\n      tag_172\n      jump\t// in\n    tag_257:\n        /* \"#utility.yul\":2173:2176   */\n      dup3\n        /* \"#utility.yul\":2166:2203   */\n      mstore\n        /* \"#utility.yul\":2091:2209   */\n      pop\n      pop\n      jump\t// out\n        /* \"#utility.yul\":2215:2314   */\n    tag_174:\n        /* \"#utility.yul\":2267:2273   */\n      0x00\n        /* \"#utility.yul\":2301:2306   */\n      dup2\n        /* \"#utility.yul\":2295:2307   */\n      mload\n        /* \"#utility.yul\":2285:2307   */\n      swap1\n      pop\n        /* \"#utility.yul\":2215:2314   */\n      swap2\n      swap1\n      pop\n      jump\t// out\n        /* \"#utility.yul\":2320:2489   */\n    tag_175:\n        /* \"#utility.yul\":2404:2415   */\n      0x00\n        /* \"#utility.yul\":2438:2444   */\n      dup3\n        /* \"#utility.yul\":2433:2436   */\n      dup3\n        /* \"#utility.yul\":2426:2445   */\n      mstore\n        /* \"#utility.yul\":2478:2482   */\n      0x20\n        /* \"#utility.yul\":2473:2476   */\n      dup3\n        /* \"#utility.yul\":2469:2483   */\n      add\n        /* \"#utility.yul\":2454:2483   */\n      swap1\n      pop\n        /* \"#utility.yul\":2320:2489   */\n      swap3\n      swap2\n      pop\n      pop\n      jump\t// out\n        /* \"#utility.yul\":2495:2634   */\n    tag_176:\n        /* \"#utility.yul\":2584:2590   */\n      dup3\n        /* \"#utility.yul\":2579:2582   */\n      dup2\n        /* \"#utility.yul\":2574:2577   */\n      dup4\n        /* \"#utility.yul\":2568:2591   */\n      mcopy\n        /* \"#utility.yul\":2625:2626   */\n      0x00\n        /* \"#utility.yul\":2616:2622   */\n      dup4\n        /* \"#utility.yul\":2611:2614   */\n      dup4\n        /* \"#utility.yul\":2607:2623   */\n      add\n        /* \"#utility.yul\":2600:2627   */\n      mstore\n        /* \"#utility.yul\":2495:2634   */\n      pop\n      pop\n      pop\n      jump\t// out\n        /* \"#utility.yul\":2640:2742   */\n    tag_177:\n        /* \"#utility.yul\":2681:2687   */\n      0x00\n        /* \"#utility.yul\":2732:2734   */\n      0x1f\n        /* \"#utility.yul\":2728:2735   */\n      not\n        /* \"#utility.yul\":2723:2725   */\n      0x1f\n        /* \"#utility.yul\":2716:2721   */\n      dup4\n        /* \"#utility.yul\":2712:2726   */\n      add\n        /* \"#utility.yul\":2708:2736   */\n      and\n        /* \"#utility.yul\":2698:2736   */\n      swap1\n      pop\n        /* \"#utility.yul\":2640:2742   */\n      swap2\n      swap1\n      pop\n      jump\t// out\n        /* \"#utility.yul\":2748:3125   */\n    tag_178:\n        /* \"#utility.yul\":2836:2839   */\n      0x00\n        /* \"#utility.yul\":2864:2903   */\n      tag_263\n        /* \"#utility.yul\":2897:2902   */\n      dup3\n        /* \"#utility.yul\":2864:2903   */\n      tag_174\n      jump\t// in\n    tag_263:\n        /* \"#utility.yul\":2919:2990   */\n      tag_264\n        /* \"#utility.yul\":2983:2989   */\n      dup2\n        /* \"#utility.yul\":2978:2981   */\n      dup6\n        /* \"#utility.yul\":2919:2990   */\n      tag_175\n      jump\t// in\n    tag_264:\n        /* \"#utility.yul\":2912:2990   */\n      swap4\n      pop\n        /* \"#utility.yul\":2999:3064   */\n      tag_265\n        /* \"#utility.yul\":3057:3063   */\n      dup2\n        /* \"#utility.yul\":3052:3055   */\n      dup6\n        /* \"#utility.yul\":3045:3049   */\n      0x20\n        /* \"#utility.yul\":3038:3043   */\n      dup7\n        /* \"#utility.yul\":3034:3050   */\n      add\n        /* \"#utility.yul\":2999:3064   */\n      tag_176\n      jump\t// in\n    tag_265:\n        /* \"#utility.yul\":3089:3118   */\n      tag_266\n        /* \"#utility.yul\":3111:3117   */\n      dup2\n        /* \"#utility.yul\":3089:3118   */\n      tag_177\n      jump\t// in\n    tag_266:\n        /* \"#utility.yul\":3084:3087   */\n      dup5\n        /* \"#utility.yul\":3080:3119   */\n      add\n        /* \"#utility.yul\":3073:3119   */\n      swap2\n      pop\n        /* \"#utility.yul\":2840:3125   */\n      pop\n        /* \"#utility.yul\":2748:3125   */\n      swap3\n      swap2\n      pop\n      pop\n      jump\t// out\n        /* \"#utility.yul\":3131:3221   */\n    tag_179:\n        /* \"#utility.yul\":3165:3172   */\n      0x00\n        /* \"#utility.yul\":3208:3213   */\n      dup2\n        /* \"#utility.yul\":3201:3214   */\n      iszero\n        /* \"#utility.yul\":3194:3215   */\n      iszero\n        /* \"#utility.yul\":3183:3215   */\n      swap1\n      pop\n        /* \"#utility.yul\":3131:3221   */\n      swap2\n      swap1\n      pop\n      jump\t// out\n        /* \"#utility.yul\":3227:3336   */\n    tag_180:\n        /* \"#utility.yul\":3308:3329   */\n      tag_269\n        /* \"#utility.yul\":3323:3328   */\n      dup2\n        /* \"#utility.yul\":3308:3329   */\n      tag_179\n      jump\t// in\n    tag_269:\n        /* \"#utility.yul\":3303:3306   */\n      dup3\n        /* \"#utility.yul\":3296:3330   */\n      mstore\n        /* \"#utility.yul\":3227:3336   */\n      pop\n      pop\n      jump\t// out\n        /* \"#utility.yul\":3342:4620   */\n    tag_30:\n        /* \"#utility.yul\":3693:3697   */\n      0x00\n        /* \"#utility.yul\":3731:3734   */\n      0x0120\n        /* \"#utility.yul\":3720:3729   */\n      dup3\n        /* \"#utility.yul\":3716:3735   */\n      add\n        /* \"#utility.yul\":3708:3735   */\n      swap1\n      pop\n        /* \"#utility.yul\":3745:3816   */\n      tag_271\n        /* \"#utility.yul\":3813:3814   */\n      0x00\n        /* \"#utility.yul\":3802:3811   */\n      dup4\n        /* \"#utility.yul\":3798:3815   */\n      add\n        /* \"#utility.yul\":3789:3795   */\n      dup13\n        /* \"#utility.yul\":3745:3816   */\n      tag_173\n      jump\t// in\n    tag_271:\n        /* \"#utility.yul\":3863:3872   */\n      dup2\n        /* \"#utility.yul\":3857:3861   */\n      dup2\n        /* \"#utility.yul\":3853:3873   */\n      sub\n        /* \"#utility.yul\":3848:3850   */\n      0x20\n        /* \"#utility.yul\":3837:3846   */\n      dup4\n        /* \"#utility.yul\":3833:3851   */\n      add\n        /* \"#utility.yul\":3826:3874   */\n      mstore\n        /* \"#utility.yul\":3891:3969   */\n      tag_272\n        /* \"#utility.yul\":3964:3968   */\n      dup2\n        /* \"#utility.yul\":3955:3961   */\n      dup12\n        /* \"#utility.yul\":3891:3969   */\n      tag_178\n      jump\t// in\n    tag_272:\n        /* \"#utility.yul\":3883:3969   */\n      swap1\n      pop\n        /* \"#utility.yul\":4016:4025   */\n      dup2\n        /* \"#utility.yul\":4010:4014   */\n      dup2\n        /* \"#utility.yul\":4006:4026   */\n      sub\n        /* \"#utility.yul\":4001:4003   */\n      0x40\n        /* \"#utility.yul\":3990:3999   */\n      dup4\n        /* \"#utility.yul\":3986:4004   */\n      add\n        /* \"#utility.yul\":3979:4027   */\n      mstore\n        /* \"#utility.yul\":4044:4122   */\n      tag_273\n        /* \"#utility.yul\":4117:4121   */\n      dup2\n        /* \"#utility.yul\":4108:4114   */\n      dup11\n        /* \"#utility.yul\":4044:4122   */\n      tag_178\n      jump\t// in\n    tag_273:\n        /* \"#utility.yul\":4036:4122   */\n      swap1\n      pop\n        /* \"#utility.yul\":4132:4204   */\n      tag_274\n        /* \"#utility.yul\":4200:4202   */\n      0x60\n        /* \"#utility.yul\":4189:4198   */\n      dup4\n        /* \"#utility.yul\":4185:4203   */\n      add\n        /* \"#utility.yul\":4176:4182   */\n      dup10\n        /* \"#utility.yul\":4132:4204   */\n      tag_173\n      jump\t// in\n    tag_274:\n        /* \"#utility.yul\":4214:4287   */\n      tag_275\n        /* \"#utility.yul\":4282:4285   */\n      0x80\n        /* \"#utility.yul\":4271:4280   */\n      dup4\n        /* \"#utility.yul\":4267:4286   */\n      add\n        /* \"#utility.yul\":4258:4264   */\n      dup9\n        /* \"#utility.yul\":4214:4287   */\n      tag_170\n      jump\t// in\n    tag_275:\n        /* \"#utility.yul\":4297:4370   */\n      tag_276\n        /* \"#utility.yul\":4365:4368   */\n      0xa0\n        /* \"#utility.yul\":4354:4363   */\n      dup4\n        /* \"#utility.yul\":4350:4369   */\n      add\n        /* \"#utility.yul\":4341:4347   */\n      dup8\n        /* \"#utility.yul\":4297:4370   */\n      tag_170\n      jump\t// in\n    tag_276:\n        /* \"#utility.yul\":4380:4453   */\n      tag_277\n        /* \"#utility.yul\":4448:4451   */\n      0xc0\n        /* \"#utility.yul\":4437:4446   */\n      dup4\n        /* \"#utility.yul\":4433:4452   */\n      add\n        /* \"#utility.yul\":4424:4430   */\n      dup7\n        /* \"#utility.yul\":4380:4453   */\n      tag_170\n      jump\t// in\n    tag_277:\n        /* \"#utility.yul\":4463:4536   */\n      tag_278\n        /* \"#utility.yul\":4531:4534   */\n      0xe0\n        /* \"#utility.yul\":4520:4529   */\n      dup4\n        /* \"#utility.yul\":4516:4535   */\n      add\n        /* \"#utility.yul\":4507:4513   */\n      dup6\n        /* \"#utility.yul\":4463:4536   */\n      tag_170\n      jump\t// in\n    tag_278:\n        /* \"#utility.yul\":4546:4613   */\n      tag_279\n        /* \"#utility.yul\":4608:4611   */\n      0x0100\n        /* \"#utility.yul\":4597:4606   */\n      dup4\n        /* \"#utility.yul\":4593:4612   */\n      add\n        /* \"#utility.yul\":4584:4590   */\n      dup5\n        /* \"#utility.yul\":4546:4613   */\n      tag_180\n      jump\t// in\n    tag_279:\n        /* \"#utility.yul\":3342:4620   */\n      swap11\n      swap10\n      pop\n      pop\n      pop\n      pop\n      pop\n      pop\n      pop\n      pop\n      pop\n      pop\n      jump\t// out\n        /* \"#utility.yul\":4626:4748   */\n    tag_181:\n        /* \"#utility.yul\":4699:4723   */\n      tag_281\n        /* \"#utility.yul\":4717:4722   */\n      dup2\n        /* \"#utility.yul\":4699:4723   */\n      tag_172\n      jump\t// in\n    tag_281:\n        /* \"#utility.yul\":4692:4697   */\n      dup2\n        /* \"#utility.yul\":4689:4724   */\n      eq\n        /* \"#utility.yul\":4679:4742   */\n      tag_282\n      jumpi\n        /* \"#utility.yul\":4738:4739   */\n      0x00\n        /* \"#utility.yul\":4735:4736   */\n      dup1\n        /* \"#utility.yul\":4728:4740   */\n      revert\n        /* \"#utility.yul\":4679:4742   */\n    tag_282:\n        /* \"#utility.yul\":4626:4748   */\n      pop\n      jump\t// out\n        /* \"#utility.yul\":4754:4893   */\n    tag_182:\n        /* \"#utility.yul\":4800:4805   */\n      0x00\n        /* \"#utility.yul\":4838:4844   */\n      dup2\n        /* \"#utility.yul\":4825:4845   */\n      calldataload\n        /* \"#utility.yul\":4816:4845   */\n      swap1\n      pop\n        /* \"#utility.yul\":4854:4887   */\n      tag_284\n        /* \"#utility.yul\":4881:4886   */\n      dup2\n        /* \"#utility.yul\":4854:4887   */\n      tag_181\n      jump\t// in\n    tag_284:\n        /* \"#utility.yul\":4754:4893   */\n      swap3\n      swap2\n      pop\n      pop\n      jump\t// out\n        /* \"#utility.yul\":4899:5373   */\n    tag_34:\n        /* \"#utility.yul\":4967:4973   */\n      0x00\n        /* \"#utility.yul\":4975:4981   */\n      dup1\n        /* \"#utility.yul\":5024:5026   */\n      0x40\n        /* \"#utility.yul\":5012:5021   */\n      dup4\n        /* \"#utility.yul\":5003:5010   */\n      dup6\n        /* \"#utility.yul\":4999:5022   */\n      sub\n        /* \"#utility.yul\":4995:5027   */\n      slt\n        /* \"#utility.yul\":4992:5111   */\n      iszero\n      tag_286\n      jumpi\n        /* \"#utility.yul\":5030:5109   */\n      tag_287\n      tag_165\n      jump\t// in\n    tag_287:\n        /* \"#utility.yul\":4992:5111   */\n    tag_286:\n        /* \"#utility.yul\":5150:5151   */\n      0x00\n        /* \"#utility.yul\":5175:5228   */\n      tag_288\n        /* \"#utility.yul\":5220:5227   */\n      dup6\n        /* \"#utility.yul\":5211:5217   */\n      dup3\n        /* \"#utility.yul\":5200:5209   */\n      dup7\n        /* \"#utility.yul\":5196:5218   */\n      add\n        /* \"#utility.yul\":5175:5228   */\n      tag_169\n      jump\t// in\n    tag_288:\n        /* \"#utility.yul\":5165:5228   */\n      swap3\n      pop\n        /* \"#utility.yul\":5121:5238   */\n      pop\n        /* \"#utility.yul\":5277:5279   */\n      0x20\n        /* \"#utility.yul\":5303:5356   */\n      tag_289\n        /* \"#utility.yul\":5348:5355   */\n      dup6\n        /* \"#utility.yul\":5339:5345   */\n      dup3\n        /* \"#utility.yul\":5328:5337   */\n      dup7\n        /* \"#utility.yul\":5324:5346   */\n      add\n        /* \"#utility.yul\":5303:5356   */\n      tag_182\n      jump\t// in\n    tag_289:\n        /* \"#utility.yul\":5293:5356   */\n      swap2\n      pop\n        /* \"#utility.yul\":5248:5366   */\n      pop\n        /* \"#utility.yul\":4899:5373   */\n      swap3\n      pop\n      swap3\n      swap1\n      pop\n      jump\t// out\n        /* \"#utility.yul\":5379:5708   */\n    tag_43:\n        /* \"#utility.yul\":5438:5444   */\n      0x00\n        /* \"#utility.yul\":5487:5489   */\n      0x20\n        /* \"#utility.yul\":5475:5484   */\n      dup3\n        /* \"#utility.yul\":5466:5473   */\n      dup5\n        /* \"#utility.yul\":5462:5485   */\n      sub\n        /* \"#utility.yul\":5458:5490   */\n      slt\n        /* \"#utility.yul\":5455:5574   */\n      iszero\n      tag_291\n      jumpi\n        /* \"#utility.yul\":5493:5572   */\n      tag_292\n      tag_165\n      jump\t// in\n    tag_292:\n        /* \"#utility.yul\":5455:5574   */\n    tag_291:\n        /* \"#utility.yul\":5613:5614   */\n      0x00\n        /* \"#utility.yul\":5638:5691   */\n      tag_293\n        /* \"#utility.yul\":5683:5690   */\n      dup5\n        /* \"#utility.yul\":5674:5680   */\n      dup3\n        /* \"#utility.yul\":5663:5672   */\n      dup6\n        /* \"#utility.yul\":5659:5681   */\n      add\n        /* \"#utility.yul\":5638:5691   */\n      tag_182\n      jump\t// in\n    tag_293:\n        /* \"#utility.yul\":5628:5691   */\n      swap2\n      pop\n        /* \"#utility.yul\":5584:5701   */\n      pop\n        /* \"#utility.yul\":5379:5708   */\n      swap3\n      swap2\n      pop\n      pop\n      jump\t// out\n        /* \"#utility.yul\":5714:5924   */\n    tag_54:\n        /* \"#utility.yul\":5801:5805   */\n      0x00\n        /* \"#utility.yul\":5839:5841   */\n      0x20\n        /* \"#utility.yul\":5828:5837   */\n      dup3\n        /* \"#utility.yul\":5824:5842   */\n      add\n        /* \"#utility.yul\":5816:5842   */\n      swap1\n      pop\n        /* \"#utility.yul\":5852:5917   */\n      tag_295\n        /* \"#utility.yul\":5914:5915   */\n      0x00\n        /* \"#utility.yul\":5903:5912   */\n      dup4\n        /* \"#utility.yul\":5899:5916   */\n      add\n        /* \"#utility.yul\":5890:5896   */\n      dup5\n        /* \"#utility.yul\":5852:5917   */\n      tag_180\n      jump\t// in\n    tag_295:\n        /* \"#utility.yul\":5714:5924   */\n      swap3\n      swap2\n      pop\n      pop\n      jump\t// out\n        /* \"#utility.yul\":5930:6047   */\n    tag_183:\n        /* \"#utility.yul\":6039:6040   */\n      0x00\n        /* \"#utility.yul\":6036:6037   */\n      dup1\n        /* \"#utility.yul\":6029:6041   */\n      revert\n        /* \"#utility.yul\":6053:6170   */\n    tag_184:\n        /* \"#utility.yul\":6162:6163   */\n      0x00\n        /* \"#utility.yul\":6159:6160   */\n      dup1\n        /* \"#utility.yul\":6152:6164   */\n      revert\n        /* \"#utility.yul\":6176:6356   */\n    tag_185:\n        /* \"#utility.yul\":6224:6301   */\n      0x4e487b7100000000000000000000000000000000000000000000000000000000\n        /* \"#utility.yul\":6221:6222   */\n      0x00\n        /* \"#utility.yul\":6214:6302   */\n      mstore\n        /* \"#utility.yul\":6321:6325   */\n      0x41\n        /* \"#utility.yul\":6318:6319   */\n      0x04\n        /* \"#utility.yul\":6311:6326   */\n      mstore\n        /* \"#utility.yul\":6345:6349   */\n      0x24\n        /* \"#utility.yul\":6342:6343   */\n      0x00\n        /* \"#utility.yul\":6335:6350   */\n      revert\n        /* \"#utility.yul\":6362:6643   */\n    tag_186:\n        /* \"#utility.yul\":6445:6472   */\n      tag_300\n        /* \"#utility.yul\":6467:6471   */\n      dup3\n        /* \"#utility.yul\":6445:6472   */\n      tag_177\n      jump\t// in\n    tag_300:\n        /* \"#utility.yul\":6437:6443   */\n      dup2\n        /* \"#utility.yul\":6433:6473   */\n      add\n        /* \"#utility.yul\":6575:6581   */\n      dup2\n        /* \"#utility.yul\":6563:6573   */\n      dup2\n        /* \"#utility.yul\":6560:6582   */\n      lt\n        /* \"#utility.yul\":6539:6557   */\n      0xffffffffffffffff\n        /* \"#utility.yul\":6527:6537   */\n      dup3\n        /* \"#utility.yul\":6524:6558   */\n      gt\n        /* \"#utility.yul\":6521:6583   */\n      or\n        /* \"#utility.yul\":6518:6606   */\n      iszero\n      tag_301\n      jumpi\n        /* \"#utility.yul\":6586:6604   */\n      tag_302\n      tag_185\n      jump\t// in\n    tag_302:\n        /* \"#utility.yul\":6518:6606   */\n    tag_301:\n        /* \"#utility.yul\":6626:6636   */\n      dup1\n        /* \"#utility.yul\":6622:6624   */\n      0x40\n        /* \"#utility.yul\":6615:6637   */\n      mstore\n        /* \"#utility.yul\":6405:6643   */\n      pop\n        /* \"#utility.yul\":6362:6643   */\n      pop\n      pop\n      jump\t// out\n        /* \"#utility.yul\":6649:6778   */\n    tag_187:\n        /* \"#utility.yul\":6683:6689   */\n      0x00\n        /* \"#utility.yul\":6710:6730   */\n      tag_304\n      tag_164\n      jump\t// in\n    tag_304:\n        /* \"#utility.yul\":6700:6730   */\n      swap1\n      pop\n        /* \"#utility.yul\":6739:6772   */\n      tag_305\n        /* \"#utility.yul\":6767:6771   */\n      dup3\n        /* \"#utility.yul\":6759:6765   */\n      dup3\n        /* \"#utility.yul\":6739:6772   */\n      tag_186\n      jump\t// in\n    tag_305:\n        /* \"#utility.yul\":6649:6778   */\n      swap2\n      swap1\n      pop\n      jump\t// out\n        /* \"#utility.yul\":6784:7092   */\n    tag_188:\n        /* \"#utility.yul\":6846:6850   */\n      0x00\n        /* \"#utility.yul\":6936:6954   */\n      0xffffffffffffffff\n        /* \"#utility.yul\":6928:6934   */\n      dup3\n        /* \"#utility.yul\":6925:6955   */\n      gt\n        /* \"#utility.yul\":6922:6978   */\n      iszero\n      tag_307\n      jumpi\n        /* \"#utility.yul\":6958:6976   */\n      tag_308\n      tag_185\n      jump\t// in\n    tag_308:\n        /* \"#utility.yul\":6922:6978   */\n    tag_307:\n        /* \"#utility.yul\":6996:7025   */\n      tag_309\n        /* \"#utility.yul\":7018:7024   */\n      dup3\n        /* \"#utility.yul\":6996:7025   */\n      tag_177\n      jump\t// in\n    tag_309:\n        /* \"#utility.yul\":6988:7025   */\n      swap1\n      pop\n        /* \"#utility.yul\":7080:7084   */\n      0x20\n        /* \"#utility.yul\":7074:7078   */\n      dup2\n        /* \"#utility.yul\":7070:7085   */\n      add\n        /* \"#utility.yul\":7062:7085   */\n      swap1\n      pop\n        /* \"#utility.yul\":6784:7092   */\n      swap2\n      swap1\n      pop\n      jump\t// out\n        /* \"#utility.yul\":7098:7246   */\n    tag_189:\n        /* \"#utility.yul\":7196:7202   */\n      dup3\n        /* \"#utility.yul\":7191:7194   */\n      dup2\n        /* \"#utility.yul\":7186:7189   */\n      dup4\n        /* \"#utility.yul\":7173:7203   */\n      calldatacopy\n        /* \"#utility.yul\":7237:7238   */\n      0x00\n        /* \"#utility.yul\":7228:7234   */\n      dup4\n        /* \"#utility.yul\":7223:7226   */\n      dup4\n        /* \"#utility.yul\":7219:7235   */\n      add\n        /* \"#utility.yul\":7212:7239   */\n      mstore\n        /* \"#utility.yul\":7098:7246   */\n      pop\n      pop\n      pop\n      jump\t// out\n        /* \"#utility.yul\":7252:7677   */\n    tag_190:\n        /* \"#utility.yul\":7330:7335   */\n      0x00\n        /* \"#utility.yul\":7355:7421   */\n      tag_312\n        /* \"#utility.yul\":7371:7420   */\n      tag_313\n        /* \"#utility.yul\":7413:7419   */\n      dup5\n        /* \"#utility.yul\":7371:7420   */\n      tag_188\n      jump\t// in\n    tag_313:\n        /* \"#utility.yul\":7355:7421   */\n      tag_187\n      jump\t// in\n    tag_312:\n        /* \"#utility.yul\":7346:7421   */\n      swap1\n      pop\n        /* \"#utility.yul\":7444:7450   */\n      dup3\n        /* \"#utility.yul\":7437:7442   */\n      dup2\n        /* \"#utility.yul\":7430:7451   */\n      mstore\n        /* \"#utility.yul\":7482:7486   */\n      0x20\n        /* \"#utility.yul\":7475:7480   */\n      dup2\n        /* \"#utility.yul\":7471:7487   */\n      add\n        /* \"#utility.yul\":7520:7523   */\n      dup5\n        /* \"#utility.yul\":7511:7517   */\n      dup5\n        /* \"#utility.yul\":7506:7509   */\n      dup5\n        /* \"#utility.yul\":7502:7518   */\n      add\n        /* \"#utility.yul\":7499:7524   */\n      gt\n        /* \"#utility.yul\":7496:7608   */\n      iszero\n      tag_314\n      jumpi\n        /* \"#utility.yul\":7527:7606   */\n      tag_315\n      tag_184\n      jump\t// in\n    tag_315:\n        /* \"#utility.yul\":7496:7608   */\n    tag_314:\n        /* \"#utility.yul\":7617:7671   */\n      tag_316\n        /* \"#utility.yul\":7664:7670   */\n      dup5\n        /* \"#utility.yul\":7659:7662   */\n      dup3\n        /* \"#utility.yul\":7654:7657   */\n      dup6\n        /* \"#utility.yul\":7617:7671   */\n      tag_189\n      jump\t// in\n    tag_316:\n        /* \"#utility.yul\":7336:7677   */\n      pop\n        /* \"#utility.yul\":7252:7677   */\n      swap4\n      swap3\n      pop\n      pop\n      pop\n      jump\t// out\n        /* \"#utility.yul\":7697:8037   */\n    tag_191:\n        /* \"#utility.yul\":7753:7758   */\n      0x00\n        /* \"#utility.yul\":7802:7805   */\n      dup3\n        /* \"#utility.yul\":7795:7799   */\n      0x1f\n        /* \"#utility.yul\":7787:7793   */\n      dup4\n        /* \"#utility.yul\":7783:7800   */\n      add\n        /* \"#utility.yul\":7779:7806   */\n      slt\n        /* \"#utility.yul\":7769:7891   */\n      tag_318\n      jumpi\n        /* \"#utility.yul\":7810:7889   */\n      tag_319\n      tag_183\n      jump\t// in\n    tag_319:\n        /* \"#utility.yul\":7769:7891   */\n    tag_318:\n        /* \"#utility.yul\":7927:7933   */\n      dup2\n        /* \"#utility.yul\":7914:7934   */\n      calldataload\n        /* \"#utility.yul\":7952:8031   */\n      tag_320\n        /* \"#utility.yul\":8027:8030   */\n      dup5\n        /* \"#utility.yul\":8019:8025   */\n      dup3\n        /* \"#utility.yul\":8012:8016   */\n      0x20\n        /* \"#utility.yul\":8004:8010   */\n      dup7\n        /* \"#utility.yul\":8000:8017   */\n      add\n        /* \"#utility.yul\":7952:8031   */\n      tag_190\n      jump\t// in\n    tag_320:\n        /* \"#utility.yul\":7943:8031   */\n      swap2\n      pop\n        /* \"#utility.yul\":7759:8037   */\n      pop\n        /* \"#utility.yul\":7697:8037   */\n      swap3\n      swap2\n      pop\n      pop\n      jump\t// out\n        /* \"#utility.yul\":8043:9314   */\n    tag_61:\n        /* \"#utility.yul\":8158:8164   */\n      0x00\n        /* \"#utility.yul\":8166:8172   */\n      dup1\n        /* \"#utility.yul\":8174:8180   */\n      0x00\n        /* \"#utility.yul\":8182:8188   */\n      dup1\n        /* \"#utility.yul\":8190:8196   */\n      0x00\n        /* \"#utility.yul\":8239:8242   */\n      0xa0\n        /* \"#utility.yul\":8227:8236   */\n      dup7\n        /* \"#utility.yul\":8218:8225   */\n      dup9\n        /* \"#utility.yul\":8214:8237   */\n      sub\n        /* \"#utility.yul\":8210:8243   */\n      slt\n        /* \"#utility.yul\":8207:8327   */\n      iszero\n      tag_322\n      jumpi\n        /* \"#utility.yul\":8246:8325   */\n      tag_323\n      tag_165\n      jump\t// in\n    tag_323:\n        /* \"#utility.yul\":8207:8327   */\n    tag_322:\n        /* \"#utility.yul\":8394:8395   */\n      0x00\n        /* \"#utility.yul\":8383:8392   */\n      dup7\n        /* \"#utility.yul\":8379:8396   */\n      add\n        /* \"#utility.yul\":8366:8397   */\n      calldataload\n        /* \"#utility.yul\":8424:8442   */\n      0xffffffffffffffff\n        /* \"#utility.yul\":8416:8422   */\n      dup2\n        /* \"#utility.yul\":8413:8443   */\n      gt\n        /* \"#utility.yul\":8410:8527   */\n      iszero\n      tag_324\n      jumpi\n        /* \"#utility.yul\":8446:8525   */\n      tag_325\n      tag_166\n      jump\t// in\n    tag_325:\n        /* \"#utility.yul\":8410:8527   */\n    tag_324:\n        /* \"#utility.yul\":8551:8614   */\n      tag_326\n        /* \"#utility.yul\":8606:8613   */\n      dup9\n        /* \"#utility.yul\":8597:8603   */\n      dup3\n        /* \"#utility.yul\":8586:8595   */\n      dup10\n        /* \"#utility.yul\":8582:8604   */\n      add\n        /* \"#utility.yul\":8551:8614   */\n      tag_191\n      jump\t// in\n    tag_326:\n        /* \"#utility.yul\":8541:8614   */\n      swap6\n      pop\n        /* \"#utility.yul\":8337:8624   */\n      pop\n        /* \"#utility.yul\":8691:8693   */\n      0x20\n        /* \"#utility.yul\":8680:8689   */\n      dup7\n        /* \"#utility.yul\":8676:8694   */\n      add\n        /* \"#utility.yul\":8663:8695   */\n      calldataload\n        /* \"#utility.yul\":8722:8740   */\n      0xffffffffffffffff\n        /* \"#utility.yul\":8714:8720   */\n      dup2\n        /* \"#utility.yul\":8711:8741   */\n      gt\n        /* \"#utility.yul\":8708:8825   */\n      iszero\n      tag_327\n      jumpi\n        /* \"#utility.yul\":8744:8823   */\n      tag_328\n      tag_166\n      jump\t// in\n    tag_328:\n        /* \"#utility.yul\":8708:8825   */\n    tag_327:\n        /* \"#utility.yul\":8849:8912   */\n      tag_329\n        /* \"#utility.yul\":8904:8911   */\n      dup9\n        /* \"#utility.yul\":8895:8901   */\n      dup3\n        /* \"#utility.yul\":8884:8893   */\n      dup10\n        /* \"#utility.yul\":8880:8902   */\n      add\n        /* \"#utility.yul\":8849:8912   */\n      tag_191\n      jump\t// in\n    tag_329:\n        /* \"#utility.yul\":8839:8912   */\n      swap5\n      pop\n        /* \"#utility.yul\":8634:8922   */\n      pop\n        /* \"#utility.yul\":8961:8963   */\n      0x40\n        /* \"#utility.yul\":8987:9040   */\n      tag_330\n        /* \"#utility.yul\":9032:9039   */\n      dup9\n        /* \"#utility.yul\":9023:9029   */\n      dup3\n        /* \"#utility.yul\":9012:9021   */\n      dup10\n        /* \"#utility.yul\":9008:9030   */\n      add\n        /* \"#utility.yul\":8987:9040   */\n      tag_169\n      jump\t// in\n    tag_330:\n        /* \"#utility.yul\":8977:9040   */\n      swap4\n      pop\n        /* \"#utility.yul\":8932:9050   */\n      pop\n        /* \"#utility.yul\":9089:9091   */\n      0x60\n        /* \"#utility.yul\":9115:9168   */\n      tag_331\n        /* \"#utility.yul\":9160:9167   */\n      dup9\n        /* \"#utility.yul\":9151:9157   */\n      dup3\n        /* \"#utility.yul\":9140:9149   */\n      dup10\n        /* \"#utility.yul\":9136:9158   */\n      add\n        /* \"#utility.yul\":9115:9168   */\n      tag_169\n      jump\t// in\n    tag_331:\n        /* \"#utility.yul\":9105:9168   */\n      swap3\n      pop\n        /* \"#utility.yul\":9060:9178   */\n      pop\n        /* \"#utility.yul\":9217:9220   */\n      0x80\n        /* \"#utility.yul\":9244:9297   */\n      tag_332\n        /* \"#utility.yul\":9289:9296   */\n      dup9\n        /* \"#utility.yul\":9280:9286   */\n      dup3\n        /* \"#utility.yul\":9269:9278   */\n      dup10\n        /* \"#utility.yul\":9265:9287   */\n      add\n        /* \"#utility.yul\":9244:9297   */\n      tag_169\n      jump\t// in\n    tag_332:\n        /* \"#utility.yul\":9234:9297   */\n      swap2\n      pop\n        /* \"#utility.yul\":9188:9307   */\n      pop\n        /* \"#utility.yul\":8043:9314   */\n      swap3\n      swap6\n      pop\n      swap3\n      swap6\n      swap1\n      swap4\n      pop\n      jump\t// out\n        /* \"#utility.yul\":9320:9543   */\n    tag_192:\n        /* \"#utility.yul\":9460:9494   */\n      0x4f6e6c792043726561746f722063616e204368616e6765207468652044656164\n        /* \"#utility.yul\":9456:9457   */\n      0x00\n        /* \"#utility.yul\":9448:9454   */\n      dup3\n        /* \"#utility.yul\":9444:9458   */\n      add\n        /* \"#utility.yul\":9437:9495   */\n      mstore\n        /* \"#utility.yul\":9529:9535   */\n      0x6c696e6500000000000000000000000000000000000000000000000000000000\n        /* \"#utility.yul\":9524:9526   */\n      0x20\n        /* \"#utility.yul\":9516:9522   */\n      dup3\n        /* \"#utility.yul\":9512:9527   */\n      add\n        /* \"#utility.yul\":9505:9536   */\n      mstore\n        /* \"#utility.yul\":9320:9543   */\n      pop\n      jump\t// out\n        /* \"#utility.yul\":9549:9915   */\n    tag_193:\n        /* \"#utility.yul\":9691:9694   */\n      0x00\n        /* \"#utility.yul\":9712:9779   */\n      tag_335\n        /* \"#utility.yul\":9776:9778   */\n      0x24\n        /* \"#utility.yul\":9771:9774   */\n      dup4\n        /* \"#utility.yul\":9712:9779   */\n      tag_175\n      jump\t// in\n    tag_335:\n        /* \"#utility.yul\":9705:9779   */\n      swap2\n      pop\n        /* \"#utility.yul\":9788:9881   */\n      tag_336\n        /* \"#utility.yul\":9877:9880   */\n      dup3\n        /* \"#utility.yul\":9788:9881   */\n      tag_192\n      jump\t// in\n    tag_336:\n        /* \"#utility.yul\":9906:9908   */\n      0x40\n        /* \"#utility.yul\":9901:9904   */\n      dup3\n        /* \"#utility.yul\":9897:9909   */\n      add\n        /* \"#utility.yul\":9890:9909   */\n      swap1\n      pop\n        /* \"#utility.yul\":9549:9915   */\n      swap2\n      swap1\n      pop\n      jump\t// out\n        /* \"#utility.yul\":9921:10340   */\n    tag_74:\n        /* \"#utility.yul\":10087:10091   */\n      0x00\n        /* \"#utility.yul\":10125:10127   */\n      0x20\n        /* \"#utility.yul\":10114:10123   */\n      dup3\n        /* \"#utility.yul\":10110:10128   */\n      add\n        /* \"#utility.yul\":10102:10128   */\n      swap1\n      pop\n        /* \"#utility.yul\":10174:10183   */\n      dup2\n        /* \"#utility.yul\":10168:10172   */\n      dup2\n        /* \"#utility.yul\":10164:10184   */\n      sub\n        /* \"#utility.yul\":10160:10161   */\n      0x00\n        /* \"#utility.yul\":10149:10158   */\n      dup4\n        /* \"#utility.yul\":10145:10162   */\n      add\n        /* \"#utility.yul\":10138:10185   */\n      mstore\n        /* \"#utility.yul\":10202:10333   */\n      tag_338\n        /* \"#utility.yul\":10328:10332   */\n      dup2\n        /* \"#utility.yul\":10202:10333   */\n      tag_193\n      jump\t// in\n    tag_338:\n        /* \"#utility.yul\":10194:10333   */\n      swap1\n      pop\n        /* \"#utility.yul\":9921:10340   */\n      swap2\n      swap1\n      pop\n      jump\t// out\n        /* \"#utility.yul\":10346:10523   */\n    tag_194:\n        /* \"#utility.yul\":10486:10515   */\n      0x446561646c696e6520697320616c7265616479207061737365642e0000000000\n        /* \"#utility.yul\":10482:10483   */\n      0x00\n        /* \"#utility.yul\":10474:10480   */\n      dup3\n        /* \"#utility.yul\":10470:10484   */\n      add\n        /* \"#utility.yul\":10463:10516   */\n      mstore\n        /* \"#utility.yul\":10346:10523   */\n      pop\n      jump\t// out\n        /* \"#utility.yul\":10529:10895   */\n    tag_195:\n        /* \"#utility.yul\":10671:10674   */\n      0x00\n        /* \"#utility.yul\":10692:10759   */\n      tag_341\n        /* \"#utility.yul\":10756:10758   */\n      0x1b\n        /* \"#utility.yul\":10751:10754   */\n      dup4\n        /* \"#utility.yul\":10692:10759   */\n      tag_175\n      jump\t// in\n    tag_341:\n        /* \"#utility.yul\":10685:10759   */\n      swap2\n      pop\n        /* \"#utility.yul\":10768:10861   */\n      tag_342\n        /* \"#utility.yul\":10857:10860   */\n      dup3\n        /* \"#utility.yul\":10768:10861   */\n      tag_194\n      jump\t// in\n    tag_342:\n        /* \"#utility.yul\":10886:10888   */\n      0x20\n        /* \"#utility.yul\":10881:10884   */\n      dup3\n        /* \"#utility.yul\":10877:10889   */\n      add\n        /* \"#utility.yul\":10870:10889   */\n      swap1\n      pop\n        /* \"#utility.yul\":10529:10895   */\n      swap2\n      swap1\n      pop\n      jump\t// out\n        /* \"#utility.yul\":10901:11320   */\n    tag_77:\n        /* \"#utility.yul\":11067:11071   */\n      0x00\n        /* \"#utility.yul\":11105:11107   */\n      0x20\n        /* \"#utility.yul\":11094:11103   */\n      dup3\n        /* \"#utility.yul\":11090:11108   */\n      add\n        /* \"#utility.yul\":11082:11108   */\n      swap1\n      pop\n        /* \"#utility.yul\":11154:11163   */\n      dup2\n        /* \"#utility.yul\":11148:11152   */\n      dup2\n        /* \"#utility.yul\":11144:11164   */\n      sub\n        /* \"#utility.yul\":11140:11141   */\n      0x00\n        /* \"#utility.yul\":11129:11138   */\n      dup4\n        /* \"#utility.yul\":11125:11142   */\n      add\n        /* \"#utility.yul\":11118:11165   */\n      mstore\n        /* \"#utility.yul\":11182:11313   */\n      tag_344\n        /* \"#utility.yul\":11308:11312   */\n      dup2\n        /* \"#utility.yul\":11182:11313   */\n      tag_195\n      jump\t// in\n    tag_344:\n        /* \"#utility.yul\":11174:11313   */\n      swap1\n      pop\n        /* \"#utility.yul\":10901:11320   */\n      swap2\n      swap1\n      pop\n      jump\t// out\n        /* \"#utility.yul\":11326:11506   */\n    tag_196:\n        /* \"#utility.yul\":11374:11451   */\n      0x4e487b7100000000000000000000000000000000000000000000000000000000\n        /* \"#utility.yul\":11371:11372   */\n      0x00\n        /* \"#utility.yul\":11364:11452   */\n      mstore\n        /* \"#utility.yul\":11471:11475   */\n      0x22\n        /* \"#utility.yul\":11468:11469   */\n      0x04\n        /* \"#utility.yul\":11461:11476   */\n      mstore\n        /* \"#utility.yul\":11495:11499   */\n      0x24\n        /* \"#utility.yul\":11492:11493   */\n      0x00\n        /* \"#utility.yul\":11485:11500   */\n      revert\n        /* \"#utility.yul\":11512:11832   */\n    tag_80:\n        /* \"#utility.yul\":11556:11562   */\n      0x00\n        /* \"#utility.yul\":11593:11594   */\n      0x02\n        /* \"#utility.yul\":11587:11591   */\n      dup3\n        /* \"#utility.yul\":11583:11595   */\n      div\n        /* \"#utility.yul\":11573:11595   */\n      swap1\n      pop\n        /* \"#utility.yul\":11640:11641   */\n      0x01\n        /* \"#utility.yul\":11634:11638   */\n      dup3\n        /* \"#utility.yul\":11630:11642   */\n      and\n        /* \"#utility.yul\":11661:11679   */\n      dup1\n        /* \"#utility.yul\":11651:11732   */\n      tag_347\n      jumpi\n        /* \"#utility.yul\":11717:11721   */\n      0x7f\n        /* \"#utility.yul\":11709:11715   */\n      dup3\n        /* \"#utility.yul\":11705:11722   */\n      and\n        /* \"#utility.yul\":11695:11722   */\n      swap2\n      pop\n        /* \"#utility.yul\":11651:11732   */\n    tag_347:\n        /* \"#utility.yul\":11779:11781   */\n      0x20\n        /* \"#utility.yul\":11771:11777   */\n      dup3\n        /* \"#utility.yul\":11768:11782   */\n      lt\n        /* \"#utility.yul\":11748:11766   */\n      dup2\n        /* \"#utility.yul\":11745:11783   */\n      sub\n        /* \"#utility.yul\":11742:11826   */\n      tag_348\n      jumpi\n        /* \"#utility.yul\":11798:11816   */\n      tag_349\n      tag_196\n      jump\t// in\n    tag_349:\n        /* \"#utility.yul\":11742:11826   */\n    tag_348:\n        /* \"#utility.yul\":11563:11832   */\n      pop\n        /* \"#utility.yul\":11512:11832   */\n      swap2\n      swap1\n      pop\n      jump\t// out\n        /* \"#utility.yul\":11838:12069   */\n    tag_197:\n        /* \"#utility.yul\":11978:12012   */\n      0x46756e64696e6720676f616c2069732072656163686564202c20757365722063\n        /* \"#utility.yul\":11974:11975   */\n      0x00\n        /* \"#utility.yul\":11966:11972   */\n      dup3\n        /* \"#utility.yul\":11962:11976   */\n      add\n        /* \"#utility.yul\":11955:12013   */\n      mstore\n        /* \"#utility.yul\":12047:12061   */\n      0x616e742077697468647261770000000000000000000000000000000000000000\n        /* \"#utility.yul\":12042:12044   */\n      0x20\n        /* \"#utility.yul\":12034:12040   */\n      dup3\n        /* \"#utility.yul\":12030:12045   */\n      add\n        /* \"#utility.yul\":12023:12062   */\n      mstore\n        /* \"#utility.yul\":11838:12069   */\n      pop\n      jump\t// out\n        /* \"#utility.yul\":12075:12441   */\n    tag_198:\n        /* \"#utility.yul\":12217:12220   */\n      0x00\n        /* \"#utility.yul\":12238:12305   */\n      tag_352\n        /* \"#utility.yul\":12302:12304   */\n      0x2c\n        /* \"#utility.yul\":12297:12300   */\n      dup4\n        /* \"#utility.yul\":12238:12305   */\n      tag_175\n      jump\t// in\n    tag_352:\n        /* \"#utility.yul\":12231:12305   */\n      swap2\n      pop\n        /* \"#utility.yul\":12314:12407   */\n      tag_353\n        /* \"#utility.yul\":12403:12406   */\n      dup3\n        /* \"#utility.yul\":12314:12407   */\n      tag_197\n      jump\t// in\n    tag_353:\n        /* \"#utility.yul\":12432:12434   */\n      0x40\n        /* \"#utility.yul\":12427:12430   */\n      dup3\n        /* \"#utility.yul\":12423:12435   */\n      add\n        /* \"#utility.yul\":12416:12435   */\n      swap1\n      pop\n        /* \"#utility.yul\":12075:12441   */\n      swap2\n      swap1\n      pop\n      jump\t// out\n        /* \"#utility.yul\":12447:12866   */\n    tag_93:\n        /* \"#utility.yul\":12613:12617   */\n      0x00\n        /* \"#utility.yul\":12651:12653   */\n      0x20\n        /* \"#utility.yul\":12640:12649   */\n      dup3\n        /* \"#utility.yul\":12636:12654   */\n      add\n        /* \"#utility.yul\":12628:12654   */\n      swap1\n      pop\n        /* \"#utility.yul\":12700:12709   */\n      dup2\n        /* \"#utility.yul\":12694:12698   */\n      dup2\n        /* \"#utility.yul\":12690:12710   */\n      sub\n        /* \"#utility.yul\":12686:12687   */\n      0x00\n        /* \"#utility.yul\":12675:12684   */\n      dup4\n        /* \"#utility.yul\":12671:12688   */\n      add\n        /* \"#utility.yul\":12664:12711   */\n      mstore\n        /* \"#utility.yul\":12728:12859   */\n      tag_355\n        /* \"#utility.yul\":12854:12858   */\n      dup2\n        /* \"#utility.yul\":12728:12859   */\n      tag_198\n      jump\t// in\n    tag_355:\n        /* \"#utility.yul\":12720:12859   */\n      swap1\n      pop\n        /* \"#utility.yul\":12447:12866   */\n      swap2\n      swap1\n      pop\n      jump\t// out\n        /* \"#utility.yul\":12872:13094   */\n    tag_199:\n        /* \"#utility.yul\":13012:13046   */\n      0x50726f6a65637420646561646c696e6520697320616c72656164792070617373\n        /* \"#utility.yul\":13008:13009   */\n      0x00\n        /* \"#utility.yul\":13000:13006   */\n      dup3\n        /* \"#utility.yul\":12996:13010   */\n      add\n        /* \"#utility.yul\":12989:13047   */\n      mstore\n        /* \"#utility.yul\":13081:13086   */\n      0x65642e0000000000000000000000000000000000000000000000000000000000\n        /* \"#utility.yul\":13076:13078   */\n      0x20\n        /* \"#utility.yul\":13068:13074   */\n      dup3\n        /* \"#utility.yul\":13064:13079   */\n      add\n        /* \"#utility.yul\":13057:13087   */\n      mstore\n        /* \"#utility.yul\":12872:13094   */\n      pop\n      jump\t// out\n        /* \"#utility.yul\":13100:13466   */\n    tag_200:\n        /* \"#utility.yul\":13242:13245   */\n      0x00\n        /* \"#utility.yul\":13263:13330   */\n      tag_358\n        /* \"#utility.yul\":13327:13329   */\n      0x23\n        /* \"#utility.yul\":13322:13325   */\n      dup4\n        /* \"#utility.yul\":13263:13330   */\n      tag_175\n      jump\t// in\n    tag_358:\n        /* \"#utility.yul\":13256:13330   */\n      swap2\n      pop\n        /* \"#utility.yul\":13339:13432   */\n      tag_359\n        /* \"#utility.yul\":13428:13431   */\n      dup3\n        /* \"#utility.yul\":13339:13432   */\n      tag_199\n      jump\t// in\n    tag_359:\n        /* \"#utility.yul\":13457:13459   */\n      0x40\n        /* \"#utility.yul\":13452:13455   */\n      dup3\n        /* \"#utility.yul\":13448:13460   */\n      add\n        /* \"#utility.yul\":13441:13460   */\n      swap1\n      pop\n        /* \"#utility.yul\":13100:13466   */\n      swap2\n      swap1\n      pop\n      jump\t// out\n        /* \"#utility.yul\":13472:13891   */\n    tag_99:\n        /* \"#utility.yul\":13638:13642   */\n      0x00\n        /* \"#utility.yul\":13676:13678   */\n      0x20\n        /* \"#utility.yul\":13665:13674   */\n      dup3\n        /* \"#utility.yul\":13661:13679   */\n      add\n        /* \"#utility.yul\":13653:13679   */\n      swap1\n      pop\n        /* \"#utility.yul\":13725:13734   */\n      dup2\n        /* \"#utility.yul\":13719:13723   */\n      dup2\n        /* \"#utility.yul\":13715:13735   */\n      sub\n        /* \"#utility.yul\":13711:13712   */\n      0x00\n        /* \"#utility.yul\":13700:13709   */\n      dup4\n        /* \"#utility.yul\":13696:13713   */\n      add\n        /* \"#utility.yul\":13689:13736   */\n      mstore\n        /* \"#utility.yul\":13753:13884   */\n      tag_361\n        /* \"#utility.yul\":13879:13883   */\n      dup2\n        /* \"#utility.yul\":13753:13884   */\n      tag_200\n      jump\t// in\n    tag_361:\n        /* \"#utility.yul\":13745:13884   */\n      swap1\n      pop\n        /* \"#utility.yul\":13472:13891   */\n      swap2\n      swap1\n      pop\n      jump\t// out\n        /* \"#utility.yul\":13897:14072   */\n    tag_201:\n        /* \"#utility.yul\":14037:14064   */\n      0x50726f6a65637420697320616c72656164792066756e64656400000000000000\n        /* \"#utility.yul\":14033:14034   */\n      0x00\n        /* \"#utility.yul\":14025:14031   */\n      dup3\n        /* \"#utility.yul\":14021:14035   */\n      add\n        /* \"#utility.yul\":14014:14065   */\n      mstore\n        /* \"#utility.yul\":13897:14072   */\n      pop\n      jump\t// out\n        /* \"#utility.yul\":14078:14444   */\n    tag_202:\n        /* \"#utility.yul\":14220:14223   */\n      0x00\n        /* \"#utility.yul\":14241:14308   */\n      tag_364\n        /* \"#utility.yul\":14305:14307   */\n      0x19\n        /* \"#utility.yul\":14300:14303   */\n      dup4\n        /* \"#utility.yul\":14241:14308   */\n      tag_175\n      jump\t// in\n    tag_364:\n        /* \"#utility.yul\":14234:14308   */\n      swap2\n      pop\n        /* \"#utility.yul\":14317:14410   */\n      tag_365\n        /* \"#utility.yul\":14406:14409   */\n      dup3\n        /* \"#utility.yul\":14317:14410   */\n      tag_201\n      jump\t// in\n    tag_365:\n        /* \"#utility.yul\":14435:14437   */\n      0x20\n        /* \"#utility.yul\":14430:14433   */\n      dup3\n        /* \"#utility.yul\":14426:14438   */\n      add\n        /* \"#utility.yul\":14419:14438   */\n      swap1\n      pop\n        /* \"#utility.yul\":14078:14444   */\n      swap2\n      swap1\n      pop\n      jump\t// out\n        /* \"#utility.yul\":14450:14869   */\n    tag_102:\n        /* \"#utility.yul\":14616:14620   */\n      0x00\n        /* \"#utility.yul\":14654:14656   */\n      0x20\n        /* \"#utility.yul\":14643:14652   */\n      dup3\n        /* \"#utility.yul\":14639:14657   */\n      add\n        /* \"#utility.yul\":14631:14657   */\n      swap1\n      pop\n        /* \"#utility.yul\":14703:14712   */\n      dup2\n        /* \"#utility.yul\":14697:14701   */\n      dup2\n        /* \"#utility.yul\":14693:14713   */\n      sub\n        /* \"#utility.yul\":14689:14690   */\n      0x00\n        /* \"#utility.yul\":14678:14687   */\n      dup4\n        /* \"#utility.yul\":14674:14691   */\n      add\n        /* \"#utility.yul\":14667:14714   */\n      mstore\n        /* \"#utility.yul\":14731:14862   */\n      tag_367\n        /* \"#utility.yul\":14857:14861   */\n      dup2\n        /* \"#utility.yul\":14731:14862   */\n      tag_202\n      jump\t// in\n    tag_367:\n        /* \"#utility.yul\":14723:14862   */\n      swap1\n      pop\n        /* \"#utility.yul\":14450:14869   */\n      swap2\n      swap1\n      pop\n      jump\t// out\n        /* \"#utility.yul\":14875:15055   */\n    tag_203:\n        /* \"#utility.yul\":15015:15047   */\n      0x4d7573742073656e7420736f6d652076616c7565206f662065746865722e0000\n        /* \"#utility.yul\":15011:15012   */\n      0x00\n        /* \"#utility.yul\":15003:15009   */\n      dup3\n        /* \"#utility.yul\":14999:15013   */\n      add\n        /* \"#utility.yul\":14992:15048   */\n      mstore\n        /* \"#utility.yul\":14875:15055   */\n      pop\n      jump\t// out\n        /* \"#utility.yul\":15061:15427   */\n    tag_204:\n        /* \"#utility.yul\":15203:15206   */\n      0x00\n        /* \"#utility.yul\":15224:15291   */\n      tag_370\n        /* \"#utility.yul\":15288:15290   */\n      0x1e\n        /* \"#utility.yul\":15283:15286   */\n      dup4\n        /* \"#utility.yul\":15224:15291   */\n      tag_175\n      jump\t// in\n    tag_370:\n        /* \"#utility.yul\":15217:15291   */\n      swap2\n      pop\n        /* \"#utility.yul\":15300:15393   */\n      tag_371\n        /* \"#utility.yul\":15389:15392   */\n      dup3\n        /* \"#utility.yul\":15300:15393   */\n      tag_203\n      jump\t// in\n    tag_371:\n        /* \"#utility.yul\":15418:15420   */\n      0x20\n        /* \"#utility.yul\":15413:15416   */\n      dup3\n        /* \"#utility.yul\":15409:15421   */\n      add\n        /* \"#utility.yul\":15402:15421   */\n      swap1\n      pop\n        /* \"#utility.yul\":15061:15427   */\n      swap2\n      swap1\n      pop\n      jump\t// out\n        /* \"#utility.yul\":15433:15852   */\n    tag_105:\n        /* \"#utility.yul\":15599:15603   */\n      0x00\n        /* \"#utility.yul\":15637:15639   */\n      0x20\n        /* \"#utility.yul\":15626:15635   */\n      dup3\n        /* \"#utility.yul\":15622:15640   */\n      add\n        /* \"#utility.yul\":15614:15640   */\n      swap1\n      pop\n        /* \"#utility.yul\":15686:15695   */\n      dup2\n        /* \"#utility.yul\":15680:15684   */\n      dup2\n        /* \"#utility.yul\":15676:15696   */\n      sub\n        /* \"#utility.yul\":15672:15673   */\n      0x00\n        /* \"#utility.yul\":15661:15670   */\n      dup4\n        /* \"#utility.yul\":15657:15674   */\n      add\n        /* \"#utility.yul\":15650:15697   */\n      mstore\n        /* \"#utility.yul\":15714:15845   */\n      tag_373\n        /* \"#utility.yul\":15840:15844   */\n      dup2\n        /* \"#utility.yul\":15714:15845   */\n      tag_204\n      jump\t// in\n    tag_373:\n        /* \"#utility.yul\":15706:15845   */\n      swap1\n      pop\n        /* \"#utility.yul\":15433:15852   */\n      swap2\n      swap1\n      pop\n      jump\t// out\n        /* \"#utility.yul\":15858:16038   */\n    tag_205:\n        /* \"#utility.yul\":15906:15983   */\n      0x4e487b7100000000000000000000000000000000000000000000000000000000\n        /* \"#utility.yul\":15903:15904   */\n      0x00\n        /* \"#utility.yul\":15896:15984   */\n      mstore\n        /* \"#utility.yul\":16003:16007   */\n      0x11\n        /* \"#utility.yul\":16000:16001   */\n      0x04\n        /* \"#utility.yul\":15993:16008   */\n      mstore\n        /* \"#utility.yul\":16027:16031   */\n      0x24\n        /* \"#utility.yul\":16024:16025   */\n      0x00\n        /* \"#utility.yul\":16017:16032   */\n      revert\n        /* \"#utility.yul\":16044:16454   */\n    tag_108:\n        /* \"#utility.yul\":16084:16091   */\n      0x00\n        /* \"#utility.yul\":16107:16127   */\n      tag_376\n        /* \"#utility.yul\":16125:16126   */\n      dup3\n        /* \"#utility.yul\":16107:16127   */\n      tag_167\n      jump\t// in\n    tag_376:\n        /* \"#utility.yul\":16102:16127   */\n      swap2\n      pop\n        /* \"#utility.yul\":16141:16161   */\n      tag_377\n        /* \"#utility.yul\":16159:16160   */\n      dup4\n        /* \"#utility.yul\":16141:16161   */\n      tag_167\n      jump\t// in\n    tag_377:\n        /* \"#utility.yul\":16136:16161   */\n      swap3\n      pop\n        /* \"#utility.yul\":16196:16197   */\n      dup3\n        /* \"#utility.yul\":16193:16194   */\n      dup3\n        /* \"#utility.yul\":16189:16198   */\n      mul\n        /* \"#utility.yul\":16218:16248   */\n      tag_378\n        /* \"#utility.yul\":16236:16247   */\n      dup2\n        /* \"#utility.yul\":16218:16248   */\n      tag_167\n      jump\t// in\n    tag_378:\n        /* \"#utility.yul\":16207:16248   */\n      swap2\n      pop\n        /* \"#utility.yul\":16397:16398   */\n      dup3\n        /* \"#utility.yul\":16388:16395   */\n      dup3\n        /* \"#utility.yul\":16384:16399   */\n      div\n        /* \"#utility.yul\":16381:16382   */\n      dup5\n        /* \"#utility.yul\":16378:16400   */\n      eq\n        /* \"#utility.yul\":16358:16359   */\n      dup4\n        /* \"#utility.yul\":16351:16360   */\n      iszero\n        /* \"#utility.yul\":16331:16414   */\n      or\n        /* \"#utility.yul\":16308:16447   */\n      tag_379\n      jumpi\n        /* \"#utility.yul\":16427:16445   */\n      tag_380\n      tag_205\n      jump\t// in\n    tag_380:\n        /* \"#utility.yul\":16308:16447   */\n    tag_379:\n        /* \"#utility.yul\":16092:16454   */\n      pop\n        /* \"#utility.yul\":16044:16454   */\n      swap3\n      swap2\n      pop\n      pop\n      jump\t// out\n        /* \"#utility.yul\":16460:16640   */\n    tag_206:\n        /* \"#utility.yul\":16508:16585   */\n      0x4e487b7100000000000000000000000000000000000000000000000000000000\n        /* \"#utility.yul\":16505:16506   */\n      0x00\n        /* \"#utility.yul\":16498:16586   */\n      mstore\n        /* \"#utility.yul\":16605:16609   */\n      0x12\n        /* \"#utility.yul\":16602:16603   */\n      0x04\n        /* \"#utility.yul\":16595:16610   */\n      mstore\n        /* \"#utility.yul\":16629:16633   */\n      0x24\n        /* \"#utility.yul\":16626:16627   */\n      0x00\n        /* \"#utility.yul\":16619:16634   */\n      revert\n        /* \"#utility.yul\":16646:16831   */\n    tag_110:\n        /* \"#utility.yul\":16686:16687   */\n      0x00\n        /* \"#utility.yul\":16703:16723   */\n      tag_383\n        /* \"#utility.yul\":16721:16722   */\n      dup3\n        /* \"#utility.yul\":16703:16723   */\n      tag_167\n      jump\t// in\n    tag_383:\n        /* \"#utility.yul\":16698:16723   */\n      swap2\n      pop\n        /* \"#utility.yul\":16737:16757   */\n      tag_384\n        /* \"#utility.yul\":16755:16756   */\n      dup4\n        /* \"#utility.yul\":16737:16757   */\n      tag_167\n      jump\t// in\n    tag_384:\n        /* \"#utility.yul\":16732:16757   */\n      swap3\n      pop\n        /* \"#utility.yul\":16776:16777   */\n      dup3\n        /* \"#utility.yul\":16766:16801   */\n      tag_385\n      jumpi\n        /* \"#utility.yul\":16781:16799   */\n      tag_386\n      tag_206\n      jump\t// in\n    tag_386:\n        /* \"#utility.yul\":16766:16801   */\n    tag_385:\n        /* \"#utility.yul\":16823:16824   */\n      dup3\n        /* \"#utility.yul\":16820:16821   */\n      dup3\n        /* \"#utility.yul\":16816:16825   */\n      div\n        /* \"#utility.yul\":16811:16825   */\n      swap1\n      pop\n        /* \"#utility.yul\":16646:16831   */\n      swap3\n      swap2\n      pop\n      pop\n      jump\t// out\n        /* \"#utility.yul\":16837:17028   */\n    tag_112:\n        /* \"#utility.yul\":16877:16880   */\n      0x00\n        /* \"#utility.yul\":16896:16916   */\n      tag_388\n        /* \"#utility.yul\":16914:16915   */\n      dup3\n        /* \"#utility.yul\":16896:16916   */\n      tag_167\n      jump\t// in\n    tag_388:\n        /* \"#utility.yul\":16891:16916   */\n      swap2\n      pop\n        /* \"#utility.yul\":16930:16950   */\n      tag_389\n        /* \"#utility.yul\":16948:16949   */\n      dup4\n        /* \"#utility.yul\":16930:16950   */\n      tag_167\n      jump\t// in\n    tag_389:\n        /* \"#utility.yul\":16925:16950   */\n      swap3\n      pop\n        /* \"#utility.yul\":16973:16974   */\n      dup3\n        /* \"#utility.yul\":16970:16971   */\n      dup3\n        /* \"#utility.yul\":16966:16975   */\n      add\n        /* \"#utility.yul\":16959:16975   */\n      swap1\n      pop\n        /* \"#utility.yul\":16994:16997   */\n      dup1\n        /* \"#utility.yul\":16991:16992   */\n      dup3\n        /* \"#utility.yul\":16988:16998   */\n      gt\n        /* \"#utility.yul\":16985:17021   */\n      iszero\n      tag_390\n      jumpi\n        /* \"#utility.yul\":17001:17019   */\n      tag_391\n      tag_205\n      jump\t// in\n    tag_391:\n        /* \"#utility.yul\":16985:17021   */\n    tag_390:\n        /* \"#utility.yul\":16837:17028   */\n      swap3\n      swap2\n      pop\n      pop\n      jump\t// out\n        /* \"#utility.yul\":17034:17267   */\n    tag_120:\n        /* \"#utility.yul\":17073:17076   */\n      0x00\n        /* \"#utility.yul\":17096:17120   */\n      tag_393\n        /* \"#utility.yul\":17114:17119   */\n      dup3\n        /* \"#utility.yul\":17096:17120   */\n      tag_167\n      jump\t// in\n    tag_393:\n        /* \"#utility.yul\":17087:17120   */\n      swap2\n      pop\n        /* \"#utility.yul\":17142:17208   */\n      0xffffffffffffffffffffffffffffffffffffffffffffffffffffffffffffffff\n        /* \"#utility.yul\":17135:17140   */\n      dup3\n        /* \"#utility.yul\":17132:17209   */\n      sub\n        /* \"#utility.yul\":17129:17232   */\n      tag_394\n      jumpi\n        /* \"#utility.yul\":17212:17230   */\n      tag_395\n      tag_205\n      jump\t// in\n    tag_395:\n        /* \"#utility.yul\":17129:17232   */\n    tag_394:\n        /* \"#utility.yul\":17259:17260   */\n      0x01\n        /* \"#utility.yul\":17252:17257   */\n      dup3\n        /* \"#utility.yul\":17248:17261   */\n      add\n        /* \"#utility.yul\":17241:17261   */\n      swap1\n      pop\n        /* \"#utility.yul\":17034:17267   */\n      swap2\n      swap1\n      pop\n      jump\t// out\n        /* \"#utility.yul\":17273:17448   */\n    tag_207:\n        /* \"#utility.yul\":17413:17440   */\n      0x46756e64696e67206973206e6f742073756666696369656e7400000000000000\n        /* \"#utility.yul\":17409:17410   */\n      0x00\n        /* \"#utility.yul\":17401:17407   */\n      dup3\n        /* \"#utility.yul\":17397:17411   */\n      add\n        /* \"#utility.yul\":17390:17441   */\n      mstore\n        /* \"#utility.yul\":17273:17448   */\n      pop\n      jump\t// out\n        /* \"#utility.yul\":17454:17820   */\n    tag_208:\n        /* \"#utility.yul\":17596:17599   */\n      0x00\n        /* \"#utility.yul\":17617:17684   */\n      tag_398\n        /* \"#utility.yul\":17681:17683   */\n      0x19\n        /* \"#utility.yul\":17676:17679   */\n      dup4\n        /* \"#utility.yul\":17617:17684   */\n      tag_175\n      jump\t// in\n    tag_398:\n        /* \"#utility.yul\":17610:17684   */\n      swap2\n      pop\n        /* \"#utility.yul\":17693:17786   */\n      tag_399\n        /* \"#utility.yul\":17782:17785   */\n      dup3\n        /* \"#utility.yul\":17693:17786   */\n      tag_207\n      jump\t// in\n    tag_399:\n        /* \"#utility.yul\":17811:17813   */\n      0x20\n        /* \"#utility.yul\":17806:17809   */\n      dup3\n        /* \"#utility.yul\":17802:17814   */\n      add\n        /* \"#utility.yul\":17795:17814   */\n      swap1\n      pop\n        /* \"#utility.yul\":17454:17820   */\n      swap2\n      swap1\n      pop\n      jump\t// out\n        /* \"#utility.yul\":17826:18245   */\n    tag_124:\n        /* \"#utility.yul\":17992:17996   */\n      0x00\n        /* \"#utility.yul\":18030:18032   */\n      0x20\n        /* \"#utility.yul\":18019:18028   */\n      dup3\n        /* \"#utility.yul\":18015:18033   */\n      add\n        /* \"#utility.yul\":18007:18033   */\n      swap1\n      pop\n        /* \"#utility.yul\":18079:18088   */\n      dup2\n        /* \"#utility.yul\":18073:18077   */\n      dup2\n        /* \"#utility.yul\":18069:18089   */\n      sub\n        /* \"#utility.yul\":18065:18066   */\n      0x00\n        /* \"#utility.yul\":18054:18063   */\n      dup4\n        /* \"#utility.yul\":18050:18067   */\n      add\n        /* \"#utility.yul\":18043:18090   */\n      mstore\n        /* \"#utility.yul\":18107:18238   */\n      tag_401\n        /* \"#utility.yul\":18233:18237   */\n      dup2\n        /* \"#utility.yul\":18107:18238   */\n      tag_208\n      jump\t// in\n    tag_401:\n        /* \"#utility.yul\":18099:18238   */\n      swap1\n      pop\n        /* \"#utility.yul\":17826:18245   */\n      swap2\n      swap1\n      pop\n      jump\t// out\n        /* \"#utility.yul\":18251:18432   */\n    tag_209:\n        /* \"#utility.yul\":18391:18424   */\n      0x4f6e6c792070726f6a6563742061646d696e2063616e20776974687372617700\n        /* \"#utility.yul\":18387:18388   */\n      0x00\n        /* \"#utility.yul\":18379:18385   */\n      dup3\n        /* \"#utility.yul\":18375:18389   */\n      add\n        /* \"#utility.yul\":18368:18425   */\n      mstore\n        /* \"#utility.yul\":18251:18432   */\n      pop\n      jump\t// out\n        /* \"#utility.yul\":18438:18804   */\n    tag_210:\n        /* \"#utility.yul\":18580:18583   */\n      0x00\n        /* \"#utility.yul\":18601:18668   */\n      tag_404\n        /* \"#utility.yul\":18665:18667   */\n      0x1f\n        /* \"#utility.yul\":18660:18663   */\n      dup4\n        /* \"#utility.yul\":18601:18668   */\n      tag_175\n      jump\t// in\n    tag_404:\n        /* \"#utility.yul\":18594:18668   */\n      swap2\n      pop\n        /* \"#utility.yul\":18677:18770   */\n      tag_405\n        /* \"#utility.yul\":18766:18769   */\n      dup3\n        /* \"#utility.yul\":18677:18770   */\n      tag_209\n      jump\t// in\n    tag_405:\n        /* \"#utility.yul\":18795:18797   */\n      0x20\n        /* \"#utility.yul\":18790:18793   */\n      dup3\n        /* \"#utility.yul\":18786:18798   */\n      add\n        /* \"#utility.yul\":18779:18798   */\n      swap1\n      pop\n        /* \"#utility.yul\":18438:18804   */\n      swap2\n      swap1\n      pop\n      jump\t// out\n        /* \"#utility.yul\":18810:19229   */\n    tag_127:\n        /* \"#utility.yul\":18976:18980   */\n      0x00\n        /* \"#utility.yul\":19014:19016   */\n      0x20\n        /* \"#utility.yul\":19003:19012   */\n      dup3\n        /* \"#utility.yul\":18999:19017   */\n      add\n        /* \"#utility.yul\":18991:19017   */\n      swap1\n      pop\n        /* \"#utility.yul\":19063:19072   */\n      dup2\n        /* \"#utility.yul\":19057:19061   */\n      dup2\n        /* \"#utility.yul\":19053:19073   */\n      sub\n        /* \"#utility.yul\":19049:19050   */\n      0x00\n        /* \"#utility.yul\":19038:19047   */\n      dup4\n        /* \"#utility.yul\":19034:19051   */\n      add\n        /* \"#utility.yul\":19027:19074   */\n      mstore\n        /* \"#utility.yul\":19091:19222   */\n      tag_407\n        /* \"#utility.yul\":19217:19221   */\n      dup2\n        /* \"#utility.yul\":19091:19222   */\n      tag_210\n      jump\t// in\n    tag_407:\n        /* \"#utility.yul\":19083:19222   */\n      swap1\n      pop\n        /* \"#utility.yul\":18810:19229   */\n      swap2\n      swap1\n      pop\n      jump\t// out\n        /* \"#utility.yul\":19235:19457   */\n    tag_211:\n        /* \"#utility.yul\":19375:19409   */\n      0x446561646c696e6520666f722070726f6a656374206973206e6f742072656163\n        /* \"#utility.yul\":19371:19372   */\n      0x00\n        /* \"#utility.yul\":19363:19369   */\n      dup3\n        /* \"#utility.yul\":19359:19373   */\n      add\n        /* \"#utility.yul\":19352:19410   */\n      mstore\n        /* \"#utility.yul\":19444:19449   */\n      0x6865640000000000000000000000000000000000000000000000000000000000\n        /* \"#utility.yul\":19439:19441   */\n      0x20\n        /* \"#utility.yul\":19431:19437   */\n      dup3\n        /* \"#utility.yul\":19427:19442   */\n      add\n        /* \"#utility.yul\":19420:19450   */\n      mstore\n        /* \"#utility.yul\":19235:19457   */\n      pop\n      jump\t// out\n        /* \"#utility.yul\":19463:19829   */\n    tag_212:\n        /* \"#utility.yul\":19605:19608   */\n      0x00\n        /* \"#utility.yul\":19626:19693   */\n      tag_410\n        /* \"#utility.yul\":19690:19692   */\n      0x23\n        /* \"#utility.yul\":19685:19688   */\n      dup4\n        /* \"#utility.yul\":19626:19693   */\n      tag_175\n      jump\t// in\n    tag_410:\n        /* \"#utility.yul\":19619:19693   */\n      swap2\n      pop\n        /* \"#utility.yul\":19702:19795   */\n      tag_411\n        /* \"#utility.yul\":19791:19794   */\n      dup3\n        /* \"#utility.yul\":19702:19795   */\n      tag_211\n      jump\t// in\n    tag_411:\n        /* \"#utility.yul\":19820:19822   */\n      0x40\n        /* \"#utility.yul\":19815:19818   */\n      dup3\n        /* \"#utility.yul\":19811:19823   */\n      add\n        /* \"#utility.yul\":19804:19823   */\n      swap1\n      pop\n        /* \"#utility.yul\":19463:19829   */\n      swap2\n      swap1\n      pop\n      jump\t// out\n        /* \"#utility.yul\":19835:20254   */\n    tag_130:\n        /* \"#utility.yul\":20001:20005   */\n      0x00\n        /* \"#utility.yul\":20039:20041   */\n      0x20\n        /* \"#utility.yul\":20028:20037   */\n      dup3\n        /* \"#utility.yul\":20024:20042   */\n      add\n        /* \"#utility.yul\":20016:20042   */\n      swap1\n      pop\n        /* \"#utility.yul\":20088:20097   */\n      dup2\n        /* \"#utility.yul\":20082:20086   */\n      dup2\n        /* \"#utility.yul\":20078:20098   */\n      sub\n        /* \"#utility.yul\":20074:20075   */\n      0x00\n        /* \"#utility.yul\":20063:20072   */\n      dup4\n        /* \"#utility.yul\":20059:20076   */\n      add\n        /* \"#utility.yul\":20052:20099   */\n      mstore\n        /* \"#utility.yul\":20116:20247   */\n      tag_413\n        /* \"#utility.yul\":20242:20246   */\n      dup2\n        /* \"#utility.yul\":20116:20247   */\n      tag_212\n      jump\t// in\n    tag_413:\n        /* \"#utility.yul\":20108:20247   */\n      swap1\n      pop\n        /* \"#utility.yul\":19835:20254   */\n      swap2\n      swap1\n      pop\n      jump\t// out\n        /* \"#utility.yul\":20260:20436   */\n    tag_213:\n        /* \"#utility.yul\":20400:20428   */\n      0x50726f6a65637420496420697320616c72656164792075736564000000000000\n        /* \"#utility.yul\":20396:20397   */\n      0x00\n        /* \"#utility.yul\":20388:20394   */\n      dup3\n        /* \"#utility.yul\":20384:20398   */\n      add\n        /* \"#utility.yul\":20377:20429   */\n      mstore\n        /* \"#utility.yul\":20260:20436   */\n      pop\n      jump\t// out\n        /* \"#utility.yul\":20442:20808   */\n    tag_214:\n        /* \"#utility.yul\":20584:20587   */\n      0x00\n        /* \"#utility.yul\":20605:20672   */\n      tag_416\n        /* \"#utility.yul\":20669:20671   */\n      0x1a\n        /* \"#utility.yul\":20664:20667   */\n      dup4\n        /* \"#utility.yul\":20605:20672   */\n      tag_175\n      jump\t// in\n    tag_416:\n        /* \"#utility.yul\":20598:20672   */\n      swap2\n      pop\n        /* \"#utility.yul\":20681:20774   */\n      tag_417\n        /* \"#utility.yul\":20770:20773   */\n      dup3\n        /* \"#utility.yul\":20681:20774   */\n      tag_213\n      jump\t// in\n    tag_417:\n        /* \"#utility.yul\":20799:20801   */\n      0x20\n        /* \"#utility.yul\":20794:20797   */\n      dup3\n        /* \"#utility.yul\":20790:20802   */\n      add\n        /* \"#utility.yul\":20783:20802   */\n      swap1\n      pop\n        /* \"#utility.yul\":20442:20808   */\n      swap2\n      swap1\n      pop\n      jump\t// out\n        /* \"#utility.yul\":20814:21233   */\n    tag_136:\n        /* \"#utility.yul\":20980:20984   */\n      0x00\n        /* \"#utility.yul\":21018:21020   */\n      0x20\n        /* \"#utility.yul\":21007:21016   */\n      dup3\n        /* \"#utility.yul\":21003:21021   */\n      add\n        /* \"#utility.yul\":20995:21021   */\n      swap1\n      pop\n        /* \"#utility.yul\":21067:21076   */\n      dup2\n        /* \"#utility.yul\":21061:21065   */\n      dup2\n        /* \"#utility.yul\":21057:21077   */\n      sub\n        /* \"#utility.yul\":21053:21054   */\n      0x00\n        /* \"#utility.yul\":21042:21051   */\n      dup4\n        /* \"#utility.yul\":21038:21055   */\n      add\n        /* \"#utility.yul\":21031:21078   */\n      mstore\n        /* \"#utility.yul\":21095:21226   */\n      tag_419\n        /* \"#utility.yul\":21221:21225   */\n      dup2\n        /* \"#utility.yul\":21095:21226   */\n      tag_214\n      jump\t// in\n    tag_419:\n        /* \"#utility.yul\":21087:21226   */\n      swap1\n      pop\n        /* \"#utility.yul\":20814:21233   */\n      swap2\n      swap1\n      pop\n      jump\t// out\n        /* \"#utility.yul\":21239:21380   */\n    tag_215:\n        /* \"#utility.yul\":21288:21292   */\n      0x00\n        /* \"#utility.yul\":21311:21314   */\n      dup2\n        /* \"#utility.yul\":21303:21314   */\n      swap1\n      pop\n        /* \"#utility.yul\":21334:21337   */\n      dup2\n        /* \"#utility.yul\":21331:21332   */\n      0x00\n        /* \"#utility.yul\":21324:21338   */\n      mstore\n        /* \"#utility.yul\":21368:21372   */\n      0x20\n        /* \"#utility.yul\":21365:21366   */\n      0x00\n        /* \"#utility.yul\":21355:21373   */\n      keccak256\n        /* \"#utility.yul\":21347:21373   */\n      swap1\n      pop\n        /* \"#utility.yul\":21239:21380   */\n      swap2\n      swap1\n      pop\n      jump\t// out\n        /* \"#utility.yul\":21386:21479   */\n    tag_216:\n        /* \"#utility.yul\":21423:21429   */\n      0x00\n        /* \"#utility.yul\":21470:21472   */\n      0x20\n        /* \"#utility.yul\":21465:21467   */\n      0x1f\n        /* \"#utility.yul\":21458:21463   */\n      dup4\n        /* \"#utility.yul\":21454:21468   */\n      add\n        /* \"#utility.yul\":21450:21473   */\n      div\n        /* \"#utility.yul\":21440:21473   */\n      swap1\n      pop\n        /* \"#utility.yul\":21386:21479   */\n      swap2\n      swap1\n      pop\n      jump\t// out\n        /* \"#utility.yul\":21485:21592   */\n    tag_217:\n        /* \"#utility.yul\":21529:21537   */\n      0x00\n        /* \"#utility.yul\":21579:21584   */\n      dup3\n        /* \"#utility.yul\":21573:21577   */\n      dup3\n        /* \"#utility.yul\":21569:21585   */\n      shl\n        /* \"#utility.yul\":21548:21585   */\n      swap1\n      pop\n        /* \"#utility.yul\":21485:21592   */\n      swap3\n      swap2\n      pop\n      pop\n      jump\t// out\n        /* \"#utility.yul\":21598:21991   */\n    tag_218:\n        /* \"#utility.yul\":21667:21673   */\n      0x00\n        /* \"#utility.yul\":21717:21718   */\n      0x08\n        /* \"#utility.yul\":21705:21715   */\n      dup4\n        /* \"#utility.yul\":21701:21719   */\n      mul\n        /* \"#utility.yul\":21740:21837   */\n      tag_424\n        /* \"#utility.yul\":21770:21836   */\n      0xffffffffffffffffffffffffffffffffffffffffffffffffffffffffffffffff\n        /* \"#utility.yul\":21759:21768   */\n      dup3\n        /* \"#utility.yul\":21740:21837   */\n      tag_217\n      jump\t// in\n    tag_424:\n        /* \"#utility.yul\":21858:21897   */\n      tag_425\n        /* \"#utility.yul\":21888:21896   */\n      dup7\n        /* \"#utility.yul\":21877:21886   */\n      dup4\n        /* \"#utility.yul\":21858:21897   */\n      tag_217\n      jump\t// in\n    tag_425:\n        /* \"#utility.yul\":21846:21897   */\n      swap6\n      pop\n        /* \"#utility.yul\":21930:21934   */\n      dup1\n        /* \"#utility.yul\":21926:21935   */\n      not\n        /* \"#utility.yul\":21919:21924   */\n      dup5\n        /* \"#utility.yul\":21915:21936   */\n      and\n        /* \"#utility.yul\":21906:21936   */\n      swap4\n      pop\n        /* \"#utility.yul\":21979:21983   */\n      dup1\n        /* \"#utility.yul\":21969:21977   */\n      dup7\n        /* \"#utility.yul\":21965:21984   */\n      and\n        /* \"#utility.yul\":21958:21963   */\n      dup5\n        /* \"#utility.yul\":21955:21985   */\n      or\n        /* \"#utility.yul\":21945:21985   */\n      swap3\n      pop\n        /* \"#utility.yul\":21674:21991   */\n      pop\n      pop\n        /* \"#utility.yul\":21598:21991   */\n      swap4\n      swap3\n      pop\n      pop\n      pop\n      jump\t// out\n        /* \"#utility.yul\":21997:22057   */\n    tag_219:\n        /* \"#utility.yul\":22025:22028   */\n      0x00\n        /* \"#utility.yul\":22046:22051   */\n      dup2\n        /* \"#utility.yul\":22039:22051   */\n      swap1\n      pop\n        /* \"#utility.yul\":21997:22057   */\n      swap2\n      swap1\n      pop\n      jump\t// out\n        /* \"#utility.yul\":22063:22205   */\n    tag_220:\n        /* \"#utility.yul\":22113:22122   */\n      0x00\n        /* \"#utility.yul\":22146:22199   */\n      tag_428\n        /* \"#utility.yul\":22164:22198   */\n      tag_429\n        /* \"#utility.yul\":22173:22197   */\n      tag_430\n        /* \"#utility.yul\":22191:22196   */\n      dup5\n        /* \"#utility.yul\":22173:22197   */\n      tag_167\n      jump\t// in\n    tag_430:\n        /* \"#utility.yul\":22164:22198   */\n      tag_219\n      jump\t// in\n    tag_429:\n        /* \"#utility.yul\":22146:22199   */\n      tag_167\n      jump\t// in\n    tag_428:\n        /* \"#utility.yul\":22133:22199   */\n      swap1\n      pop\n        /* \"#utility.yul\":22063:22205   */\n      swap2\n      swap1\n      pop\n      jump\t// out\n        /* \"#utility.yul\":22211:22286   */\n    tag_221:\n        /* \"#utility.yul\":22254:22257   */\n      0x00\n        /* \"#utility.yul\":22275:22280   */\n      dup2\n        /* \"#utility.yul\":22268:22280   */\n      swap1\n      pop\n        /* \"#utility.yul\":22211:22286   */\n      swap2\n      swap1\n      pop\n      jump\t// out\n        /* \"#utility.yul\":22292:22561   */\n    tag_222:\n        /* \"#utility.yul\":22402:22441   */\n      tag_433\n        /* \"#utility.yul\":22433:22440   */\n      dup4\n        /* \"#utility.yul\":22402:22441   */\n      tag_220\n      jump\t// in\n    tag_433:\n        /* \"#utility.yul\":22463:22554   */\n      tag_434\n        /* \"#utility.yul\":22512:22553   */\n      tag_435\n        /* \"#utility.yul\":22536:22552   */\n      dup3\n        /* \"#utility.yul\":22512:22553   */\n      tag_221\n      jump\t// in\n    tag_435:\n        /* \"#utility.yul\":22504:22510   */\n      dup5\n        /* \"#utility.yul\":22497:22501   */\n      dup5\n        /* \"#utility.yul\":22491:22502   */\n      sload\n        /* \"#utility.yul\":22463:22554   */\n      tag_218\n      jump\t// in\n    tag_434:\n        /* \"#utility.yul\":22457:22461   */\n      dup3\n        /* \"#utility.yul\":22450:22555   */\n      sstore\n        /* \"#utility.yul\":22368:22561   */\n      pop\n        /* \"#utility.yul\":22292:22561   */\n      pop\n      pop\n      pop\n      jump\t// out\n        /* \"#utility.yul\":22567:22640   */\n    tag_223:\n        /* \"#utility.yul\":22612:22615   */\n      0x00\n        /* \"#utility.yul\":22567:22640   */\n      swap1\n      jump\t// out\n        /* \"#utility.yul\":22646:22835   */\n    tag_224:\n        /* \"#utility.yul\":22723:22755   */\n      tag_438\n      tag_223\n      jump\t// in\n    tag_438:\n        /* \"#utility.yul\":22764:22829   */\n      tag_439\n        /* \"#utility.yul\":22822:22828   */\n      dup2\n        /* \"#utility.yul\":22814:22820   */\n      dup5\n        /* \"#utility.yul\":22808:22812   */\n      dup5\n        /* \"#utility.yul\":22764:22829   */\n      tag_222\n      jump\t// in\n    tag_439:\n        /* \"#utility.yul\":22699:22835   */\n      pop\n        /* \"#utility.yul\":22646:22835   */\n      pop\n      pop\n      jump\t// out\n        /* \"#utility.yul\":22841:23027   */\n    tag_225:\n        /* \"#utility.yul\":22901:23021   */\n    tag_441:\n        /* \"#utility.yul\":22918:22921   */\n      dup2\n        /* \"#utility.yul\":22911:22916   */\n      dup2\n        /* \"#utility.yul\":22908:22922   */\n      lt\n        /* \"#utility.yul\":22901:23021   */\n      iszero\n      tag_443\n      jumpi\n        /* \"#utility.yul\":22972:23011   */\n      tag_444\n        /* \"#utility.yul\":23009:23010   */\n      0x00\n        /* \"#utility.yul\":23002:23007   */\n      dup3\n        /* \"#utility.yul\":22972:23011   */\n      tag_224\n      jump\t// in\n    tag_444:\n        /* \"#utility.yul\":22945:22946   */\n      0x01\n        /* \"#utility.yul\":22938:22943   */\n      dup2\n        /* \"#utility.yul\":22934:22947   */\n      add\n        /* \"#utility.yul\":22925:22947   */\n      swap1\n      pop\n        /* \"#utility.yul\":22901:23021   */\n      jump(tag_441)\n    tag_443:\n        /* \"#utility.yul\":22841:23027   */\n      pop\n      pop\n      jump\t// out\n        /* \"#utility.yul\":23033:23576   */\n    tag_226:\n        /* \"#utility.yul\":23134:23136   */\n      0x1f\n        /* \"#utility.yul\":23129:23132   */\n      dup3\n        /* \"#utility.yul\":23126:23137   */\n      gt\n        /* \"#utility.yul\":23123:23569   */\n      iszero\n      tag_446\n      jumpi\n        /* \"#utility.yul\":23168:23206   */\n      tag_447\n        /* \"#utility.yul\":23200:23205   */\n      dup2\n        /* \"#utility.yul\":23168:23206   */\n      tag_215\n      jump\t// in\n    tag_447:\n        /* \"#utility.yul\":23252:23281   */\n      tag_448\n        /* \"#utility.yul\":23270:23280   */\n      dup5\n        /* \"#utility.yul\":23252:23281   */\n      tag_216\n      jump\t// in\n    tag_448:\n        /* \"#utility.yul\":23242:23250   */\n      dup2\n        /* \"#utility.yul\":23238:23282   */\n      add\n        /* \"#utility.yul\":23435:23437   */\n      0x20\n        /* \"#utility.yul\":23423:23433   */\n      dup6\n        /* \"#utility.yul\":23420:23438   */\n      lt\n        /* \"#utility.yul\":23417:23466   */\n      iszero\n      tag_449\n      jumpi\n        /* \"#utility.yul\":23456:23464   */\n      dup2\n        /* \"#utility.yul\":23441:23464   */\n      swap1\n      pop\n        /* \"#utility.yul\":23417:23466   */\n    tag_449:\n        /* \"#utility.yul\":23479:23559   */\n      tag_450\n        /* \"#utility.yul\":23535:23557   */\n      tag_451\n        /* \"#utility.yul\":23553:23556   */\n      dup6\n        /* \"#utility.yul\":23535:23557   */\n      tag_216\n      jump\t// in\n    tag_451:\n        /* \"#utility.yul\":23525:23533   */\n      dup4\n        /* \"#utility.yul\":23521:23558   */\n      add\n        /* \"#utility.yul\":23508:23519   */\n      dup3\n        /* \"#utility.yul\":23479:23559   */\n      tag_225\n      jump\t// in\n    tag_450:\n        /* \"#utility.yul\":23138:23569   */\n      pop\n      pop\n        /* \"#utility.yul\":23123:23569   */\n    tag_446:\n        /* \"#utility.yul\":23033:23576   */\n      pop\n      pop\n      pop\n      jump\t// out\n        /* \"#utility.yul\":23582:23699   */\n    tag_227:\n        /* \"#utility.yul\":23636:23644   */\n      0x00\n        /* \"#utility.yul\":23686:23691   */\n      dup3\n        /* \"#utility.yul\":23680:23684   */\n      dup3\n        /* \"#utility.yul\":23676:23692   */\n      shr\n        /* \"#utility.yul\":23655:23692   */\n      swap1\n      pop\n        /* \"#utility.yul\":23582:23699   */\n      swap3\n      swap2\n      pop\n      pop\n      jump\t// out\n        /* \"#utility.yul\":23705:23874   */\n    tag_228:\n        /* \"#utility.yul\":23749:23755   */\n      0x00\n        /* \"#utility.yul\":23782:23833   */\n      tag_454\n        /* \"#utility.yul\":23830:23831   */\n      0x00\n        /* \"#utility.yul\":23826:23832   */\n      not\n        /* \"#utility.yul\":23818:23823   */\n      dup5\n        /* \"#utility.yul\":23815:23816   */\n      0x08\n        /* \"#utility.yul\":23811:23824   */\n      mul\n        /* \"#utility.yul\":23782:23833   */\n      tag_227\n      jump\t// in\n    tag_454:\n        /* \"#utility.yul\":23778:23834   */\n      not\n        /* \"#utility.yul\":23863:23867   */\n      dup1\n        /* \"#utility.yul\":23857:23861   */\n      dup4\n        /* \"#utility.yul\":23853:23868   */\n      and\n        /* \"#utility.yul\":23843:23868   */\n      swap2\n      pop\n        /* \"#utility.yul\":23756:23874   */\n      pop\n        /* \"#utility.yul\":23705:23874   */\n      swap3\n      swap2\n      pop\n      pop\n      jump\t// out\n        /* \"#utility.yul\":23879:24174   */\n    tag_229:\n        /* \"#utility.yul\":23955:23959   */\n      0x00\n        /* \"#utility.yul\":24101:24130   */\n      tag_456\n        /* \"#utility.yul\":24126:24129   */\n      dup4\n        /* \"#utility.yul\":24120:24124   */\n      dup4\n        /* \"#utility.yul\":24101:24130   */\n      tag_228\n      jump\t// in\n    tag_456:\n        /* \"#utility.yul\":24093:24130   */\n      swap2\n      pop\n        /* \"#utility.yul\":24163:24166   */\n      dup3\n        /* \"#utility.yul\":24160:24161   */\n      0x02\n        /* \"#utility.yul\":24156:24167   */\n      mul\n        /* \"#utility.yul\":24150:24154   */\n      dup3\n        /* \"#utility.yul\":24147:24168   */\n      or\n        /* \"#utility.yul\":24139:24168   */\n      swap1\n      pop\n        /* \"#utility.yul\":23879:24174   */\n      swap3\n      swap2\n      pop\n      pop\n      jump\t// out\n        /* \"#utility.yul\":24179:25574   */\n    tag_139:\n        /* \"#utility.yul\":24296:24333   */\n      tag_458\n        /* \"#utility.yul\":24329:24332   */\n      dup3\n        /* \"#utility.yul\":24296:24333   */\n      tag_174\n      jump\t// in\n    tag_458:\n        /* \"#utility.yul\":24398:24416   */\n      0xffffffffffffffff\n        /* \"#utility.yul\":24390:24396   */\n      dup2\n        /* \"#utility.yul\":24387:24417   */\n      gt\n        /* \"#utility.yul\":24384:24440   */\n      iszero\n      tag_459\n      jumpi\n        /* \"#utility.yul\":24420:24438   */\n      tag_460\n      tag_185\n      jump\t// in\n    tag_460:\n        /* \"#utility.yul\":24384:24440   */\n    tag_459:\n        /* \"#utility.yul\":24464:24502   */\n      tag_461\n        /* \"#utility.yul\":24496:24500   */\n      dup3\n        /* \"#utility.yul\":24490:24501   */\n      sload\n        /* \"#utility.yul\":24464:24502   */\n      tag_80\n      jump\t// in\n    tag_461:\n        /* \"#utility.yul\":24549:24616   */\n      tag_462\n        /* \"#utility.yul\":24609:24615   */\n      dup3\n        /* \"#utility.yul\":24601:24607   */\n      dup3\n        /* \"#utility.yul\":24595:24599   */\n      dup6\n        /* \"#utility.yul\":24549:24616   */\n      tag_226\n      jump\t// in\n    tag_462:\n        /* \"#utility.yul\":24643:24644   */\n      0x00\n        /* \"#utility.yul\":24667:24671   */\n      0x20\n        /* \"#utility.yul\":24654:24671   */\n      swap1\n      pop\n        /* \"#utility.yul\":24699:24701   */\n      0x1f\n        /* \"#utility.yul\":24691:24697   */\n      dup4\n        /* \"#utility.yul\":24688:24702   */\n      gt\n        /* \"#utility.yul\":24716:24717   */\n      0x01\n        /* \"#utility.yul\":24711:25329   */\n      dup2\n      eq\n      tag_464\n      jumpi\n        /* \"#utility.yul\":25373:25374   */\n      0x00\n        /* \"#utility.yul\":25390:25396   */\n      dup5\n        /* \"#utility.yul\":25387:25464   */\n      iszero\n      tag_465\n      jumpi\n        /* \"#utility.yul\":25439:25448   */\n      dup3\n        /* \"#utility.yul\":25434:25437   */\n      dup8\n        /* \"#utility.yul\":25430:25449   */\n      add\n        /* \"#utility.yul\":25424:25450   */\n      mload\n        /* \"#utility.yul\":25415:25450   */\n      swap1\n      pop\n        /* \"#utility.yul\":25387:25464   */\n    tag_465:\n        /* \"#utility.yul\":25490:25557   */\n      tag_466\n        /* \"#utility.yul\":25550:25556   */\n      dup6\n        /* \"#utility.yul\":25543:25548   */\n      dup3\n        /* \"#utility.yul\":25490:25557   */\n      tag_229\n      jump\t// in\n    tag_466:\n        /* \"#utility.yul\":25484:25488   */\n      dup7\n        /* \"#utility.yul\":25477:25558   */\n      sstore\n        /* \"#utility.yul\":25346:25568   */\n      pop\n        /* \"#utility.yul\":24681:25568   */\n      jump(tag_463)\n        /* \"#utility.yul\":24711:25329   */\n    tag_464:\n        /* \"#utility.yul\":24763:24767   */\n      0x1f\n        /* \"#utility.yul\":24759:24768   */\n      not\n        /* \"#utility.yul\":24751:24757   */\n      dup5\n        /* \"#utility.yul\":24747:24769   */\n      and\n        /* \"#utility.yul\":24797:24834   */\n      tag_467\n        /* \"#utility.yul\":24829:24833   */\n      dup7\n        /* \"#utility.yul\":24797:24834   */\n      tag_215\n      jump\t// in\n    tag_467:\n        /* \"#utility.yul\":24856:24857   */\n      0x00\n        /* \"#utility.yul\":24870:25078   */\n    tag_468:\n        /* \"#utility.yul\":24884:24891   */\n      dup3\n        /* \"#utility.yul\":24881:24882   */\n      dup2\n        /* \"#utility.yul\":24878:24892   */\n      lt\n        /* \"#utility.yul\":24870:25078   */\n      iszero\n      tag_470\n      jumpi\n        /* \"#utility.yul\":24963:24972   */\n      dup5\n        /* \"#utility.yul\":24958:24961   */\n      dup10\n        /* \"#utility.yul\":24954:24973   */\n      add\n        /* \"#utility.yul\":24948:24974   */\n      mload\n        /* \"#utility.yul\":24940:24946   */\n      dup3\n        /* \"#utility.yul\":24933:24975   */\n      sstore\n        /* \"#utility.yul\":25014:25015   */\n      0x01\n        /* \"#utility.yul\":25006:25012   */\n      dup3\n        /* \"#utility.yul\":25002:25016   */\n      add\n        /* \"#utility.yul\":24992:25016   */\n      swap2\n      pop\n        /* \"#utility.yul\":25061:25063   */\n      0x20\n        /* \"#utility.yul\":25050:25059   */\n      dup6\n        /* \"#utility.yul\":25046:25064   */\n      add\n        /* \"#utility.yul\":25033:25064   */\n      swap5\n      pop\n        /* \"#utility.yul\":24907:24911   */\n      0x20\n        /* \"#utility.yul\":24904:24905   */\n      dup2\n        /* \"#utility.yul\":24900:24912   */\n      add\n        /* \"#utility.yul\":24895:24912   */\n      swap1\n      pop\n        /* \"#utility.yul\":24870:25078   */\n      jump(tag_468)\n    tag_470:\n        /* \"#utility.yul\":25106:25112   */\n      dup7\n        /* \"#utility.yul\":25097:25104   */\n      dup4\n        /* \"#utility.yul\":25094:25113   */\n      lt\n        /* \"#utility.yul\":25091:25270   */\n      iszero\n      tag_471\n      jumpi\n        /* \"#utility.yul\":25164:25173   */\n      dup5\n        /* \"#utility.yul\":25159:25162   */\n      dup10\n        /* \"#utility.yul\":25155:25174   */\n      add\n        /* \"#utility.yul\":25149:25175   */\n      mload\n        /* \"#utility.yul\":25207:25255   */\n      tag_472\n        /* \"#utility.yul\":25249:25253   */\n      0x1f\n        /* \"#utility.yul\":25241:25247   */\n      dup10\n        /* \"#utility.yul\":25237:25254   */\n      and\n        /* \"#utility.yul\":25226:25235   */\n      dup3\n        /* \"#utility.yul\":25207:25255   */\n      tag_228\n      jump\t// in\n    tag_472:\n        /* \"#utility.yul\":25199:25205   */\n      dup4\n        /* \"#utility.yul\":25192:25256   */\n      sstore\n        /* \"#utility.yul\":25114:25270   */\n      pop\n        /* \"#utility.yul\":25091:25270   */\n    tag_471:\n        /* \"#utility.yul\":25316:25317   */\n      0x01\n        /* \"#utility.yul\":25312:25313   */\n      0x02\n        /* \"#utility.yul\":25304:25310   */\n      dup9\n        /* \"#utility.yul\":25300:25314   */\n      mul\n        /* \"#utility.yul\":25296:25318   */\n      add\n        /* \"#utility.yul\":25290:25294   */\n      dup9\n        /* \"#utility.yul\":25283:25319   */\n      sstore\n        /* \"#utility.yul\":24718:25329   */\n      pop\n      pop\n      pop\n        /* \"#utility.yul\":24681:25568   */\n    tag_463:\n      pop\n        /* \"#utility.yul\":24271:25574   */\n      pop\n      pop\n      pop\n        /* \"#utility.yul\":24179:25574   */\n      pop\n      pop\n      jump\t// out\n        /* \"#utility.yul\":25580:26315   */\n    tag_146:\n        /* \"#utility.yul\":25797:25801   */\n      0x00\n        /* \"#utility.yul\":25835:25838   */\n      0x80\n        /* \"#utility.yul\":25824:25833   */\n      dup3\n        /* \"#utility.yul\":25820:25839   */\n      add\n        /* \"#utility.yul\":25812:25839   */\n      swap1\n      pop\n        /* \"#utility.yul\":25885:25894   */\n      dup2\n        /* \"#utility.yul\":25879:25883   */\n      dup2\n        /* \"#utility.yul\":25875:25895   */\n      sub\n        /* \"#utility.yul\":25871:25872   */\n      0x00\n        /* \"#utility.yul\":25860:25869   */\n      dup4\n        /* \"#utility.yul\":25856:25873   */\n      add\n        /* \"#utility.yul\":25849:25896   */\n      mstore\n        /* \"#utility.yul\":25913:25991   */\n      tag_474\n        /* \"#utility.yul\":25986:25990   */\n      dup2\n        /* \"#utility.yul\":25977:25983   */\n      dup8\n        /* \"#utility.yul\":25913:25991   */\n      tag_178\n      jump\t// in\n    tag_474:\n        /* \"#utility.yul\":25905:25991   */\n      swap1\n      pop\n        /* \"#utility.yul\":26038:26047   */\n      dup2\n        /* \"#utility.yul\":26032:26036   */\n      dup2\n        /* \"#utility.yul\":26028:26048   */\n      sub\n        /* \"#utility.yul\":26023:26025   */\n      0x20\n        /* \"#utility.yul\":26012:26021   */\n      dup4\n        /* \"#utility.yul\":26008:26026   */\n      add\n        /* \"#utility.yul\":26001:26049   */\n      mstore\n        /* \"#utility.yul\":26066:26144   */\n      tag_475\n        /* \"#utility.yul\":26139:26143   */\n      dup2\n        /* \"#utility.yul\":26130:26136   */\n      dup7\n        /* \"#utility.yul\":26066:26144   */\n      tag_178\n      jump\t// in\n    tag_475:\n        /* \"#utility.yul\":26058:26144   */\n      swap1\n      pop\n        /* \"#utility.yul\":26154:26226   */\n      tag_476\n        /* \"#utility.yul\":26222:26224   */\n      0x40\n        /* \"#utility.yul\":26211:26220   */\n      dup4\n        /* \"#utility.yul\":26207:26225   */\n      add\n        /* \"#utility.yul\":26198:26204   */\n      dup6\n        /* \"#utility.yul\":26154:26226   */\n      tag_170\n      jump\t// in\n    tag_476:\n        /* \"#utility.yul\":26236:26308   */\n      tag_477\n        /* \"#utility.yul\":26304:26306   */\n      0x60\n        /* \"#utility.yul\":26293:26302   */\n      dup4\n        /* \"#utility.yul\":26289:26307   */\n      add\n        /* \"#utility.yul\":26280:26286   */\n      dup5\n        /* \"#utility.yul\":26236:26308   */\n      tag_170\n      jump\t// in\n    tag_477:\n        /* \"#utility.yul\":25580:26315   */\n      swap6\n      swap5\n      pop\n      pop\n      pop\n      pop\n      pop\n      jump\t// out\n        /* \"#utility.yul\":26321:26501   */\n    tag_153:\n        /* \"#utility.yul\":26369:26446   */\n      0x4e487b7100000000000000000000000000000000000000000000000000000000\n        /* \"#utility.yul\":26366:26367   */\n      0x00\n        /* \"#utility.yul\":26359:26447   */\n      mstore\n        /* \"#utility.yul\":26466:26470   */\n      0x32\n        /* \"#utility.yul\":26463:26464   */\n      0x04\n        /* \"#utility.yul\":26456:26471   */\n      mstore\n        /* \"#utility.yul\":26490:26494   */\n      0x24\n        /* \"#utility.yul\":26487:26488   */\n      0x00\n        /* \"#utility.yul\":26480:26495   */\n      revert\n\n    auxdata: 0xa26469706673582212205020c47921dd9ea7e92b328a6d66c543b24b18fcfb04297104fdaf1950e88bb464736f6c634300081a0033\n}\n",
				"bytecode": {
					"linkReferences": {},
					"object": "608060405234801561000f575f80fd5b50604051611e95380380611e9583398181016040528101906100319190610114565b335f806101000a81548173ffffffffffffffffffffffffffffffffffffffff021916908373ffffffffffffffffffffffffffffffffffffffff1602179055508060045f6101000a81548173ffffffffffffffffffffffffffffffffffffffff021916908373ffffffffffffffffffffffffffffffffffffffff1602179055505061013f565b5f80fd5b5f73ffffffffffffffffffffffffffffffffffffffff82169050919050565b5f6100e3826100ba565b9050919050565b6100f3816100d9565b81146100fd575f80fd5b50565b5f8151905061010e816100ea565b92915050565b5f60208284031215610129576101286100b6565b5b5f61013684828501610100565b91505092915050565b611d498061014c5f395ff3fe6080604052600436106100a5575f3560e01c80636c563abe116100635780636c563abe146101c75780637b12376e146101e3578063b1357b681461021f578063f81bf6011461023b578063fa1d4d2d14610263578063fb83a4ad1461028d576100a5565b80629a0b30146100a95780630bca5da0146100c5578063107046bd146100ef5780633d891f5914610133578063592cef6d1461016f57806366b485411461018b575b5f80fd5b6100c360048036038101906100be9190610f65565b6102b7565b005b3480156100d0575f80fd5b506100d96103e3565b6040516100e69190610fb2565b60405180910390f35b3480156100fa575f80fd5b5061011560048036038101906101109190610fcb565b6103e9565b60405161012a999897969594939291906110bf565b60405180910390f35b34801561013e575f80fd5b5061015960048036038101906101549190611182565b610589565b6040516101669190610fb2565b60405180910390f35b61018960048036038101906101849190610fcb565b6105a9565b005b348015610196575f80fd5b506101b160048036038101906101ac91906111c0565b6106a0565b6040516101be9190610fb2565b60405180910390f35b6101e160048036038101906101dc9190610fcb565b6106b5565b005b3480156101ee575f80fd5b5061020960048036038101906102049190610fcb565b61098f565b60405161021691906111eb565b60405180910390f35b61023960048036038101906102349190610fcb565b6109ac565b005b348015610246575f80fd5b50610261600480360381019061025c9190611330565b610b38565b005b34801561026e575f80fd5b50610277610e40565b6040516102849190610fb2565b60405180910390f35b348015610298575f80fd5b506102a1610f1b565b6040516102ae9190610fb2565b60405180910390f35b5f60065f8481526020019081526020015f2090503373ffffffffffffffffffffffffffffffffffffffff16815f015f9054906101000a900473ffffffffffffffffffffffffffffffffffffffff1673ffffffffffffffffffffffffffffffffffffffff161461035b576040517f08c379a00000000000000000000000000000000000000000000000000000000081526004016103529061144f565b60405180910390fd5b42821161039d576040517f08c379a0000000000000000000000000000000000000000000000000000000008152600401610394906114b7565b60405180910390fd5b818160060181905550827f2fba265f9d4a4bc970a1af6317b54b90c79b59d385d463fc3c85c37abc072495836040516103d69190610fb2565b60405180910390a2505050565b60025481565b6006602052805f5260405f205f91509050805f015f9054906101000a900473ffffffffffffffffffffffffffffffffffffffff169080600101805461042d90611502565b80601f016020809104026020016040519081016040528092919081815260200182805461045990611502565b80156104a45780601f1061047b576101008083540402835291602001916104a4565b820191905f5260205f20905b81548152906001019060200180831161048757829003601f168201915b5050505050908060020180546104b990611502565b80601f01602080910402602001604051908101604052809291908181526020018280546104e590611502565b80156105305780601f1061050757610100808354040283529160200191610530565b820191905f5260205f20905b81548152906001019060200180831161051357829003601f168201915b505050505090806003015f9054906101000a900473ffffffffffffffffffffffffffffffffffffffff1690806004015490806005015490806006015490806007015490806008015f9054906101000a900460ff16905089565b6007602052815f5260405f20602052805f5260405f205f91509150505481565b5f60065f8381526020019081526020015f2090508060050154816007015410610607576040517f08c379a00000000000000000000000000000000000000000000000000000000081526004016105fe906115a2565b60405180910390fd5b5f60075f8481526020019081526020015f205f3373ffffffffffffffffffffffffffffffffffffffff1673ffffffffffffffffffffffffffffffffffffffff1681526020019081526020015f205490503373ffffffffffffffffffffffffffffffffffffffff166108fc8290811502906040515f60405180830381858888f1935050505015801561069a573d5f803e3d5ffd5b50505050565b6005602052805f5260405f205f915090505481565b5f60065f8381526020019081526020015f2090508060060154421115610710576040517f08c379a000000000000000000000000000000000000000000000000000000000815260040161070790611630565b60405180910390fd5b806008015f9054906101000a900460ff1615610761576040517f08c379a000000000000000000000000000000000000000000000000000000000815260040161075890611698565b60405180910390fd5b5f34116107a3576040517f08c379a000000000000000000000000000000000000000000000000000000000815260040161079a90611700565b60405180910390fd5b80600401543411156107fb5734816004018190555033816003015f6101000a81548173ffffffffffffffffffffffffffffffffffffffff021916908373ffffffffffffffffffffffffffffffffffffffff1602179055505b6064605f3461080a919061174b565b61081491906117b9565b816007015461082391906117e9565b816007018190555060045f9054906101000a900473ffffffffffffffffffffffffffffffffffffffff1673ffffffffffffffffffffffffffffffffffffffff166108fc6064600534610875919061174b565b61087f91906117b9565b90811502906040515f60405180830381858888f193505050501580156108a7573d5f803e3d5ffd5b503460075f8481526020019081526020015f205f3373ffffffffffffffffffffffffffffffffffffffff1673ffffffffffffffffffffffffffffffffffffffff1681526020019081526020015f20819055503373ffffffffffffffffffffffffffffffffffffffff16827f6251418ffd7f504740544ec3d578897633e212c5d658b7dce793c5dc9d2e855e346040516109409190610fb2565b60405180910390a3806005015481600701541061098b576001816008015f6101000a81548160ff02191690831515021790555060025f8154809291906109859061181c565b91905055505b5050565b6008602052805f5260405f205f915054906101000a900460ff1681565b5f60065f8381526020019081526020015f2090505f81600701549050816008015f9054906101000a900460ff16610a18576040517f08c379a0000000000000000000000000000000000000000000000000000000008152600401610a0f906118ad565b60405180910390fd5b3373ffffffffffffffffffffffffffffffffffffffff16825f015f9054906101000a900473ffffffffffffffffffffffffffffffffffffffff1673ffffffffffffffffffffffffffffffffffffffff1614610aa8576040517f08c379a0000000000000000000000000000000000000000000000000000000008152600401610a9f90611915565b60405180910390fd5b4282600601541115610aef576040517f08c379a0000000000000000000000000000000000000000000000000000000008152600401610ae6906119a3565b60405180910390fd5b3373ffffffffffffffffffffffffffffffffffffffff166108fc8290811502906040515f60405180830381858888f19350505050158015610b32573d5f803e3d5ffd5b50505050565b60085f8281526020019081526020015f205f9054906101000a900460ff1615610b96576040517f08c379a0000000000000000000000000000000000000000000000000000000008152600401610b8d90611a0b565b60405180910390fd5b600160085f8381526020019081526020015f205f6101000a81548160ff0219169083151502179055506040518061012001604052803373ffffffffffffffffffffffffffffffffffffffff1681526020018681526020018581526020013373ffffffffffffffffffffffffffffffffffffffff1681526020015f81526020018481526020018342610c2791906117e9565b81526020015f81526020015f151581525060065f8381526020019081526020015f205f820151815f015f6101000a81548173ffffffffffffffffffffffffffffffffffffffff021916908373ffffffffffffffffffffffffffffffffffffffff1602179055506020820151816001019081610ca29190611bc6565b506040820151816002019081610cb89190611bc6565b506060820151816003015f6101000a81548173ffffffffffffffffffffffffffffffffffffffff021916908373ffffffffffffffffffffffffffffffffffffffff1602179055506080820151816004015560a0820151816005015560c0820151816006015560e08201518160070155610100820151816008015f6101000a81548160ff021916908315150217905550905050600381908060018154018082558091505060019003905f5260205f20015f909190919091505560015f815480929190610d829061181c565b919050555060055f3373ffffffffffffffffffffffffffffffffffffffff1673ffffffffffffffffffffffffffffffffffffffff1681526020019081526020015f205f815480929190610dd49061181c565b91905055503373ffffffffffffffffffffffffffffffffffffffff16817fac9b83534845c9e785a6ea70f2d809db1d72ef9a1d981753712d922f5cb55f398787878742610e2191906117e9565b604051610e319493929190611c95565b60405180910390a35050505050565b5f805f90505f5b600380549050811015610f135760065f60038381548110610e6b57610e6a611ce6565b5b905f5260205f20015481526020019081526020015f206006015442118015610ef2575060065f60038381548110610ea557610ea4611ce6565b5b905f5260205f20015481526020019081526020015f206005015460065f60038481548110610ed657610ed5611ce6565b5b905f5260205f20015481526020019081526020015f2060070154105b15610f06578180610f029061181c565b9250505b8080600101915050610e47565b508091505090565b60015481565b5f604051905090565b5f80fd5b5f80fd5b5f819050919050565b610f4481610f32565b8114610f4e575f80fd5b50565b5f81359050610f5f81610f3b565b92915050565b5f8060408385031215610f7b57610f7a610f2a565b5b5f610f8885828601610f51565b9250506020610f9985828601610f51565b9150509250929050565b610fac81610f32565b82525050565b5f602082019050610fc55f830184610fa3565b92915050565b5f60208284031215610fe057610fdf610f2a565b5b5f610fed84828501610f51565b91505092915050565b5f73ffffffffffffffffffffffffffffffffffffffff82169050919050565b5f61101f82610ff6565b9050919050565b61102f81611015565b82525050565b5f81519050919050565b5f82825260208201905092915050565b8281835e5f83830152505050565b5f601f19601f8301169050919050565b5f61107782611035565b611081818561103f565b935061109181856020860161104f565b61109a8161105d565b840191505092915050565b5f8115159050919050565b6110b9816110a5565b82525050565b5f610120820190506110d35f83018c611026565b81810360208301526110e5818b61106d565b905081810360408301526110f9818a61106d565b90506111086060830189611026565b6111156080830188610fa3565b61112260a0830187610fa3565b61112f60c0830186610fa3565b61113c60e0830185610fa3565b61114a6101008301846110b0565b9a9950505050505050505050565b61116181611015565b811461116b575f80fd5b50565b5f8135905061117c81611158565b92915050565b5f806040838503121561119857611197610f2a565b5b5f6111a585828601610f51565b92505060206111b68582860161116e565b9150509250929050565b5f602082840312156111d5576111d4610f2a565b5b5f6111e28482850161116e565b91505092915050565b5f6020820190506111fe5f8301846110b0565b92915050565b5f80fd5b5f80fd5b7f4e487b71000000000000000000000000000000000000000000000000000000005f52604160045260245ffd5b6112428261105d565b810181811067ffffffffffffffff821117156112615761126061120c565b5b80604052505050565b5f611273610f21565b905061127f8282611239565b919050565b5f67ffffffffffffffff82111561129e5761129d61120c565b5b6112a78261105d565b9050602081019050919050565b828183375f83830152505050565b5f6112d46112cf84611284565b61126a565b9050828152602081018484840111156112f0576112ef611208565b5b6112fb8482856112b4565b509392505050565b5f82601f83011261131757611316611204565b5b81356113278482602086016112c2565b91505092915050565b5f805f805f60a0868803121561134957611348610f2a565b5b5f86013567ffffffffffffffff81111561136657611365610f2e565b5b61137288828901611303565b955050602086013567ffffffffffffffff81111561139357611392610f2e565b5b61139f88828901611303565b94505060406113b088828901610f51565b93505060606113c188828901610f51565b92505060806113d288828901610f51565b9150509295509295909350565b7f4f6e6c792043726561746f722063616e204368616e67652074686520446561645f8201527f6c696e6500000000000000000000000000000000000000000000000000000000602082015250565b5f61143960248361103f565b9150611444826113df565b604082019050919050565b5f6020820190508181035f8301526114668161142d565b9050919050565b7f446561646c696e6520697320616c7265616479207061737365642e00000000005f82015250565b5f6114a1601b8361103f565b91506114ac8261146d565b602082019050919050565b5f6020820190508181035f8301526114ce81611495565b9050919050565b7f4e487b71000000000000000000000000000000000000000000000000000000005f52602260045260245ffd5b5f600282049050600182168061151957607f821691505b60208210810361152c5761152b6114d5565b5b50919050565b7f46756e64696e6720676f616c2069732072656163686564202c207573657220635f8201527f616e742077697468647261770000000000000000000000000000000000000000602082015250565b5f61158c602c8361103f565b915061159782611532565b604082019050919050565b5f6020820190508181035f8301526115b981611580565b9050919050565b7f50726f6a65637420646561646c696e6520697320616c726561647920706173735f8201527f65642e0000000000000000000000000000000000000000000000000000000000602082015250565b5f61161a60238361103f565b9150611625826115c0565b604082019050919050565b5f6020820190508181035f8301526116478161160e565b9050919050565b7f50726f6a65637420697320616c72656164792066756e646564000000000000005f82015250565b5f61168260198361103f565b915061168d8261164e565b602082019050919050565b5f6020820190508181035f8301526116af81611676565b9050919050565b7f4d7573742073656e7420736f6d652076616c7565206f662065746865722e00005f82015250565b5f6116ea601e8361103f565b91506116f5826116b6565b602082019050919050565b5f6020820190508181035f830152611717816116de565b9050919050565b7f4e487b71000000000000000000000000000000000000000000000000000000005f52601160045260245ffd5b5f61175582610f32565b915061176083610f32565b925082820261176e81610f32565b915082820484148315176117855761178461171e565b5b5092915050565b7f4e487b71000000000000000000000000000000000000000000000000000000005f52601260045260245ffd5b5f6117c382610f32565b91506117ce83610f32565b9250826117de576117dd61178c565b5b828204905092915050565b5f6117f382610f32565b91506117fe83610f32565b92508282019050808211156118165761181561171e565b5b92915050565b5f61182682610f32565b91507fffffffffffffffffffffffffffffffffffffffffffffffffffffffffffffffff82036118585761185761171e565b5b600182019050919050565b7f46756e64696e67206973206e6f742073756666696369656e74000000000000005f82015250565b5f61189760198361103f565b91506118a282611863565b602082019050919050565b5f6020820190508181035f8301526118c48161188b565b9050919050565b7f4f6e6c792070726f6a6563742061646d696e2063616e207769746873726177005f82015250565b5f6118ff601f8361103f565b915061190a826118cb565b602082019050919050565b5f6020820190508181035f83015261192c816118f3565b9050919050565b7f446561646c696e6520666f722070726f6a656374206973206e6f7420726561635f8201527f6865640000000000000000000000000000000000000000000000000000000000602082015250565b5f61198d60238361103f565b915061199882611933565b604082019050919050565b5f6020820190508181035f8301526119ba81611981565b9050919050565b7f50726f6a65637420496420697320616c726561647920757365640000000000005f82015250565b5f6119f5601a8361103f565b9150611a00826119c1565b602082019050919050565b5f6020820190508181035f830152611a22816119e9565b9050919050565b5f819050815f5260205f209050919050565b5f6020601f8301049050919050565b5f82821b905092915050565b5f60088302611a857fffffffffffffffffffffffffffffffffffffffffffffffffffffffffffffffff82611a4a565b611a8f8683611a4a565b95508019841693508086168417925050509392505050565b5f819050919050565b5f611aca611ac5611ac084610f32565b611aa7565b610f32565b9050919050565b5f819050919050565b611ae383611ab0565b611af7611aef82611ad1565b848454611a56565b825550505050565b5f90565b611b0b611aff565b611b16818484611ada565b505050565b5b81811015611b3957611b2e5f82611b03565b600181019050611b1c565b5050565b601f821115611b7e57611b4f81611a29565b611b5884611a3b565b81016020851015611b67578190505b611b7b611b7385611a3b565b830182611b1b565b50505b505050565b5f82821c905092915050565b5f611b9e5f1984600802611b83565b1980831691505092915050565b5f611bb68383611b8f565b9150826002028217905092915050565b611bcf82611035565b67ffffffffffffffff811115611be857611be761120c565b5b611bf28254611502565b611bfd828285611b3d565b5f60209050601f831160018114611c2e575f8415611c1c578287015190505b611c268582611bab565b865550611c8d565b601f198416611c3c86611a29565b5f5b82811015611c6357848901518255600182019150602085019450602081019050611c3e565b86831015611c805784890151611c7c601f891682611b8f565b8355505b6001600288020188555050505b505050505050565b5f6080820190508181035f830152611cad818761106d565b90508181036020830152611cc1818661106d565b9050611cd06040830185610fa3565b611cdd6060830184610fa3565b95945050505050565b7f4e487b71000000000000000000000000000000000000000000000000000000005f52603260045260245ffdfea26469706673582212205020c47921dd9ea7e92b328a6d66c543b24b18fcfb04297104fdaf1950e88bb464736f6c634300081a0033",
					"opcodes": "PUSH1 0x80 PUSH1 0x40 MSTORE CALLVALUE DUP1 ISZERO PUSH2 0xF JUMPI PUSH0 DUP1 REVERT JUMPDEST POP PUSH1 0x40 MLOAD PUSH2 0x1E95 CODESIZE SUB DUP1 PUSH2 0x1E95 DUP4 CODECOPY DUP2 DUP2 ADD PUSH1 0x40 MSTORE DUP2 ADD SWAP1 PUSH2 0x31 SWAP2 SWAP1 PUSH2 0x114 JUMP JUMPDEST CALLER PUSH0 DUP1 PUSH2 0x100 EXP DUP2 SLOAD DUP2 PUSH20 0xFFFFFFFFFFFFFFFFFFFFFFFFFFFFFFFFFFFFFFFF MUL NOT AND SWAP1 DUP4 PUSH20 0xFFFFFFFFFFFFFFFFFFFFFFFFFFFFFFFFFFFFFFFF AND MUL OR SWAP1 SSTORE POP DUP1 PUSH1 0x4 PUSH0 PUSH2 0x100 EXP DUP2 SLOAD DUP2 PUSH20 0xFFFFFFFFFFFFFFFFFFFFFFFFFFFFFFFFFFFFFFFF MUL NOT AND SWAP1 DUP4 PUSH20 0xFFFFFFFFFFFFFFFFFFFFFFFFFFFFFFFFFFFFFFFF AND MUL OR SWAP1 SSTORE POP POP PUSH2 0x13F JUMP JUMPDEST PUSH0 DUP1 REVERT JUMPDEST PUSH0 PUSH20 0xFFFFFFFFFFFFFFFFFFFFFFFFFFFFFFFFFFFFFFFF DUP3 AND SWAP1 POP SWAP2 SWAP1 POP JUMP JUMPDEST PUSH0 PUSH2 0xE3 DUP3 PUSH2 0xBA JUMP JUMPDEST SWAP1 POP SWAP2 SWAP1 POP JUMP JUMPDEST PUSH2 0xF3 DUP2 PUSH2 0xD9 JUMP JUMPDEST DUP2 EQ PUSH2 0xFD JUMPI PUSH0 DUP1 REVERT JUMPDEST POP JUMP JUMPDEST PUSH0 DUP2 MLOAD SWAP1 POP PUSH2 0x10E DUP2 PUSH2 0xEA JUMP JUMPDEST SWAP3 SWAP2 POP POP JUMP JUMPDEST PUSH0 PUSH1 0x20 DUP3 DUP5 SUB SLT ISZERO PUSH2 0x129 JUMPI PUSH2 0x128 PUSH2 0xB6 JUMP JUMPDEST JUMPDEST PUSH0 PUSH2 0x136 DUP5 DUP3 DUP6 ADD PUSH2 0x100 JUMP JUMPDEST SWAP2 POP POP SWAP3 SWAP2 POP POP JUMP JUMPDEST PUSH2 0x1D49 DUP1 PUSH2 0x14C PUSH0 CODECOPY PUSH0 RETURN INVALID PUSH1 0x80 PUSH1 0x40 MSTORE PUSH1 0x4 CALLDATASIZE LT PUSH2 0xA5 JUMPI PUSH0 CALLDATALOAD PUSH1 0xE0 SHR DUP1 PUSH4 0x6C563ABE GT PUSH2 0x63 JUMPI DUP1 PUSH4 0x6C563ABE EQ PUSH2 0x1C7 JUMPI DUP1 PUSH4 0x7B12376E EQ PUSH2 0x1E3 JUMPI DUP1 PUSH4 0xB1357B68 EQ PUSH2 0x21F JUMPI DUP1 PUSH4 0xF81BF601 EQ PUSH2 0x23B JUMPI DUP1 PUSH4 0xFA1D4D2D EQ PUSH2 0x263 JUMPI DUP1 PUSH4 0xFB83A4AD EQ PUSH2 0x28D JUMPI PUSH2 0xA5 JUMP JUMPDEST DUP1 PUSH3 0x9A0B30 EQ PUSH2 0xA9 JUMPI DUP1 PUSH4 0xBCA5DA0 EQ PUSH2 0xC5 JUMPI DUP1 PUSH4 0x107046BD EQ PUSH2 0xEF JUMPI DUP1 PUSH4 0x3D891F59 EQ PUSH2 0x133 JUMPI DUP1 PUSH4 0x592CEF6D EQ PUSH2 0x16F JUMPI DUP1 PUSH4 0x66B48541 EQ PUSH2 0x18B JUMPI JUMPDEST PUSH0 DUP1 REVERT JUMPDEST PUSH2 0xC3 PUSH1 0x4 DUP1 CALLDATASIZE SUB DUP2 ADD SWAP1 PUSH2 0xBE SWAP2 SWAP1 PUSH2 0xF65 JUMP JUMPDEST PUSH2 0x2B7 JUMP JUMPDEST STOP JUMPDEST CALLVALUE DUP1 ISZERO PUSH2 0xD0 JUMPI PUSH0 DUP1 REVERT JUMPDEST POP PUSH2 0xD9 PUSH2 0x3E3 JUMP JUMPDEST PUSH1 0x40 MLOAD PUSH2 0xE6 SWAP2 SWAP1 PUSH2 0xFB2 JUMP JUMPDEST PUSH1 0x40 MLOAD DUP1 SWAP2 SUB SWAP1 RETURN JUMPDEST CALLVALUE DUP1 ISZERO PUSH2 0xFA JUMPI PUSH0 DUP1 REVERT JUMPDEST POP PUSH2 0x115 PUSH1 0x4 DUP1 CALLDATASIZE SUB DUP2 ADD SWAP1 PUSH2 0x110 SWAP2 SWAP1 PUSH2 0xFCB JUMP JUMPDEST PUSH2 0x3E9 JUMP JUMPDEST PUSH1 0x40 MLOAD PUSH2 0x12A SWAP10 SWAP9 SWAP8 SWAP7 SWAP6 SWAP5 SWAP4 SWAP3 SWAP2 SWAP1 PUSH2 0x10BF JUMP JUMPDEST PUSH1 0x40 MLOAD DUP1 SWAP2 SUB SWAP1 RETURN JUMPDEST CALLVALUE DUP1 ISZERO PUSH2 0x13E JUMPI PUSH0 DUP1 REVERT JUMPDEST POP PUSH2 0x159 PUSH1 0x4 DUP1 CALLDATASIZE SUB DUP2 ADD SWAP1 PUSH2 0x154 SWAP2 SWAP1 PUSH2 0x1182 JUMP JUMPDEST PUSH2 0x589 JUMP JUMPDEST PUSH1 0x40 MLOAD PUSH2 0x166 SWAP2 SWAP1 PUSH2 0xFB2 JUMP JUMPDEST PUSH1 0x40 MLOAD DUP1 SWAP2 SUB SWAP1 RETURN JUMPDEST PUSH2 0x189 PUSH1 0x4 DUP1 CALLDATASIZE SUB DUP2 ADD SWAP1 PUSH2 0x184 SWAP2 SWAP1 PUSH2 0xFCB JUMP JUMPDEST PUSH2 0x5A9 JUMP JUMPDEST STOP JUMPDEST CALLVALUE DUP1 ISZERO PUSH2 0x196 JUMPI PUSH0 DUP1 REVERT JUMPDEST POP PUSH2 0x1B1 PUSH1 0x4 DUP1 CALLDATASIZE SUB DUP2 ADD SWAP1 PUSH2 0x1AC SWAP2 SWAP1 PUSH2 0x11C0 JUMP JUMPDEST PUSH2 0x6A0 JUMP JUMPDEST PUSH1 0x40 MLOAD PUSH2 0x1BE SWAP2 SWAP1 PUSH2 0xFB2 JUMP JUMPDEST PUSH1 0x40 MLOAD DUP1 SWAP2 SUB SWAP1 RETURN JUMPDEST PUSH2 0x1E1 PUSH1 0x4 DUP1 CALLDATASIZE SUB DUP2 ADD SWAP1 PUSH2 0x1DC SWAP2 SWAP1 PUSH2 0xFCB JUMP JUMPDEST PUSH2 0x6B5 JUMP JUMPDEST STOP JUMPDEST CALLVALUE DUP1 ISZERO PUSH2 0x1EE JUMPI PUSH0 DUP1 REVERT JUMPDEST POP PUSH2 0x209 PUSH1 0x4 DUP1 CALLDATASIZE SUB DUP2 ADD SWAP1 PUSH2 0x204 SWAP2 SWAP1 PUSH2 0xFCB JUMP JUMPDEST PUSH2 0x98F JUMP JUMPDEST PUSH1 0x40 MLOAD PUSH2 0x216 SWAP2 SWAP1 PUSH2 0x11EB JUMP JUMPDEST PUSH1 0x40 MLOAD DUP1 SWAP2 SUB SWAP1 RETURN JUMPDEST PUSH2 0x239 PUSH1 0x4 DUP1 CALLDATASIZE SUB DUP2 ADD SWAP1 PUSH2 0x234 SWAP2 SWAP1 PUSH2 0xFCB JUMP JUMPDEST PUSH2 0x9AC JUMP JUMPDEST STOP JUMPDEST CALLVALUE DUP1 ISZERO PUSH2 0x246 JUMPI PUSH0 DUP1 REVERT JUMPDEST POP PUSH2 0x261 PUSH1 0x4 DUP1 CALLDATASIZE SUB DUP2 ADD SWAP1 PUSH2 0x25C SWAP2 SWAP1 PUSH2 0x1330 JUMP JUMPDEST PUSH2 0xB38 JUMP JUMPDEST STOP JUMPDEST CALLVALUE DUP1 ISZERO PUSH2 0x26E JUMPI PUSH0 DUP1 REVERT JUMPDEST POP PUSH2 0x277 PUSH2 0xE40 JUMP JUMPDEST PUSH1 0x40 MLOAD PUSH2 0x284 SWAP2 SWAP1 PUSH2 0xFB2 JUMP JUMPDEST PUSH1 0x40 MLOAD DUP1 SWAP2 SUB SWAP1 RETURN JUMPDEST CALLVALUE DUP1 ISZERO PUSH2 0x298 JUMPI PUSH0 DUP1 REVERT JUMPDEST POP PUSH2 0x2A1 PUSH2 0xF1B JUMP JUMPDEST PUSH1 0x40 MLOAD PUSH2 0x2AE SWAP2 SWAP1 PUSH2 0xFB2 JUMP JUMPDEST PUSH1 0x40 MLOAD DUP1 SWAP2 SUB SWAP1 RETURN JUMPDEST PUSH0 PUSH1 0x6 PUSH0 DUP5 DUP2 MSTORE PUSH1 0x20 ADD SWAP1 DUP2 MSTORE PUSH1 0x20 ADD PUSH0 KECCAK256 SWAP1 POP CALLER PUSH20 0xFFFFFFFFFFFFFFFFFFFFFFFFFFFFFFFFFFFFFFFF AND DUP2 PUSH0 ADD PUSH0 SWAP1 SLOAD SWAP1 PUSH2 0x100 EXP SWAP1 DIV PUSH20 0xFFFFFFFFFFFFFFFFFFFFFFFFFFFFFFFFFFFFFFFF AND PUSH20 0xFFFFFFFFFFFFFFFFFFFFFFFFFFFFFFFFFFFFFFFF AND EQ PUSH2 0x35B JUMPI PUSH1 0x40 MLOAD PUSH32 0x8C379A000000000000000000000000000000000000000000000000000000000 DUP2 MSTORE PUSH1 0x4 ADD PUSH2 0x352 SWAP1 PUSH2 0x144F JUMP JUMPDEST PUSH1 0x40 MLOAD DUP1 SWAP2 SUB SWAP1 REVERT JUMPDEST TIMESTAMP DUP3 GT PUSH2 0x39D JUMPI PUSH1 0x40 MLOAD PUSH32 0x8C379A000000000000000000000000000000000000000000000000000000000 DUP2 MSTORE PUSH1 0x4 ADD PUSH2 0x394 SWAP1 PUSH2 0x14B7 JUMP JUMPDEST PUSH1 0x40 MLOAD DUP1 SWAP2 SUB SWAP1 REVERT JUMPDEST DUP2 DUP2 PUSH1 0x6 ADD DUP2 SWAP1 SSTORE POP DUP3 PUSH32 0x2FBA265F9D4A4BC970A1AF6317B54B90C79B59D385D463FC3C85C37ABC072495 DUP4 PUSH1 0x40 MLOAD PUSH2 0x3D6 SWAP2 SWAP1 PUSH2 0xFB2 JUMP JUMPDEST PUSH1 0x40 MLOAD DUP1 SWAP2 SUB SWAP1 LOG2 POP POP POP JUMP JUMPDEST PUSH1 0x2 SLOAD DUP2 JUMP JUMPDEST PUSH1 0x6 PUSH1 0x20 MSTORE DUP1 PUSH0 MSTORE PUSH1 0x40 PUSH0 KECCAK256 PUSH0 SWAP2 POP SWAP1 POP DUP1 PUSH0 ADD PUSH0 SWAP1 SLOAD SWAP1 PUSH2 0x100 EXP SWAP1 DIV PUSH20 0xFFFFFFFFFFFFFFFFFFFFFFFFFFFFFFFFFFFFFFFF AND SWAP1 DUP1 PUSH1 0x1 ADD DUP1 SLOAD PUSH2 0x42D SWAP1 PUSH2 0x1502 JUMP JUMPDEST DUP1 PUSH1 0x1F ADD PUSH1 0x20 DUP1 SWAP2 DIV MUL PUSH1 0x20 ADD PUSH1 0x40 MLOAD SWAP1 DUP2 ADD PUSH1 0x40 MSTORE DUP1 SWAP3 SWAP2 SWAP1 DUP2 DUP2 MSTORE PUSH1 0x20 ADD DUP3 DUP1 SLOAD PUSH2 0x459 SWAP1 PUSH2 0x1502 JUMP JUMPDEST DUP1 ISZERO PUSH2 0x4A4 JUMPI DUP1 PUSH1 0x1F LT PUSH2 0x47B JUMPI PUSH2 0x100 DUP1 DUP4 SLOAD DIV MUL DUP4 MSTORE SWAP2 PUSH1 0x20 ADD SWAP2 PUSH2 0x4A4 JUMP JUMPDEST DUP3 ADD SWAP2 SWAP1 PUSH0 MSTORE PUSH1 0x20 PUSH0 KECCAK256 SWAP1 JUMPDEST DUP2 SLOAD DUP2 MSTORE SWAP1 PUSH1 0x1 ADD SWAP1 PUSH1 0x20 ADD DUP1 DUP4 GT PUSH2 0x487 JUMPI DUP3 SWAP1 SUB PUSH1 0x1F AND DUP3 ADD SWAP2 JUMPDEST POP POP POP POP POP SWAP1 DUP1 PUSH1 0x2 ADD DUP1 SLOAD PUSH2 0x4B9 SWAP1 PUSH2 0x1502 JUMP JUMPDEST DUP1 PUSH1 0x1F ADD PUSH1 0x20 DUP1 SWAP2 DIV MUL PUSH1 0x20 ADD PUSH1 0x40 MLOAD SWAP1 DUP2 ADD PUSH1 0x40 MSTORE DUP1 SWAP3 SWAP2 SWAP1 DUP2 DUP2 MSTORE PUSH1 0x20 ADD DUP3 DUP1 SLOAD PUSH2 0x4E5 SWAP1 PUSH2 0x1502 JUMP JUMPDEST DUP1 ISZERO PUSH2 0x530 JUMPI DUP1 PUSH1 0x1F LT PUSH2 0x507 JUMPI PUSH2 0x100 DUP1 DUP4 SLOAD DIV MUL DUP4 MSTORE SWAP2 PUSH1 0x20 ADD SWAP2 PUSH2 0x530 JUMP JUMPDEST DUP3 ADD SWAP2 SWAP1 PUSH0 MSTORE PUSH1 0x20 PUSH0 KECCAK256 SWAP1 JUMPDEST DUP2 SLOAD DUP2 MSTORE SWAP1 PUSH1 0x1 ADD SWAP1 PUSH1 0x20 ADD DUP1 DUP4 GT PUSH2 0x513 JUMPI DUP3 SWAP1 SUB PUSH1 0x1F AND DUP3 ADD SWAP2 JUMPDEST POP POP POP POP POP SWAP1 DUP1 PUSH1 0x3 ADD PUSH0 SWAP1 SLOAD SWAP1 PUSH2 0x100 EXP SWAP1 DIV PUSH20 0xFFFFFFFFFFFFFFFFFFFFFFFFFFFFFFFFFFFFFFFF AND SWAP1 DUP1 PUSH1 0x4 ADD SLOAD SWAP1 DUP1 PUSH1 0x5 ADD SLOAD SWAP1 DUP1 PUSH1 0x6 ADD SLOAD SWAP1 DUP1 PUSH1 0x7 ADD SLOAD SWAP1 DUP1 PUSH1 0x8 ADD PUSH0 SWAP1 SLOAD SWAP1 PUSH2 0x100 EXP SWAP1 DIV PUSH1 0xFF AND SWAP1 POP DUP10 JUMP JUMPDEST PUSH1 0x7 PUSH1 0x20 MSTORE DUP2 PUSH0 MSTORE PUSH1 0x40 PUSH0 KECCAK256 PUSH1 0x20 MSTORE DUP1 PUSH0 MSTORE PUSH1 0x40 PUSH0 KECCAK256 PUSH0 SWAP2 POP SWAP2 POP POP SLOAD DUP2 JUMP JUMPDEST PUSH0 PUSH1 0x6 PUSH0 DUP4 DUP2 MSTORE PUSH1 0x20 ADD SWAP1 DUP2 MSTORE PUSH1 0x20 ADD PUSH0 KECCAK256 SWAP1 POP DUP1 PUSH1 0x5 ADD SLOAD DUP2 PUSH1 0x7 ADD SLOAD LT PUSH2 0x607 JUMPI PUSH1 0x40 MLOAD PUSH32 0x8C379A000000000000000000000000000000000000000000000000000000000 DUP2 MSTORE PUSH1 0x4 ADD PUSH2 0x5FE SWAP1 PUSH2 0x15A2 JUMP JUMPDEST PUSH1 0x40 MLOAD DUP1 SWAP2 SUB SWAP1 REVERT JUMPDEST PUSH0 PUSH1 0x7 PUSH0 DUP5 DUP2 MSTORE PUSH1 0x20 ADD SWAP1 DUP2 MSTORE PUSH1 0x20 ADD PUSH0 KECCAK256 PUSH0 CALLER PUSH20 0xFFFFFFFFFFFFFFFFFFFFFFFFFFFFFFFFFFFFFFFF AND PUSH20 0xFFFFFFFFFFFFFFFFFFFFFFFFFFFFFFFFFFFFFFFF AND DUP2 MSTORE PUSH1 0x20 ADD SWAP1 DUP2 MSTORE PUSH1 0x20 ADD PUSH0 KECCAK256 SLOAD SWAP1 POP CALLER PUSH20 0xFFFFFFFFFFFFFFFFFFFFFFFFFFFFFFFFFFFFFFFF AND PUSH2 0x8FC DUP3 SWAP1 DUP2 ISZERO MUL SWAP1 PUSH1 0x40 MLOAD PUSH0 PUSH1 0x40 MLOAD DUP1 DUP4 SUB DUP2 DUP6 DUP9 DUP9 CALL SWAP4 POP POP POP POP ISZERO DUP1 ISZERO PUSH2 0x69A JUMPI RETURNDATASIZE PUSH0 DUP1 RETURNDATACOPY RETURNDATASIZE PUSH0 REVERT JUMPDEST POP POP POP POP JUMP JUMPDEST PUSH1 0x5 PUSH1 0x20 MSTORE DUP1 PUSH0 MSTORE PUSH1 0x40 PUSH0 KECCAK256 PUSH0 SWAP2 POP SWAP1 POP SLOAD DUP2 JUMP JUMPDEST PUSH0 PUSH1 0x6 PUSH0 DUP4 DUP2 MSTORE PUSH1 0x20 ADD SWAP1 DUP2 MSTORE PUSH1 0x20 ADD PUSH0 KECCAK256 SWAP1 POP DUP1 PUSH1 0x6 ADD SLOAD TIMESTAMP GT ISZERO PUSH2 0x710 JUMPI PUSH1 0x40 MLOAD PUSH32 0x8C379A000000000000000000000000000000000000000000000000000000000 DUP2 MSTORE PUSH1 0x4 ADD PUSH2 0x707 SWAP1 PUSH2 0x1630 JUMP JUMPDEST PUSH1 0x40 MLOAD DUP1 SWAP2 SUB SWAP1 REVERT JUMPDEST DUP1 PUSH1 0x8 ADD PUSH0 SWAP1 SLOAD SWAP1 PUSH2 0x100 EXP SWAP1 DIV PUSH1 0xFF AND ISZERO PUSH2 0x761 JUMPI PUSH1 0x40 MLOAD PUSH32 0x8C379A000000000000000000000000000000000000000000000000000000000 DUP2 MSTORE PUSH1 0x4 ADD PUSH2 0x758 SWAP1 PUSH2 0x1698 JUMP JUMPDEST PUSH1 0x40 MLOAD DUP1 SWAP2 SUB SWAP1 REVERT JUMPDEST PUSH0 CALLVALUE GT PUSH2 0x7A3 JUMPI PUSH1 0x40 MLOAD PUSH32 0x8C379A000000000000000000000000000000000000000000000000000000000 DUP2 MSTORE PUSH1 0x4 ADD PUSH2 0x79A SWAP1 PUSH2 0x1700 JUMP JUMPDEST PUSH1 0x40 MLOAD DUP1 SWAP2 SUB SWAP1 REVERT JUMPDEST DUP1 PUSH1 0x4 ADD SLOAD CALLVALUE GT ISZERO PUSH2 0x7FB JUMPI CALLVALUE DUP2 PUSH1 0x4 ADD DUP2 SWAP1 SSTORE POP CALLER DUP2 PUSH1 0x3 ADD PUSH0 PUSH2 0x100 EXP DUP2 SLOAD DUP2 PUSH20 0xFFFFFFFFFFFFFFFFFFFFFFFFFFFFFFFFFFFFFFFF MUL NOT AND SWAP1 DUP4 PUSH20 0xFFFFFFFFFFFFFFFFFFFFFFFFFFFFFFFFFFFFFFFF AND MUL OR SWAP1 SSTORE POP JUMPDEST PUSH1 0x64 PUSH1 0x5F CALLVALUE PUSH2 0x80A SWAP2 SWAP1 PUSH2 0x174B JUMP JUMPDEST PUSH2 0x814 SWAP2 SWAP1 PUSH2 0x17B9 JUMP JUMPDEST DUP2 PUSH1 0x7 ADD SLOAD PUSH2 0x823 SWAP2 SWAP1 PUSH2 0x17E9 JUMP JUMPDEST DUP2 PUSH1 0x7 ADD DUP2 SWAP1 SSTORE POP PUSH1 0x4 PUSH0 SWAP1 SLOAD SWAP1 PUSH2 0x100 EXP SWAP1 DIV PUSH20 0xFFFFFFFFFFFFFFFFFFFFFFFFFFFFFFFFFFFFFFFF AND PUSH20 0xFFFFFFFFFFFFFFFFFFFFFFFFFFFFFFFFFFFFFFFF AND PUSH2 0x8FC PUSH1 0x64 PUSH1 0x5 CALLVALUE PUSH2 0x875 SWAP2 SWAP1 PUSH2 0x174B JUMP JUMPDEST PUSH2 0x87F SWAP2 SWAP1 PUSH2 0x17B9 JUMP JUMPDEST SWAP1 DUP2 ISZERO MUL SWAP1 PUSH1 0x40 MLOAD PUSH0 PUSH1 0x40 MLOAD DUP1 DUP4 SUB DUP2 DUP6 DUP9 DUP9 CALL SWAP4 POP POP POP POP ISZERO DUP1 ISZERO PUSH2 0x8A7 JUMPI RETURNDATASIZE PUSH0 DUP1 RETURNDATACOPY RETURNDATASIZE PUSH0 REVERT JUMPDEST POP CALLVALUE PUSH1 0x7 PUSH0 DUP5 DUP2 MSTORE PUSH1 0x20 ADD SWAP1 DUP2 MSTORE PUSH1 0x20 ADD PUSH0 KECCAK256 PUSH0 CALLER PUSH20 0xFFFFFFFFFFFFFFFFFFFFFFFFFFFFFFFFFFFFFFFF AND PUSH20 0xFFFFFFFFFFFFFFFFFFFFFFFFFFFFFFFFFFFFFFFF AND DUP2 MSTORE PUSH1 0x20 ADD SWAP1 DUP2 MSTORE PUSH1 0x20 ADD PUSH0 KECCAK256 DUP2 SWAP1 SSTORE POP CALLER PUSH20 0xFFFFFFFFFFFFFFFFFFFFFFFFFFFFFFFFFFFFFFFF AND DUP3 PUSH32 0x6251418FFD7F504740544EC3D578897633E212C5D658B7DCE793C5DC9D2E855E CALLVALUE PUSH1 0x40 MLOAD PUSH2 0x940 SWAP2 SWAP1 PUSH2 0xFB2 JUMP JUMPDEST PUSH1 0x40 MLOAD DUP1 SWAP2 SUB SWAP1 LOG3 DUP1 PUSH1 0x5 ADD SLOAD DUP2 PUSH1 0x7 ADD SLOAD LT PUSH2 0x98B JUMPI PUSH1 0x1 DUP2 PUSH1 0x8 ADD PUSH0 PUSH2 0x100 EXP DUP2 SLOAD DUP2 PUSH1 0xFF MUL NOT AND SWAP1 DUP4 ISZERO ISZERO MUL OR SWAP1 SSTORE POP PUSH1 0x2 PUSH0 DUP2 SLOAD DUP1 SWAP3 SWAP2 SWAP1 PUSH2 0x985 SWAP1 PUSH2 0x181C JUMP JUMPDEST SWAP2 SWAP1 POP SSTORE POP JUMPDEST POP POP JUMP JUMPDEST PUSH1 0x8 PUSH1 0x20 MSTORE DUP1 PUSH0 MSTORE PUSH1 0x40 PUSH0 KECCAK256 PUSH0 SWAP2 POP SLOAD SWAP1 PUSH2 0x100 EXP SWAP1 DIV PUSH1 0xFF AND DUP2 JUMP JUMPDEST PUSH0 PUSH1 0x6 PUSH0 DUP4 DUP2 MSTORE PUSH1 0x20 ADD SWAP1 DUP2 MSTORE PUSH1 0x20 ADD PUSH0 KECCAK256 SWAP1 POP PUSH0 DUP2 PUSH1 0x7 ADD SLOAD SWAP1 POP DUP2 PUSH1 0x8 ADD PUSH0 SWAP1 SLOAD SWAP1 PUSH2 0x100 EXP SWAP1 DIV PUSH1 0xFF AND PUSH2 0xA18 JUMPI PUSH1 0x40 MLOAD PUSH32 0x8C379A000000000000000000000000000000000000000000000000000000000 DUP2 MSTORE PUSH1 0x4 ADD PUSH2 0xA0F SWAP1 PUSH2 0x18AD JUMP JUMPDEST PUSH1 0x40 MLOAD DUP1 SWAP2 SUB SWAP1 REVERT JUMPDEST CALLER PUSH20 0xFFFFFFFFFFFFFFFFFFFFFFFFFFFFFFFFFFFFFFFF AND DUP3 PUSH0 ADD PUSH0 SWAP1 SLOAD SWAP1 PUSH2 0x100 EXP SWAP1 DIV PUSH20 0xFFFFFFFFFFFFFFFFFFFFFFFFFFFFFFFFFFFFFFFF AND PUSH20 0xFFFFFFFFFFFFFFFFFFFFFFFFFFFFFFFFFFFFFFFF AND EQ PUSH2 0xAA8 JUMPI PUSH1 0x40 MLOAD PUSH32 0x8C379A000000000000000000000000000000000000000000000000000000000 DUP2 MSTORE PUSH1 0x4 ADD PUSH2 0xA9F SWAP1 PUSH2 0x1915 JUMP JUMPDEST PUSH1 0x40 MLOAD DUP1 SWAP2 SUB SWAP1 REVERT JUMPDEST TIMESTAMP DUP3 PUSH1 0x6 ADD SLOAD GT ISZERO PUSH2 0xAEF JUMPI PUSH1 0x40 MLOAD PUSH32 0x8C379A000000000000000000000000000000000000000000000000000000000 DUP2 MSTORE PUSH1 0x4 ADD PUSH2 0xAE6 SWAP1 PUSH2 0x19A3 JUMP JUMPDEST PUSH1 0x40 MLOAD DUP1 SWAP2 SUB SWAP1 REVERT JUMPDEST CALLER PUSH20 0xFFFFFFFFFFFFFFFFFFFFFFFFFFFFFFFFFFFFFFFF AND PUSH2 0x8FC DUP3 SWAP1 DUP2 ISZERO MUL SWAP1 PUSH1 0x40 MLOAD PUSH0 PUSH1 0x40 MLOAD DUP1 DUP4 SUB DUP2 DUP6 DUP9 DUP9 CALL SWAP4 POP POP POP POP ISZERO DUP1 ISZERO PUSH2 0xB32 JUMPI RETURNDATASIZE PUSH0 DUP1 RETURNDATACOPY RETURNDATASIZE PUSH0 REVERT JUMPDEST POP POP POP POP JUMP JUMPDEST PUSH1 0x8 PUSH0 DUP3 DUP2 MSTORE PUSH1 0x20 ADD SWAP1 DUP2 MSTORE PUSH1 0x20 ADD PUSH0 KECCAK256 PUSH0 SWAP1 SLOAD SWAP1 PUSH2 0x100 EXP SWAP1 DIV PUSH1 0xFF AND ISZERO PUSH2 0xB96 JUMPI PUSH1 0x40 MLOAD PUSH32 0x8C379A000000000000000000000000000000000000000000000000000000000 DUP2 MSTORE PUSH1 0x4 ADD PUSH2 0xB8D SWAP1 PUSH2 0x1A0B JUMP JUMPDEST PUSH1 0x40 MLOAD DUP1 SWAP2 SUB SWAP1 REVERT JUMPDEST PUSH1 0x1 PUSH1 0x8 PUSH0 DUP4 DUP2 MSTORE PUSH1 0x20 ADD SWAP1 DUP2 MSTORE PUSH1 0x20 ADD PUSH0 KECCAK256 PUSH0 PUSH2 0x100 EXP DUP2 SLOAD DUP2 PUSH1 0xFF MUL NOT AND SWAP1 DUP4 ISZERO ISZERO MUL OR SWAP1 SSTORE POP PUSH1 0x40 MLOAD DUP1 PUSH2 0x120 ADD PUSH1 0x40 MSTORE DUP1 CALLER PUSH20 0xFFFFFFFFFFFFFFFFFFFFFFFFFFFFFFFFFFFFFFFF AND DUP2 MSTORE PUSH1 0x20 ADD DUP7 DUP2 MSTORE PUSH1 0x20 ADD DUP6 DUP2 MSTORE PUSH1 0x20 ADD CALLER PUSH20 0xFFFFFFFFFFFFFFFFFFFFFFFFFFFFFFFFFFFFFFFF AND DUP2 MSTORE PUSH1 0x20 ADD PUSH0 DUP2 MSTORE PUSH1 0x20 ADD DUP5 DUP2 MSTORE PUSH1 0x20 ADD DUP4 TIMESTAMP PUSH2 0xC27 SWAP2 SWAP1 PUSH2 0x17E9 JUMP JUMPDEST DUP2 MSTORE PUSH1 0x20 ADD PUSH0 DUP2 MSTORE PUSH1 0x20 ADD PUSH0 ISZERO ISZERO DUP2 MSTORE POP PUSH1 0x6 PUSH0 DUP4 DUP2 MSTORE PUSH1 0x20 ADD SWAP1 DUP2 MSTORE PUSH1 0x20 ADD PUSH0 KECCAK256 PUSH0 DUP3 ADD MLOAD DUP2 PUSH0 ADD PUSH0 PUSH2 0x100 EXP DUP2 SLOAD DUP2 PUSH20 0xFFFFFFFFFFFFFFFFFFFFFFFFFFFFFFFFFFFFFFFF MUL NOT AND SWAP1 DUP4 PUSH20 0xFFFFFFFFFFFFFFFFFFFFFFFFFFFFFFFFFFFFFFFF AND MUL OR SWAP1 SSTORE POP PUSH1 0x20 DUP3 ADD MLOAD DUP2 PUSH1 0x1 ADD SWAP1 DUP2 PUSH2 0xCA2 SWAP2 SWAP1 PUSH2 0x1BC6 JUMP JUMPDEST POP PUSH1 0x40 DUP3 ADD MLOAD DUP2 PUSH1 0x2 ADD SWAP1 DUP2 PUSH2 0xCB8 SWAP2 SWAP1 PUSH2 0x1BC6 JUMP JUMPDEST POP PUSH1 0x60 DUP3 ADD MLOAD DUP2 PUSH1 0x3 ADD PUSH0 PUSH2 0x100 EXP DUP2 SLOAD DUP2 PUSH20 0xFFFFFFFFFFFFFFFFFFFFFFFFFFFFFFFFFFFFFFFF MUL NOT AND SWAP1 DUP4 PUSH20 0xFFFFFFFFFFFFFFFFFFFFFFFFFFFFFFFFFFFFFFFF AND MUL OR SWAP1 SSTORE POP PUSH1 0x80 DUP3 ADD MLOAD DUP2 PUSH1 0x4 ADD SSTORE PUSH1 0xA0 DUP3 ADD MLOAD DUP2 PUSH1 0x5 ADD SSTORE PUSH1 0xC0 DUP3 ADD MLOAD DUP2 PUSH1 0x6 ADD SSTORE PUSH1 0xE0 DUP3 ADD MLOAD DUP2 PUSH1 0x7 ADD SSTORE PUSH2 0x100 DUP3 ADD MLOAD DUP2 PUSH1 0x8 ADD PUSH0 PUSH2 0x100 EXP DUP2 SLOAD DUP2 PUSH1 0xFF MUL NOT AND SWAP1 DUP4 ISZERO ISZERO MUL OR SWAP1 SSTORE POP SWAP1 POP POP PUSH1 0x3 DUP2 SWAP1 DUP1 PUSH1 0x1 DUP2 SLOAD ADD DUP1 DUP3 SSTORE DUP1 SWAP2 POP POP PUSH1 0x1 SWAP1 SUB SWAP1 PUSH0 MSTORE PUSH1 0x20 PUSH0 KECCAK256 ADD PUSH0 SWAP1 SWAP2 SWAP1 SWAP2 SWAP1 SWAP2 POP SSTORE PUSH1 0x1 PUSH0 DUP2 SLOAD DUP1 SWAP3 SWAP2 SWAP1 PUSH2 0xD82 SWAP1 PUSH2 0x181C JUMP JUMPDEST SWAP2 SWAP1 POP SSTORE POP PUSH1 0x5 PUSH0 CALLER PUSH20 0xFFFFFFFFFFFFFFFFFFFFFFFFFFFFFFFFFFFFFFFF AND PUSH20 0xFFFFFFFFFFFFFFFFFFFFFFFFFFFFFFFFFFFFFFFF AND DUP2 MSTORE PUSH1 0x20 ADD SWAP1 DUP2 MSTORE PUSH1 0x20 ADD PUSH0 KECCAK256 PUSH0 DUP2 SLOAD DUP1 SWAP3 SWAP2 SWAP1 PUSH2 0xDD4 SWAP1 PUSH2 0x181C JUMP JUMPDEST SWAP2 SWAP1 POP SSTORE POP CALLER PUSH20 0xFFFFFFFFFFFFFFFFFFFFFFFFFFFFFFFFFFFFFFFF AND DUP2 PUSH32 0xAC9B83534845C9E785A6EA70F2D809DB1D72EF9A1D981753712D922F5CB55F39 DUP8 DUP8 DUP8 DUP8 TIMESTAMP PUSH2 0xE21 SWAP2 SWAP1 PUSH2 0x17E9 JUMP JUMPDEST PUSH1 0x40 MLOAD PUSH2 0xE31 SWAP5 SWAP4 SWAP3 SWAP2 SWAP1 PUSH2 0x1C95 JUMP JUMPDEST PUSH1 0x40 MLOAD DUP1 SWAP2 SUB SWAP1 LOG3 POP POP POP POP POP JUMP JUMPDEST PUSH0 DUP1 PUSH0 SWAP1 POP PUSH0 JUMPDEST PUSH1 0x3 DUP1 SLOAD SWAP1 POP DUP2 LT ISZERO PUSH2 0xF13 JUMPI PUSH1 0x6 PUSH0 PUSH1 0x3 DUP4 DUP2 SLOAD DUP2 LT PUSH2 0xE6B JUMPI PUSH2 0xE6A PUSH2 0x1CE6 JUMP JUMPDEST JUMPDEST SWAP1 PUSH0 MSTORE PUSH1 0x20 PUSH0 KECCAK256 ADD SLOAD DUP2 MSTORE PUSH1 0x20 ADD SWAP1 DUP2 MSTORE PUSH1 0x20 ADD PUSH0 KECCAK256 PUSH1 0x6 ADD SLOAD TIMESTAMP GT DUP1 ISZERO PUSH2 0xEF2 JUMPI POP PUSH1 0x6 PUSH0 PUSH1 0x3 DUP4 DUP2 SLOAD DUP2 LT PUSH2 0xEA5 JUMPI PUSH2 0xEA4 PUSH2 0x1CE6 JUMP JUMPDEST JUMPDEST SWAP1 PUSH0 MSTORE PUSH1 0x20 PUSH0 KECCAK256 ADD SLOAD DUP2 MSTORE PUSH1 0x20 ADD SWAP1 DUP2 MSTORE PUSH1 0x20 ADD PUSH0 KECCAK256 PUSH1 0x5 ADD SLOAD PUSH1 0x6 PUSH0 PUSH1 0x3 DUP5 DUP2 SLOAD DUP2 LT PUSH2 0xED6 JUMPI PUSH2 0xED5 PUSH2 0x1CE6 JUMP JUMPDEST JUMPDEST SWAP1 PUSH0 MSTORE PUSH1 0x20 PUSH0 KECCAK256 ADD SLOAD DUP2 MSTORE PUSH1 0x20 ADD SWAP1 DUP2 MSTORE PUSH1 0x20 ADD PUSH0 KECCAK256 PUSH1 0x7 ADD SLOAD LT JUMPDEST ISZERO PUSH2 0xF06 JUMPI DUP2 DUP1 PUSH2 0xF02 SWAP1 PUSH2 0x181C JUMP JUMPDEST SWAP3 POP POP JUMPDEST DUP1 DUP1 PUSH1 0x1 ADD SWAP2 POP POP PUSH2 0xE47 JUMP JUMPDEST POP DUP1 SWAP2 POP POP SWAP1 JUMP JUMPDEST PUSH1 0x1 SLOAD DUP2 JUMP JUMPDEST PUSH0 PUSH1 0x40 MLOAD SWAP1 POP SWAP1 JUMP JUMPDEST PUSH0 DUP1 REVERT JUMPDEST PUSH0 DUP1 REVERT JUMPDEST PUSH0 DUP2 SWAP1 POP SWAP2 SWAP1 POP JUMP JUMPDEST PUSH2 0xF44 DUP2 PUSH2 0xF32 JUMP JUMPDEST DUP2 EQ PUSH2 0xF4E JUMPI PUSH0 DUP1 REVERT JUMPDEST POP JUMP JUMPDEST PUSH0 DUP2 CALLDATALOAD SWAP1 POP PUSH2 0xF5F DUP2 PUSH2 0xF3B JUMP JUMPDEST SWAP3 SWAP2 POP POP JUMP JUMPDEST PUSH0 DUP1 PUSH1 0x40 DUP4 DUP6 SUB SLT ISZERO PUSH2 0xF7B JUMPI PUSH2 0xF7A PUSH2 0xF2A JUMP JUMPDEST JUMPDEST PUSH0 PUSH2 0xF88 DUP6 DUP3 DUP7 ADD PUSH2 0xF51 JUMP JUMPDEST SWAP3 POP POP PUSH1 0x20 PUSH2 0xF99 DUP6 DUP3 DUP7 ADD PUSH2 0xF51 JUMP JUMPDEST SWAP2 POP POP SWAP3 POP SWAP3 SWAP1 POP JUMP JUMPDEST PUSH2 0xFAC DUP2 PUSH2 0xF32 JUMP JUMPDEST DUP3 MSTORE POP POP JUMP JUMPDEST PUSH0 PUSH1 0x20 DUP3 ADD SWAP1 POP PUSH2 0xFC5 PUSH0 DUP4 ADD DUP5 PUSH2 0xFA3 JUMP JUMPDEST SWAP3 SWAP2 POP POP JUMP JUMPDEST PUSH0 PUSH1 0x20 DUP3 DUP5 SUB SLT ISZERO PUSH2 0xFE0 JUMPI PUSH2 0xFDF PUSH2 0xF2A JUMP JUMPDEST JUMPDEST PUSH0 PUSH2 0xFED DUP5 DUP3 DUP6 ADD PUSH2 0xF51 JUMP JUMPDEST SWAP2 POP POP SWAP3 SWAP2 POP POP JUMP JUMPDEST PUSH0 PUSH20 0xFFFFFFFFFFFFFFFFFFFFFFFFFFFFFFFFFFFFFFFF DUP3 AND SWAP1 POP SWAP2 SWAP1 POP JUMP JUMPDEST PUSH0 PUSH2 0x101F DUP3 PUSH2 0xFF6 JUMP JUMPDEST SWAP1 POP SWAP2 SWAP1 POP JUMP JUMPDEST PUSH2 0x102F DUP2 PUSH2 0x1015 JUMP JUMPDEST DUP3 MSTORE POP POP JUMP JUMPDEST PUSH0 DUP2 MLOAD SWAP1 POP SWAP2 SWAP1 POP JUMP JUMPDEST PUSH0 DUP3 DUP3 MSTORE PUSH1 0x20 DUP3 ADD SWAP1 POP SWAP3 SWAP2 POP POP JUMP JUMPDEST DUP3 DUP2 DUP4 MCOPY PUSH0 DUP4 DUP4 ADD MSTORE POP POP POP JUMP JUMPDEST PUSH0 PUSH1 0x1F NOT PUSH1 0x1F DUP4 ADD AND SWAP1 POP SWAP2 SWAP1 POP JUMP JUMPDEST PUSH0 PUSH2 0x1077 DUP3 PUSH2 0x1035 JUMP JUMPDEST PUSH2 0x1081 DUP2 DUP6 PUSH2 0x103F JUMP JUMPDEST SWAP4 POP PUSH2 0x1091 DUP2 DUP6 PUSH1 0x20 DUP7 ADD PUSH2 0x104F JUMP JUMPDEST PUSH2 0x109A DUP2 PUSH2 0x105D JUMP JUMPDEST DUP5 ADD SWAP2 POP POP SWAP3 SWAP2 POP POP JUMP JUMPDEST PUSH0 DUP2 ISZERO ISZERO SWAP1 POP SWAP2 SWAP1 POP JUMP JUMPDEST PUSH2 0x10B9 DUP2 PUSH2 0x10A5 JUMP JUMPDEST DUP3 MSTORE POP POP JUMP JUMPDEST PUSH0 PUSH2 0x120 DUP3 ADD SWAP1 POP PUSH2 0x10D3 PUSH0 DUP4 ADD DUP13 PUSH2 0x1026 JUMP JUMPDEST DUP2 DUP2 SUB PUSH1 0x20 DUP4 ADD MSTORE PUSH2 0x10E5 DUP2 DUP12 PUSH2 0x106D JUMP JUMPDEST SWAP1 POP DUP2 DUP2 SUB PUSH1 0x40 DUP4 ADD MSTORE PUSH2 0x10F9 DUP2 DUP11 PUSH2 0x106D JUMP JUMPDEST SWAP1 POP PUSH2 0x1108 PUSH1 0x60 DUP4 ADD DUP10 PUSH2 0x1026 JUMP JUMPDEST PUSH2 0x1115 PUSH1 0x80 DUP4 ADD DUP9 PUSH2 0xFA3 JUMP JUMPDEST PUSH2 0x1122 PUSH1 0xA0 DUP4 ADD DUP8 PUSH2 0xFA3 JUMP JUMPDEST PUSH2 0x112F PUSH1 0xC0 DUP4 ADD DUP7 PUSH2 0xFA3 JUMP JUMPDEST PUSH2 0x113C PUSH1 0xE0 DUP4 ADD DUP6 PUSH2 0xFA3 JUMP JUMPDEST PUSH2 0x114A PUSH2 0x100 DUP4 ADD DUP5 PUSH2 0x10B0 JUMP JUMPDEST SWAP11 SWAP10 POP POP POP POP POP POP POP POP POP POP JUMP JUMPDEST PUSH2 0x1161 DUP2 PUSH2 0x1015 JUMP JUMPDEST DUP2 EQ PUSH2 0x116B JUMPI PUSH0 DUP1 REVERT JUMPDEST POP JUMP JUMPDEST PUSH0 DUP2 CALLDATALOAD SWAP1 POP PUSH2 0x117C DUP2 PUSH2 0x1158 JUMP JUMPDEST SWAP3 SWAP2 POP POP JUMP JUMPDEST PUSH0 DUP1 PUSH1 0x40 DUP4 DUP6 SUB SLT ISZERO PUSH2 0x1198 JUMPI PUSH2 0x1197 PUSH2 0xF2A JUMP JUMPDEST JUMPDEST PUSH0 PUSH2 0x11A5 DUP6 DUP3 DUP7 ADD PUSH2 0xF51 JUMP JUMPDEST SWAP3 POP POP PUSH1 0x20 PUSH2 0x11B6 DUP6 DUP3 DUP7 ADD PUSH2 0x116E JUMP JUMPDEST SWAP2 POP POP SWAP3 POP SWAP3 SWAP1 POP JUMP JUMPDEST PUSH0 PUSH1 0x20 DUP3 DUP5 SUB SLT ISZERO PUSH2 0x11D5 JUMPI PUSH2 0x11D4 PUSH2 0xF2A JUMP JUMPDEST JUMPDEST PUSH0 PUSH2 0x11E2 DUP5 DUP3 DUP6 ADD PUSH2 0x116E JUMP JUMPDEST SWAP2 POP POP SWAP3 SWAP2 POP POP JUMP JUMPDEST PUSH0 PUSH1 0x20 DUP3 ADD SWAP1 POP PUSH2 0x11FE PUSH0 DUP4 ADD DUP5 PUSH2 0x10B0 JUMP JUMPDEST SWAP3 SWAP2 POP POP JUMP JUMPDEST PUSH0 DUP1 REVERT JUMPDEST PUSH0 DUP1 REVERT JUMPDEST PUSH32 0x4E487B7100000000000000000000000000000000000000000000000000000000 PUSH0 MSTORE PUSH1 0x41 PUSH1 0x4 MSTORE PUSH1 0x24 PUSH0 REVERT JUMPDEST PUSH2 0x1242 DUP3 PUSH2 0x105D JUMP JUMPDEST DUP2 ADD DUP2 DUP2 LT PUSH8 0xFFFFFFFFFFFFFFFF DUP3 GT OR ISZERO PUSH2 0x1261 JUMPI PUSH2 0x1260 PUSH2 0x120C JUMP JUMPDEST JUMPDEST DUP1 PUSH1 0x40 MSTORE POP POP POP JUMP JUMPDEST PUSH0 PUSH2 0x1273 PUSH2 0xF21 JUMP JUMPDEST SWAP1 POP PUSH2 0x127F DUP3 DUP3 PUSH2 0x1239 JUMP JUMPDEST SWAP2 SWAP1 POP JUMP JUMPDEST PUSH0 PUSH8 0xFFFFFFFFFFFFFFFF DUP3 GT ISZERO PUSH2 0x129E JUMPI PUSH2 0x129D PUSH2 0x120C JUMP JUMPDEST JUMPDEST PUSH2 0x12A7 DUP3 PUSH2 0x105D JUMP JUMPDEST SWAP1 POP PUSH1 0x20 DUP2 ADD SWAP1 POP SWAP2 SWAP1 POP JUMP JUMPDEST DUP3 DUP2 DUP4 CALLDATACOPY PUSH0 DUP4 DUP4 ADD MSTORE POP POP POP JUMP JUMPDEST PUSH0 PUSH2 0x12D4 PUSH2 0x12CF DUP5 PUSH2 0x1284 JUMP JUMPDEST PUSH2 0x126A JUMP JUMPDEST SWAP1 POP DUP3 DUP2 MSTORE PUSH1 0x20 DUP2 ADD DUP5 DUP5 DUP5 ADD GT ISZERO PUSH2 0x12F0 JUMPI PUSH2 0x12EF PUSH2 0x1208 JUMP JUMPDEST JUMPDEST PUSH2 0x12FB DUP5 DUP3 DUP6 PUSH2 0x12B4 JUMP JUMPDEST POP SWAP4 SWAP3 POP POP POP JUMP JUMPDEST PUSH0 DUP3 PUSH1 0x1F DUP4 ADD SLT PUSH2 0x1317 JUMPI PUSH2 0x1316 PUSH2 0x1204 JUMP JUMPDEST JUMPDEST DUP2 CALLDATALOAD PUSH2 0x1327 DUP5 DUP3 PUSH1 0x20 DUP7 ADD PUSH2 0x12C2 JUMP JUMPDEST SWAP2 POP POP SWAP3 SWAP2 POP POP JUMP JUMPDEST PUSH0 DUP1 PUSH0 DUP1 PUSH0 PUSH1 0xA0 DUP7 DUP9 SUB SLT ISZERO PUSH2 0x1349 JUMPI PUSH2 0x1348 PUSH2 0xF2A JUMP JUMPDEST JUMPDEST PUSH0 DUP7 ADD CALLDATALOAD PUSH8 0xFFFFFFFFFFFFFFFF DUP2 GT ISZERO PUSH2 0x1366 JUMPI PUSH2 0x1365 PUSH2 0xF2E JUMP JUMPDEST JUMPDEST PUSH2 0x1372 DUP9 DUP3 DUP10 ADD PUSH2 0x1303 JUMP JUMPDEST SWAP6 POP POP PUSH1 0x20 DUP7 ADD CALLDATALOAD PUSH8 0xFFFFFFFFFFFFFFFF DUP2 GT ISZERO PUSH2 0x1393 JUMPI PUSH2 0x1392 PUSH2 0xF2E JUMP JUMPDEST JUMPDEST PUSH2 0x139F DUP9 DUP3 DUP10 ADD PUSH2 0x1303 JUMP JUMPDEST SWAP5 POP POP PUSH1 0x40 PUSH2 0x13B0 DUP9 DUP3 DUP10 ADD PUSH2 0xF51 JUMP JUMPDEST SWAP4 POP POP PUSH1 0x60 PUSH2 0x13C1 DUP9 DUP3 DUP10 ADD PUSH2 0xF51 JUMP JUMPDEST SWAP3 POP POP PUSH1 0x80 PUSH2 0x13D2 DUP9 DUP3 DUP10 ADD PUSH2 0xF51 JUMP JUMPDEST SWAP2 POP POP SWAP3 SWAP6 POP SWAP3 SWAP6 SWAP1 SWAP4 POP JUMP JUMPDEST PUSH32 0x4F6E6C792043726561746F722063616E204368616E6765207468652044656164 PUSH0 DUP3 ADD MSTORE PUSH32 0x6C696E6500000000000000000000000000000000000000000000000000000000 PUSH1 0x20 DUP3 ADD MSTORE POP JUMP JUMPDEST PUSH0 PUSH2 0x1439 PUSH1 0x24 DUP4 PUSH2 0x103F JUMP JUMPDEST SWAP2 POP PUSH2 0x1444 DUP3 PUSH2 0x13DF JUMP JUMPDEST PUSH1 0x40 DUP3 ADD SWAP1 POP SWAP2 SWAP1 POP JUMP JUMPDEST PUSH0 PUSH1 0x20 DUP3 ADD SWAP1 POP DUP2 DUP2 SUB PUSH0 DUP4 ADD MSTORE PUSH2 0x1466 DUP2 PUSH2 0x142D JUMP JUMPDEST SWAP1 POP SWAP2 SWAP1 POP JUMP JUMPDEST PUSH32 0x446561646C696E6520697320616C7265616479207061737365642E0000000000 PUSH0 DUP3 ADD MSTORE POP JUMP JUMPDEST PUSH0 PUSH2 0x14A1 PUSH1 0x1B DUP4 PUSH2 0x103F JUMP JUMPDEST SWAP2 POP PUSH2 0x14AC DUP3 PUSH2 0x146D JUMP JUMPDEST PUSH1 0x20 DUP3 ADD SWAP1 POP SWAP2 SWAP1 POP JUMP JUMPDEST PUSH0 PUSH1 0x20 DUP3 ADD SWAP1 POP DUP2 DUP2 SUB PUSH0 DUP4 ADD MSTORE PUSH2 0x14CE DUP2 PUSH2 0x1495 JUMP JUMPDEST SWAP1 POP SWAP2 SWAP1 POP JUMP JUMPDEST PUSH32 0x4E487B7100000000000000000000000000000000000000000000000000000000 PUSH0 MSTORE PUSH1 0x22 PUSH1 0x4 MSTORE PUSH1 0x24 PUSH0 REVERT JUMPDEST PUSH0 PUSH1 0x2 DUP3 DIV SWAP1 POP PUSH1 0x1 DUP3 AND DUP1 PUSH2 0x1519 JUMPI PUSH1 0x7F DUP3 AND SWAP2 POP JUMPDEST PUSH1 0x20 DUP3 LT DUP2 SUB PUSH2 0x152C JUMPI PUSH2 0x152B PUSH2 0x14D5 JUMP JUMPDEST JUMPDEST POP SWAP2 SWAP1 POP JUMP JUMPDEST PUSH32 0x46756E64696E6720676F616C2069732072656163686564202C20757365722063 PUSH0 DUP3 ADD MSTORE PUSH32 0x616E742077697468647261770000000000000000000000000000000000000000 PUSH1 0x20 DUP3 ADD MSTORE POP JUMP JUMPDEST PUSH0 PUSH2 0x158C PUSH1 0x2C DUP4 PUSH2 0x103F JUMP JUMPDEST SWAP2 POP PUSH2 0x1597 DUP3 PUSH2 0x1532 JUMP JUMPDEST PUSH1 0x40 DUP3 ADD SWAP1 POP SWAP2 SWAP1 POP JUMP JUMPDEST PUSH0 PUSH1 0x20 DUP3 ADD SWAP1 POP DUP2 DUP2 SUB PUSH0 DUP4 ADD MSTORE PUSH2 0x15B9 DUP2 PUSH2 0x1580 JUMP JUMPDEST SWAP1 POP SWAP2 SWAP1 POP JUMP JUMPDEST PUSH32 0x50726F6A65637420646561646C696E6520697320616C72656164792070617373 PUSH0 DUP3 ADD MSTORE PUSH32 0x65642E0000000000000000000000000000000000000000000000000000000000 PUSH1 0x20 DUP3 ADD MSTORE POP JUMP JUMPDEST PUSH0 PUSH2 0x161A PUSH1 0x23 DUP4 PUSH2 0x103F JUMP JUMPDEST SWAP2 POP PUSH2 0x1625 DUP3 PUSH2 0x15C0 JUMP JUMPDEST PUSH1 0x40 DUP3 ADD SWAP1 POP SWAP2 SWAP1 POP JUMP JUMPDEST PUSH0 PUSH1 0x20 DUP3 ADD SWAP1 POP DUP2 DUP2 SUB PUSH0 DUP4 ADD MSTORE PUSH2 0x1647 DUP2 PUSH2 0x160E JUMP JUMPDEST SWAP1 POP SWAP2 SWAP1 POP JUMP JUMPDEST PUSH32 0x50726F6A65637420697320616C72656164792066756E64656400000000000000 PUSH0 DUP3 ADD MSTORE POP JUMP JUMPDEST PUSH0 PUSH2 0x1682 PUSH1 0x19 DUP4 PUSH2 0x103F JUMP JUMPDEST SWAP2 POP PUSH2 0x168D DUP3 PUSH2 0x164E JUMP JUMPDEST PUSH1 0x20 DUP3 ADD SWAP1 POP SWAP2 SWAP1 POP JUMP JUMPDEST PUSH0 PUSH1 0x20 DUP3 ADD SWAP1 POP DUP2 DUP2 SUB PUSH0 DUP4 ADD MSTORE PUSH2 0x16AF DUP2 PUSH2 0x1676 JUMP JUMPDEST SWAP1 POP SWAP2 SWAP1 POP JUMP JUMPDEST PUSH32 0x4D7573742073656E7420736F6D652076616C7565206F662065746865722E0000 PUSH0 DUP3 ADD MSTORE POP JUMP JUMPDEST PUSH0 PUSH2 0x16EA PUSH1 0x1E DUP4 PUSH2 0x103F JUMP JUMPDEST SWAP2 POP PUSH2 0x16F5 DUP3 PUSH2 0x16B6 JUMP JUMPDEST PUSH1 0x20 DUP3 ADD SWAP1 POP SWAP2 SWAP1 POP JUMP JUMPDEST PUSH0 PUSH1 0x20 DUP3 ADD SWAP1 POP DUP2 DUP2 SUB PUSH0 DUP4 ADD MSTORE PUSH2 0x1717 DUP2 PUSH2 0x16DE JUMP JUMPDEST SWAP1 POP SWAP2 SWAP1 POP JUMP JUMPDEST PUSH32 0x4E487B7100000000000000000000000000000000000000000000000000000000 PUSH0 MSTORE PUSH1 0x11 PUSH1 0x4 MSTORE PUSH1 0x24 PUSH0 REVERT JUMPDEST PUSH0 PUSH2 0x1755 DUP3 PUSH2 0xF32 JUMP JUMPDEST SWAP2 POP PUSH2 0x1760 DUP4 PUSH2 0xF32 JUMP JUMPDEST SWAP3 POP DUP3 DUP3 MUL PUSH2 0x176E DUP2 PUSH2 0xF32 JUMP JUMPDEST SWAP2 POP DUP3 DUP3 DIV DUP5 EQ DUP4 ISZERO OR PUSH2 0x1785 JUMPI PUSH2 0x1784 PUSH2 0x171E JUMP JUMPDEST JUMPDEST POP SWAP3 SWAP2 POP POP JUMP JUMPDEST PUSH32 0x4E487B7100000000000000000000000000000000000000000000000000000000 PUSH0 MSTORE PUSH1 0x12 PUSH1 0x4 MSTORE PUSH1 0x24 PUSH0 REVERT JUMPDEST PUSH0 PUSH2 0x17C3 DUP3 PUSH2 0xF32 JUMP JUMPDEST SWAP2 POP PUSH2 0x17CE DUP4 PUSH2 0xF32 JUMP JUMPDEST SWAP3 POP DUP3 PUSH2 0x17DE JUMPI PUSH2 0x17DD PUSH2 0x178C JUMP JUMPDEST JUMPDEST DUP3 DUP3 DIV SWAP1 POP SWAP3 SWAP2 POP POP JUMP JUMPDEST PUSH0 PUSH2 0x17F3 DUP3 PUSH2 0xF32 JUMP JUMPDEST SWAP2 POP PUSH2 0x17FE DUP4 PUSH2 0xF32 JUMP JUMPDEST SWAP3 POP DUP3 DUP3 ADD SWAP1 POP DUP1 DUP3 GT ISZERO PUSH2 0x1816 JUMPI PUSH2 0x1815 PUSH2 0x171E JUMP JUMPDEST JUMPDEST SWAP3 SWAP2 POP POP JUMP JUMPDEST PUSH0 PUSH2 0x1826 DUP3 PUSH2 0xF32 JUMP JUMPDEST SWAP2 POP PUSH32 0xFFFFFFFFFFFFFFFFFFFFFFFFFFFFFFFFFFFFFFFFFFFFFFFFFFFFFFFFFFFFFFFF DUP3 SUB PUSH2 0x1858 JUMPI PUSH2 0x1857 PUSH2 0x171E JUMP JUMPDEST JUMPDEST PUSH1 0x1 DUP3 ADD SWAP1 POP SWAP2 SWAP1 POP JUMP JUMPDEST PUSH32 0x46756E64696E67206973206E6F742073756666696369656E7400000000000000 PUSH0 DUP3 ADD MSTORE POP JUMP JUMPDEST PUSH0 PUSH2 0x1897 PUSH1 0x19 DUP4 PUSH2 0x103F JUMP JUMPDEST SWAP2 POP PUSH2 0x18A2 DUP3 PUSH2 0x1863 JUMP JUMPDEST PUSH1 0x20 DUP3 ADD SWAP1 POP SWAP2 SWAP1 POP JUMP JUMPDEST PUSH0 PUSH1 0x20 DUP3 ADD SWAP1 POP DUP2 DUP2 SUB PUSH0 DUP4 ADD MSTORE PUSH2 0x18C4 DUP2 PUSH2 0x188B JUMP JUMPDEST SWAP1 POP SWAP2 SWAP1 POP JUMP JUMPDEST PUSH32 0x4F6E6C792070726F6A6563742061646D696E2063616E20776974687372617700 PUSH0 DUP3 ADD MSTORE POP JUMP JUMPDEST PUSH0 PUSH2 0x18FF PUSH1 0x1F DUP4 PUSH2 0x103F JUMP JUMPDEST SWAP2 POP PUSH2 0x190A DUP3 PUSH2 0x18CB JUMP JUMPDEST PUSH1 0x20 DUP3 ADD SWAP1 POP SWAP2 SWAP1 POP JUMP JUMPDEST PUSH0 PUSH1 0x20 DUP3 ADD SWAP1 POP DUP2 DUP2 SUB PUSH0 DUP4 ADD MSTORE PUSH2 0x192C DUP2 PUSH2 0x18F3 JUMP JUMPDEST SWAP1 POP SWAP2 SWAP1 POP JUMP JUMPDEST PUSH32 0x446561646C696E6520666F722070726F6A656374206973206E6F742072656163 PUSH0 DUP3 ADD MSTORE PUSH32 0x6865640000000000000000000000000000000000000000000000000000000000 PUSH1 0x20 DUP3 ADD MSTORE POP JUMP JUMPDEST PUSH0 PUSH2 0x198D PUSH1 0x23 DUP4 PUSH2 0x103F JUMP JUMPDEST SWAP2 POP PUSH2 0x1998 DUP3 PUSH2 0x1933 JUMP JUMPDEST PUSH1 0x40 DUP3 ADD SWAP1 POP SWAP2 SWAP1 POP JUMP JUMPDEST PUSH0 PUSH1 0x20 DUP3 ADD SWAP1 POP DUP2 DUP2 SUB PUSH0 DUP4 ADD MSTORE PUSH2 0x19BA DUP2 PUSH2 0x1981 JUMP JUMPDEST SWAP1 POP SWAP2 SWAP1 POP JUMP JUMPDEST PUSH32 0x50726F6A65637420496420697320616C72656164792075736564000000000000 PUSH0 DUP3 ADD MSTORE POP JUMP JUMPDEST PUSH0 PUSH2 0x19F5 PUSH1 0x1A DUP4 PUSH2 0x103F JUMP JUMPDEST SWAP2 POP PUSH2 0x1A00 DUP3 PUSH2 0x19C1 JUMP JUMPDEST PUSH1 0x20 DUP3 ADD SWAP1 POP SWAP2 SWAP1 POP JUMP JUMPDEST PUSH0 PUSH1 0x20 DUP3 ADD SWAP1 POP DUP2 DUP2 SUB PUSH0 DUP4 ADD MSTORE PUSH2 0x1A22 DUP2 PUSH2 0x19E9 JUMP JUMPDEST SWAP1 POP SWAP2 SWAP1 POP JUMP JUMPDEST PUSH0 DUP2 SWAP1 POP DUP2 PUSH0 MSTORE PUSH1 0x20 PUSH0 KECCAK256 SWAP1 POP SWAP2 SWAP1 POP JUMP JUMPDEST PUSH0 PUSH1 0x20 PUSH1 0x1F DUP4 ADD DIV SWAP1 POP SWAP2 SWAP1 POP JUMP JUMPDEST PUSH0 DUP3 DUP3 SHL SWAP1 POP SWAP3 SWAP2 POP POP JUMP JUMPDEST PUSH0 PUSH1 0x8 DUP4 MUL PUSH2 0x1A85 PUSH32 0xFFFFFFFFFFFFFFFFFFFFFFFFFFFFFFFFFFFFFFFFFFFFFFFFFFFFFFFFFFFFFFFF DUP3 PUSH2 0x1A4A JUMP JUMPDEST PUSH2 0x1A8F DUP7 DUP4 PUSH2 0x1A4A JUMP JUMPDEST SWAP6 POP DUP1 NOT DUP5 AND SWAP4 POP DUP1 DUP7 AND DUP5 OR SWAP3 POP POP POP SWAP4 SWAP3 POP POP POP JUMP JUMPDEST PUSH0 DUP2 SWAP1 POP SWAP2 SWAP1 POP JUMP JUMPDEST PUSH0 PUSH2 0x1ACA PUSH2 0x1AC5 PUSH2 0x1AC0 DUP5 PUSH2 0xF32 JUMP JUMPDEST PUSH2 0x1AA7 JUMP JUMPDEST PUSH2 0xF32 JUMP JUMPDEST SWAP1 POP SWAP2 SWAP1 POP JUMP JUMPDEST PUSH0 DUP2 SWAP1 POP SWAP2 SWAP1 POP JUMP JUMPDEST PUSH2 0x1AE3 DUP4 PUSH2 0x1AB0 JUMP JUMPDEST PUSH2 0x1AF7 PUSH2 0x1AEF DUP3 PUSH2 0x1AD1 JUMP JUMPDEST DUP5 DUP5 SLOAD PUSH2 0x1A56 JUMP JUMPDEST DUP3 SSTORE POP POP POP POP JUMP JUMPDEST PUSH0 SWAP1 JUMP JUMPDEST PUSH2 0x1B0B PUSH2 0x1AFF JUMP JUMPDEST PUSH2 0x1B16 DUP2 DUP5 DUP5 PUSH2 0x1ADA JUMP JUMPDEST POP POP POP JUMP JUMPDEST JUMPDEST DUP2 DUP2 LT ISZERO PUSH2 0x1B39 JUMPI PUSH2 0x1B2E PUSH0 DUP3 PUSH2 0x1B03 JUMP JUMPDEST PUSH1 0x1 DUP2 ADD SWAP1 POP PUSH2 0x1B1C JUMP JUMPDEST POP POP JUMP JUMPDEST PUSH1 0x1F DUP3 GT ISZERO PUSH2 0x1B7E JUMPI PUSH2 0x1B4F DUP2 PUSH2 0x1A29 JUMP JUMPDEST PUSH2 0x1B58 DUP5 PUSH2 0x1A3B JUMP JUMPDEST DUP2 ADD PUSH1 0x20 DUP6 LT ISZERO PUSH2 0x1B67 JUMPI DUP2 SWAP1 POP JUMPDEST PUSH2 0x1B7B PUSH2 0x1B73 DUP6 PUSH2 0x1A3B JUMP JUMPDEST DUP4 ADD DUP3 PUSH2 0x1B1B JUMP JUMPDEST POP POP JUMPDEST POP POP POP JUMP JUMPDEST PUSH0 DUP3 DUP3 SHR SWAP1 POP SWAP3 SWAP2 POP POP JUMP JUMPDEST PUSH0 PUSH2 0x1B9E PUSH0 NOT DUP5 PUSH1 0x8 MUL PUSH2 0x1B83 JUMP JUMPDEST NOT DUP1 DUP4 AND SWAP2 POP POP SWAP3 SWAP2 POP POP JUMP JUMPDEST PUSH0 PUSH2 0x1BB6 DUP4 DUP4 PUSH2 0x1B8F JUMP JUMPDEST SWAP2 POP DUP3 PUSH1 0x2 MUL DUP3 OR SWAP1 POP SWAP3 SWAP2 POP POP JUMP JUMPDEST PUSH2 0x1BCF DUP3 PUSH2 0x1035 JUMP JUMPDEST PUSH8 0xFFFFFFFFFFFFFFFF DUP2 GT ISZERO PUSH2 0x1BE8 JUMPI PUSH2 0x1BE7 PUSH2 0x120C JUMP JUMPDEST JUMPDEST PUSH2 0x1BF2 DUP3 SLOAD PUSH2 0x1502 JUMP JUMPDEST PUSH2 0x1BFD DUP3 DUP3 DUP6 PUSH2 0x1B3D JUMP JUMPDEST PUSH0 PUSH1 0x20 SWAP1 POP PUSH1 0x1F DUP4 GT PUSH1 0x1 DUP2 EQ PUSH2 0x1C2E JUMPI PUSH0 DUP5 ISZERO PUSH2 0x1C1C JUMPI DUP3 DUP8 ADD MLOAD SWAP1 POP JUMPDEST PUSH2 0x1C26 DUP6 DUP3 PUSH2 0x1BAB JUMP JUMPDEST DUP7 SSTORE POP PUSH2 0x1C8D JUMP JUMPDEST PUSH1 0x1F NOT DUP5 AND PUSH2 0x1C3C DUP7 PUSH2 0x1A29 JUMP JUMPDEST PUSH0 JUMPDEST DUP3 DUP2 LT ISZERO PUSH2 0x1C63 JUMPI DUP5 DUP10 ADD MLOAD DUP3 SSTORE PUSH1 0x1 DUP3 ADD SWAP2 POP PUSH1 0x20 DUP6 ADD SWAP5 POP PUSH1 0x20 DUP2 ADD SWAP1 POP PUSH2 0x1C3E JUMP JUMPDEST DUP7 DUP4 LT ISZERO PUSH2 0x1C80 JUMPI DUP5 DUP10 ADD MLOAD PUSH2 0x1C7C PUSH1 0x1F DUP10 AND DUP3 PUSH2 0x1B8F JUMP JUMPDEST DUP4 SSTORE POP JUMPDEST PUSH1 0x1 PUSH1 0x2 DUP9 MUL ADD DUP9 SSTORE POP POP POP JUMPDEST POP POP POP POP POP POP JUMP JUMPDEST PUSH0 PUSH1 0x80 DUP3 ADD SWAP1 POP DUP2 DUP2 SUB PUSH0 DUP4 ADD MSTORE PUSH2 0x1CAD DUP2 DUP8 PUSH2 0x106D JUMP JUMPDEST SWAP1 POP DUP2 DUP2 SUB PUSH1 0x20 DUP4 ADD MSTORE PUSH2 0x1CC1 DUP2 DUP7 PUSH2 0x106D JUMP JUMPDEST SWAP1 POP PUSH2 0x1CD0 PUSH1 0x40 DUP4 ADD DUP6 PUSH2 0xFA3 JUMP JUMPDEST PUSH2 0x1CDD PUSH1 0x60 DUP4 ADD DUP5 PUSH2 0xFA3 JUMP JUMPDEST SWAP6 SWAP5 POP POP POP POP POP JUMP JUMPDEST PUSH32 0x4E487B7100000000000000000000000000000000000000000000000000000000 PUSH0 MSTORE PUSH1 0x32 PUSH1 0x4 MSTORE PUSH1 0x24 PUSH0 REVERT INVALID LOG2 PUSH5 0x6970667358 0x22 SLT KECCAK256 POP KECCAK256 0xC4 PUSH26 0x21DD9EA7E92B328A6D66C543B24B18FCFB04297104FDAF1950E8 DUP12 0xB4 PUSH5 0x736F6C6343 STOP ADDMOD BYTE STOP CALLER "
				},
				"gasEstimates": {
					"creation": {
						"codeDepositCost": "1499400",
						"executionCost": "infinite",
						"totalCost": "infinite"
					},
					"external": {
						"adminWithdrawFunds(uint256)": "infinite",
						"contributions(uint256,address)": "infinite",
						"createProject(string,string,uint256,uint256,uint256)": "infinite",
						"fundProject(uint256)": "infinite",
						"isIdUsed(uint256)": "2807",
						"noOfProjAddWise(address)": "2913",
						"projects(uint256)": "infinite",
						"setDeadline(uint256,uint256)": "infinite",
						"totalFaildedToFundProj()": "infinite",
						"totalSuccessfullyFundedProj()": "2448",
						"totalnoOfProjects()": "2535",
						"userWithdrawFunds(uint256)": "infinite"
					}
				},
				"methodIdentifiers": {
					"adminWithdrawFunds(uint256)": "b1357b68",
					"contributions(uint256,address)": "3d891f59",
					"createProject(string,string,uint256,uint256,uint256)": "f81bf601",
					"fundProject(uint256)": "6c563abe",
					"isIdUsed(uint256)": "7b12376e",
					"noOfProjAddWise(address)": "66b48541",
					"projects(uint256)": "107046bd",
					"setDeadline(uint256,uint256)": "009a0b30",
					"totalFaildedToFundProj()": "fa1d4d2d",
					"totalSuccessfullyFundedProj()": "0bca5da0",
					"totalnoOfProjects()": "fb83a4ad",
					"userWithdrawFunds(uint256)": "592cef6d"
				}
			},
			"storageLayout": {
				"storage": [
					{
						"astId": 3,
						"contract": "contracts/ManageProject.sol:ManageProject",
						"label": "owner",
						"offset": 0,
						"slot": "0",
						"type": "t_address_payable"
					},
					{
						"astId": 77,
						"contract": "contracts/ManageProject.sol:ManageProject",
						"label": "totalnoOfProjects",
						"offset": 0,
						"slot": "1",
						"type": "t_uint256"
					},
					{
						"astId": 79,
						"contract": "contracts/ManageProject.sol:ManageProject",
						"label": "totalSuccessfullyFundedProj",
						"offset": 0,
						"slot": "2",
						"type": "t_uint256"
					},
					{
						"astId": 82,
						"contract": "contracts/ManageProject.sol:ManageProject",
						"label": "keys",
						"offset": 0,
						"slot": "3",
						"type": "t_array(t_uint256)dyn_storage"
					},
					{
						"astId": 84,
						"contract": "contracts/ManageProject.sol:ManageProject",
						"label": "_commision",
						"offset": 0,
						"slot": "4",
						"type": "t_address_payable"
					},
					{
						"astId": 103,
						"contract": "contracts/ManageProject.sol:ManageProject",
						"label": "noOfProjAddWise",
						"offset": 0,
						"slot": "5",
						"type": "t_mapping(t_address,t_uint256)"
					},
					{
						"astId": 127,
						"contract": "contracts/ManageProject.sol:ManageProject",
						"label": "projects",
						"offset": 0,
						"slot": "6",
						"type": "t_mapping(t_uint256,t_struct(Project)122_storage)"
					},
					{
						"astId": 133,
						"contract": "contracts/ManageProject.sol:ManageProject",
						"label": "contributions",
						"offset": 0,
						"slot": "7",
						"type": "t_mapping(t_uint256,t_mapping(t_address,t_uint256))"
					},
					{
						"astId": 137,
						"contract": "contracts/ManageProject.sol:ManageProject",
						"label": "isIdUsed",
						"offset": 0,
						"slot": "8",
						"type": "t_mapping(t_uint256,t_bool)"
					}
				],
				"types": {
					"t_address": {
						"encoding": "inplace",
						"label": "address",
						"numberOfBytes": "20"
					},
					"t_address_payable": {
						"encoding": "inplace",
						"label": "address payable",
						"numberOfBytes": "20"
					},
					"t_array(t_uint256)dyn_storage": {
						"base": "t_uint256",
						"encoding": "dynamic_array",
						"label": "uint256[]",
						"numberOfBytes": "32"
					},
					"t_bool": {
						"encoding": "inplace",
						"label": "bool",
						"numberOfBytes": "1"
					},
					"t_mapping(t_address,t_uint256)": {
						"encoding": "mapping",
						"key": "t_address",
						"label": "mapping(address => uint256)",
						"numberOfBytes": "32",
						"value": "t_uint256"
					},
					"t_mapping(t_uint256,t_bool)": {
						"encoding": "mapping",
						"key": "t_uint256",
						"label": "mapping(uint256 => bool)",
						"numberOfBytes": "32",
						"value": "t_bool"
					},
					"t_mapping(t_uint256,t_mapping(t_address,t_uint256))": {
						"encoding": "mapping",
						"key": "t_uint256",
						"label": "mapping(uint256 => mapping(address => uint256))",
						"numberOfBytes": "32",
						"value": "t_mapping(t_address,t_uint256)"
					},
					"t_mapping(t_uint256,t_struct(Project)122_storage)": {
						"encoding": "mapping",
						"key": "t_uint256",
						"label": "mapping(uint256 => struct ManageProject.Project)",
						"numberOfBytes": "32",
						"value": "t_struct(Project)122_storage"
					},
					"t_string_storage": {
						"encoding": "bytes",
						"label": "string",
						"numberOfBytes": "32"
					},
					"t_struct(Project)122_storage": {
						"encoding": "inplace",
						"label": "struct ManageProject.Project",
						"members": [
							{
								"astId": 105,
								"contract": "contracts/ManageProject.sol:ManageProject",
								"label": "creator",
								"offset": 0,
								"slot": "0",
								"type": "t_address"
							},
							{
								"astId": 107,
								"contract": "contracts/ManageProject.sol:ManageProject",
								"label": "name",
								"offset": 0,
								"slot": "1",
								"type": "t_string_storage"
							},
							{
								"astId": 109,
								"contract": "contracts/ManageProject.sol:ManageProject",
								"label": "description",
								"offset": 0,
								"slot": "2",
								"type": "t_string_storage"
							},
							{
								"astId": 111,
								"contract": "contracts/ManageProject.sol:ManageProject",
								"label": "highestFunder",
								"offset": 0,
								"slot": "3",
								"type": "t_address"
							},
							{
								"astId": 113,
								"contract": "contracts/ManageProject.sol:ManageProject",
								"label": "highestFunding",
								"offset": 0,
								"slot": "4",
								"type": "t_uint256"
							},
							{
								"astId": 115,
								"contract": "contracts/ManageProject.sol:ManageProject",
								"label": "fundingGoal",
								"offset": 0,
								"slot": "5",
								"type": "t_uint256"
							},
							{
								"astId": 117,
								"contract": "contracts/ManageProject.sol:ManageProject",
								"label": "deadline",
								"offset": 0,
								"slot": "6",
								"type": "t_uint256"
							},
							{
								"astId": 119,
								"contract": "contracts/ManageProject.sol:ManageProject",
								"label": "amountRaised",
								"offset": 0,
								"slot": "7",
								"type": "t_uint256"
							},
							{
								"astId": 121,
								"contract": "contracts/ManageProject.sol:ManageProject",
								"label": "funded",
								"offset": 0,
								"slot": "8",
								"type": "t_bool"
							}
						],
						"numberOfBytes": "288"
					},
					"t_uint256": {
						"encoding": "inplace",
						"label": "uint256",
						"numberOfBytes": "32"
					}
				}
			},
			"userdoc": {
				"kind": "user",
				"methods": {},
				"version": 1
			}
		}
	}
}